:020000040800F2
:1000000000A00020A91500083115000837150008C8
:100010003D150008431500084915000800000000C0
:10002000000000000000000000000000F170000867
:100030004F1500080000000041730008A973000874
:10004000F9150008F9150008F9150008F915000858
:10005000F9150008F9150008F9150008F915000848
:10006000F9150008F9150008F9150008F915000838
:10007000F9150008F9150008F9150008F915000828
:10008000F9150008F9150008F9150008F915000818
:10009000F9150008F9150008F9150008F915000808
:1000A000F9150008F9150008F9150008F9150008F8
:1000B000F9150008F9150008F91500085D15000884
:1000C000F9150008F9150008F9150008F9150008D8
:1000D000F9150008F9150008F9150008F9150008C8
:1000E000F9150008F9150008F9150008F9150008B8
:1000F000F9150008F9150008F9150008F9150008A8
:10010000000000000000000000000000F9150008D9
:10011000F9150008F915000871150008F91500080F
:10012000F9150008F9150008F9150008F915000877
:10013000F9150008F9150008000000000000000093
:10014000F9150008F9150008F9150008000000006D
:10015000000000000000000000000000000000009F
:100160000000000000000000F9150008F915000863
:10017000F915000800000000000000000000000069
:0801800000000000F915000861
:1001900010B5054C237833B9044B13B10448AFF3C1
:1001A00000800123237010BD10000020000000001B
:1001B000F078000808B5034B1BB103490348AFF3BF
:1001C000008008BD0000000014000020F078000846
:1001D00081F0004102E000BF83F0004330B54FEAF8
:1001E00041044FEA430594EA050F08BF90EA020F65
:1001F0001FBF54EA000C55EA020C7FEA645C7FEAF8
:10020000655C00F0E2804FEA5454D4EB5555B8BF1A
:100210006D420CDD2C4480EA020281EA030382EA8B
:10022000000083EA010180EA020281EA0303362D1D
:1002300088BF30BD11F0004F4FEA01314FF4801CF0
:100240004CEA113102D0404261EB410113F0004F02
:100250004FEA03334CEA133302D0524263EB4303B9
:1002600094EA050F00F0A780A4F10104D5F1200E57
:100270000DDB02FA0EFC22FA05F2801841F10001B2
:1002800003FA0EF2801843FA05F359410EE0A5F186
:1002900020050EF1200E012A03FA0EFC28BF4CF0B7
:1002A000020C43FA05F3C01851EBE37101F000456D
:1002B00007D54FF0000EDCF1000C7EEB00006EEB7A
:1002C0000101B1F5801F1BD3B1F5001F0CD3490804
:1002D0005FEA30004FEA3C0C04F101044FEA44525B
:1002E00012F5800F80F09A80BCF1004F08BF5FEAE2
:1002F000500C50F1000041EB045141EA050130BDC2
:100300005FEA4C0C404141EB0101013C28BFB1F5D3
:10031000801FE9D291F0000F04BF01460020B1FA1E
:1003200081F308BF2033A3F10B03B3F120020CDAF1
:100330000C3208DD02F1140CC2F10C0201FA0CF0CF
:1003400021FA02F10CE002F11402D8BFC2F1200C34
:1003500001FA02F120FA0CFCDCBF41EA0C019040EA
:10036000E41AA2BF01EB0451294330BD6FEA040433
:100370001F3C1CDA0C340EDC04F11404C4F120021E
:1003800020FA04F001FA02F340EA030021FA04F330
:1003900045EA030130BDC4F10C04C4F1200220FA87
:1003A00002F001FA04F340EA0300294630BD21FAC5
:1003B00004F0294630BD94F0000F83F4801306BF8B
:1003C00081F480110134013D4EE77FEA645C18BF7F
:1003D0007FEA655C29D094EA050F08BF90EA020F16
:1003E00005D054EA000C04BF1946104630BD91EA0E
:1003F000030F1EBF0021002030BD5FEA545C05D111
:100400004000494128BF41F0004130BD14F580044F
:100410003CBF01F5801130BD01F0004545F0FE41C3
:1004200041F470014FF0000030BD7FEA645C1ABFF8
:10043000194610467FEA655C1CBF0B46024650EA2F
:10044000013406BF52EA033591EA030F41F400215B
:1004500030BD00BF90F0000F04BF0021704730B5E1
:100460004FF4806404F132044FF000054FF00001B6
:1004700050E700BF90F0000F04BF0021704730B577
:100480004FF4806404F1320410F0004548BF40424C
:100490004FF000013EE700BF42004FEAE2014FEAA1
:1004A00031014FEA02701FBF12F07F4393F07F4F7C
:1004B00081F06051704732F07F4208BF704793F07F
:1004C0007F4F04BF41F40021704730B54FF4607492
:1004D00001F0004521F000411CE700BF50EA010295
:1004E00008BF704730B54FF000050AE050EA01023E
:1004F00008BF704730B511F0004502D5404261EBAE
:1005000041014FF4806404F132045FEA915C3FF4EE
:10051000D8AE4FF003025FEADC0C18BF03325FEA8B
:10052000DC0C18BF033202EBDC02C2F1200300FA3C
:1005300003FC20FA02F001FA03FE40EA0E0021FA61
:1005400002F11444BDE600BF70B54FF0FF0C4CF44F
:10055000E06C1CEA11541DBF1CEA135594EA0C0F01
:1005600095EA0C0F00F0DEF82C4481EA030621EA3C
:100570004C5123EA4C5350EA013518BF52EA033577
:1005800041F4801143F4801338D0A0FB02CE4FF029
:100590000005E1FB02E506F00042E0FB03E54FF059
:1005A0000006E1FB03569CF0000F18BF4EF0010E51
:1005B000A4F1FF04B6F5007F64F5407404D25FEA4D
:1005C0004E0E6D4146EB060642EAC62141EA555100
:1005D0004FEAC52040EA5E504FEACE2EB4F1FD0C42
:1005E00088BFBCF5E06F1ED8BEF1004F08BF5FEAC0
:1005F000500E50F1000041EB045170BD06F0004672
:1006000046EA010140EA020081EA0301B4EB5C041E
:10061000C2BFD4EB0C0541EA045170BD41F4801116
:100620004FF0000E013C00F3AB8014F1360FDEBF3B
:10063000002001F0004170BDC4F10004203C35DA17
:100640000C341BDC04F11404C4F1200500FA05F39A
:1006500020FA04F001FA05F240EA020001F000423B
:1006600021F0004110EBD37021FA04F642EB0601B1
:100670005EEA430E08BF20EAD37070BDC4F10C04DB
:10068000C4F1200500FA04F320FA05F001FA04F29F
:1006900040EA020001F0004110EBD37041F100018B
:1006A0005EEA430E08BF20EAD37070BDC4F1200596
:1006B00000FA05F24EEA020E20FA04F301FA05F2FE
:1006C00043EA020321FA04F001F0004121FA04F2A6
:1006D00020EA020000EBD3705EEA430E08BF20EA76
:1006E000D37070BD94F0000F0FD101F000464000B0
:1006F00041EB010111F4801F08BF013CF7D041EA32
:10070000060195F0000F18BF704703F00046520035
:1007100043EB030313F4801F08BF013DF7D043EA06
:100720000603704794EA0C0F0CEA135518BF95EABC
:100730000C0F0CD050EA410618BF52EA4306D1D143
:1007400081EA030101F000414FF0000070BD50EA62
:10075000410606BF1046194652EA430619D094EAEC
:100760000C0F02D150EA013613D195EA0C0F05D1D6
:1007700052EA03361CBF104619460AD181EA03012A
:1007800001F0004141F0FE4141F470014FF00000E2
:1007900070BD41F0FE4141F4780170BD70B54FF07D
:1007A000FF0C4CF4E06C1CEA11541DBF1CEA1355FD
:1007B00094EA0C0F95EA0C0F00F0A7F8A4EB0504DF
:1007C00081EA030E52EA03354FEA013100F08880D6
:1007D0004FEA03334FF0805545EA131343EA12639F
:1007E0004FEA022245EA111545EA10654FEA002654
:1007F0000EF000419D4208BF964244F1FD0404F50D
:10080000407402D25B084FEA3202B61A65EB030568
:100810005B084FEA32024FF480104FF4002CB6EB25
:10082000020E75EB030E22BFB61A754640EA0C00A5
:100830005B084FEA3202B6EB020E75EB030E22BFE5
:10084000B61A754640EA5C005B084FEA3202B6EB26
:10085000020E75EB030E22BFB61A754640EA9C00E5
:100860005B084FEA3202B6EB020E75EB030E22BFB5
:10087000B61A754640EADC0055EA060E18D04FEA73
:10088000051545EA16754FEA06164FEAC30343EA13
:1008900052734FEAC2025FEA1C1CC0D111F4801FE0
:1008A0000BD141EA00014FF000004FF0004CB6E7D9
:1008B00011F4801F04BF01430020B4F1FD0C88BF78
:1008C000BCF5E06F3FF6AFAEB5EB030C04BFB6EB83
:1008D000020C5FEA500C50F1000041EB045170BD76
:1008E0000EF0004E4EEA113114EB5C04C2BFD4EBA3
:1008F0000C0541EA045170BD41F480114FF0000E27
:10090000013C90E645EA060E8DE60CEA135594EAA2
:100910000C0F08BF95EA0C0F3FF43BAF94EA0C0FA5
:100920000AD150EA01347FF434AF95EA0C0F7FF41A
:1009300025AF104619462CE795EA0C0F06D152EA6E
:1009400003353FF4FDAE1046194622E750EA410652
:1009500018BF52EA43067FF4C5AE50EA41047FF463
:100960000DAF52EA43057FF4EBAE12E74FEA4102C6
:10097000B2F1E04324BFB3F5001CDCF1FE5C0DD9FD
:1009800001F0004C4FEAC0024CEA5070B2F1004F47
:1009900040EB830008BF20F00100704711F0804F4A
:1009A00021D113F13872BCBF01F00040704741F40F
:1009B00080114FEA5252C2F11802C2F1200C10FA13
:1009C0000CF320FA02F018BF40F001004FEAC123F7
:1009D0004FEAD32303FA0CFC40EA0C0023FA02F39B
:1009E0004FEA4303CCE77FEA625307D150EA013371
:1009F0001EBF4FF0FE4040F44000704701F0004041
:100A000040F0FE4040F40000704700BF80B485B065
:100A100000AFF860B9607A60FB68074A1A60BB688B
:100A2000064A1A607B6880221A6000BF1437BD46F0
:100A30005DF8047B704700BF2C0000208000002080
:100A4000B0B5B0B000AF00F0D9FD00F0B9F800F0DB
:100A5000C1F900F085F900F013F92823A7F8B030A8
:100A6000022387F8B23007F1B003033346491A4630
:100A70000B4603CB1060516019889B7811819372EB
:100A80000F2387F8BD300023C7F8A8300023C7F82C
:100A9000AC3007F1A803184604F09FFB03463B4A1D
:100AA00013603B4B07F18C041D460FCD0FC495E836
:100AB000070084E8070007F18C030021184604F0C2
:100AC0002CFB0346334A1360334B07F170041D4679
:100AD0000FCD0FC495E8070084E8070007F1700305
:100AE0000021184604F019FB03462C4A13602C4BD6
:100AF00007F154041D460FCD0FC495E8070084E8A4
:100B0000070007F154030021184604F006FB0346D2
:100B1000244A1360244B07F138041D460FCD0FC43F
:100B200095E8070084E8070007F13803002118461C
:100B300004F0F3FA03461D4A13601D4B07F11C0431
:100B40001D460FCD0FC495E8070084E8070007F1A4
:100B50001C030021184604F0E0FA0346154A13600E
:100B6000154B3C461D460FCD0FC495E8070084E8A1
:100B700007003B460021184604F0CFFA03460F4A0F
:100B8000136004F0C3FAFEE73C790008D00F0020A0
:100B90004879000894100020647900089010002023
:100BA00080790008CC0F00209C7900089810002064
:100BB000B879000808100020D4790008EC10002053
:100BC00080B59EB000AF07F15003282200211846DF
:100BD00006F086FE07F13C0300221A605A609A6014
:100BE000DA601A613B463C220021184606F078FE86
:100BF00003233B654FF4A0237B650023BB650123E2
:100C00003B6610237B660223FB664FF480333B6711
:100C10004FF480137B6707F15003184601F0CAFDBB
:100C20000346002B01D000F041FB0F23FB6302239E
:100C30003B6400237B644FF48063BB640023FB644C
:100C400007F13C030121184602F0BCFC0346002BCF
:100C500001D000F02BFBA0233B604FF480737B623C
:100C60000023FB613B46184602F0F2FE0346002BD0
:100C700001D000F01BFB00BF7837BD4680BD0000EF
:100C800080B58AB000AF07F11C0300221A605A60D9
:100C90009A603B1D00221A605A609A60DA601A61FD
:100CA0005A612E4B4FF0A0421A602C4B00225A6022
:100CB0002A4B00229A60294B00221A61274B0022FE
:100CC0005A76264B002283F82020244B0022DA6239
:100CD000224B01229A62214B0022DA601F4B012233
:100CE000DA611E4B002283F830201C4B04225A612B
:100CF0001A4B00221A76194B00225A63174800F04B
:100D0000B3FC0346002B01D000F0D0FA0023FB61B6
:100D100007F11C031946114801F080F90346002B26
:100D200001D000F0C3FA02237B600123BB600023E3
:100D30003B610223FB6000237B610023BB613B1D01
:100D40001946064800F07EFE0346002B01D000F055
:100D5000ADFA00BF2837BD4680BD00BF401000205F
:100D600080B500AF184B194A1A60174B184A5A60E1
:100D7000154B00229A60144B0222DA60124B0122BA
:100D80001A61114B00225A610F4B00229A610E4BDF
:100D90000022DA610C4B00221A620B4B00225A62CD
:100DA000094B00229A62084B0022DA62064B48F295
:100DB00061021A63044802F0FBFF0346002B01D0D6
:100DC00000F074FA00BF80BD9C1000200054004069
:100DD0000E09002080B58AB000AF07F1140300228D
:100DE0001A605A609A60DA601A61494B5B69484A36
:100DF00043F400135361464B5B6903F400133B61FA
:100E00003B69434B5B69424A43F400235361404BC7
:100E10005B6903F40023FB60FB683D4B5B693C4A64
:100E200043F4800353613A4B5B6903F48003BB6076
:100E3000BB68374B5B69364A43F400335361344B2C
:100E40005B6903F400337B607B68314B5B69304A3C
:100E500043F4802353612E4B5B6903F480233B6092
:100E60003B6800224FF608712A4801F08BFC3723BB
:100E70007B614FF49013BB610023FB6107F1140306
:100E80001946244801F004FB4FF608737B610123E7
:100E9000BB610023FB6100233B6207F11403194689
:100EA0001C4801F0F5FA01237B610023BB6100239C
:100EB000FB6107F1140319464FF0904001F0E8FA86
:100EC000E0237B610223BB610023FB6103233B62C0
:100ED00005237B6207F1140319464FF0904001F09F
:100EE000D7FA4FF4C0537B610223BB610023FB613F
:100EF00003233B620E237B6207F1140319464FF074
:100F0000904001F0C5FA00BF2837BD4680BD00BF44
:100F1000001002400010004890B585B000AF786026
:100F2000274B284A07CA83E80700274A274B14465D
:100F300007CB20606160A260254B264A10681860CC
:100F400012791A711E4B1422DA85234B1B68642117
:100F5000184604F05BF9214800F066FDF8601E4B6E
:100F60001B68184604F0A0F9F868FFF773FA10A39D
:100F7000D3E90023FFF7E8FA02460B46104619466C
:100F80000DA3D3E90023FFF727F902460B461046CD
:100F90001946FFF7EBFC0346094A1363084BB3F904
:100FA0002E30184604F005F9CFE700BFAFF30080FC
:100FB000B0BF02000058AB3F0000000000B8504036
:100FC00024110020F07900082F110020FC7900087E
:100FD0003D110020087A0008D00F002040100020AA
:100FE000B0B584B000AF78602F4B304A07CA03C356
:100FF0001A702F4A2F4B15461C460FCC286069608B
:10100000AA60EB6007CC28616961AA612388AB8381
:10101000294B2A4A1068186012791A71224B0A2249
:10102000DA85274B1B686421184604F0EFF8254841
:1010300000F0FAFCF860224B1B68184604F034F903
:10104000F868FFF707FA02460B4613A1D1E9000141
:10105000FFF7C2F802460B461046194610A3D3E923
:101060000023FFF79BFB02460B46104619464FF044
:101070000002154BFFF7B2F802460B461046194620
:10108000FFF774FC0346084A1363074BB3F92E308D
:10109000184604F08EF8C4E7E17A14AE47E1F63F53
:1010A0003333333333331140F0100020107A00080B
:1010B000FB1000201C7A000809110020087A0008A3
:1010C000D00F002040100020000039400000000038
:1010D00080B584B000AF7860254B264A07CA83E804
:1010E0000700254A254B03CB106051601B881381F4
:1010F000234B244A1068186012791A711C4BC822BD
:10110000DA85214B1B686421184604F07FF81F48DC
:1011100000F08AFCF8601C4B1B68184604F0C4F809
:10112000F868FFF797F910A3D3E90023FFF70CFA4B
:1011300002460B46104619464FF00002144BFFF7CB
:101140004BF802460B4610461946FFF70FFC0346C4
:10115000074A1363064BB3F92E30184604F029F8FA
:10116000CFE700BFAFF3008080FD150000409F3F38
:101170000C100020F0790008171000203C7A0008BD
:1011800025100020087A0008D00F00204010002011
:101190000000294000000000B0B584B000AF7860C6
:1011A000294A2A4B14461D460FCD0FC42B682380B5
:1011B000274A284B15461C460FCC28606960AA6058
:1011C000EB6023882B82244B244A10681860127924
:1011D0001A711D4B0122DA85214B1B6864211846C8
:1011E00004F014F81F4800F01FFCF8601C4B1B684B
:1011F000184604F059F8F868FFF72CF90EA3D3E964
:101200000023FFF7A1F902460B46104619460CA32E
:10121000D3E90023FEF7E0FF02460B4610461946CD
:10122000FFF7A4FB0346084A1363074BB3F92E30BC
:10123000184603F0BEFFCFE7944AE837C054B53FE5
:101240005C23DD2AE34C3140D40F0020487A0008AB
:10125000DF0F00205C7A0008ED0F0020087A0008FC
:10126000D00F00204010002080B582B000AF786021
:10127000012003F09EFFFBE780B582B000AF7860ED
:10128000012003F096FFFBE780B582B000AF7860E5
:101290007B681B68044A934201D100F0C5F900BF86
:1012A0000837BD4680BD00BF0010004080B400AFCD
:1012B00072B600BFFEE7000080B582B000AF114BF0
:1012C0009B69104A43F0010393610E4B9B6903F045
:1012D00001037B607B680B4BDB690A4A43F0805358
:1012E000D361084BDB6903F080533B603B6800220D
:1012F0000F216FF0010001F0A1F800BF0837BD46D3
:1013000080BD00BF0010024080B58CB000AF786097
:1013100007F11C0300221A605A609A60DA601A61B1
:101320007B681B68B3F1A04F54D12C4B5B692B4AEF
:1013300043F080535361294B5B6903F08053BB61D9
:10134000BB69264B5B69254A43F400235361234B59
:101350005B6903F400237B617B69204B5B691F4A57
:1013600043F4003353611D4B5B6903F400333B616D
:101370003B691A4B5B69194A43F480035361174B6D
:101380005B6903F48003FB60FB680123FB610323BB
:101390003B6200237B6207F11C031946104801F0F1
:1013A00077F80E23FB6103233B6200237B6207F186
:1013B0001C0319464FF0904001F06AF81023FB61BE
:1013C00003233B6200237B6207F11C031946054897
:1013D00001F05EF800BF3037BD4680BD001002400E
:1013E000000800480014004880B58AB000AF78605B
:1013F00007F1140300221A605A609A60DA601A61D9
:101400007B681B681B4A93422FD11B4B5B691A4AAE
:1014100043F480235361184B5B6903F480233B61E1
:101420003B69C0237B611223BB610123FB61032362
:101430003B6204237B6207F1140319460F4801F055
:1014400027F80D4BDB690C4A43F40013D3610A4BB8
:10145000DB6903F40013FB60FB68002205211F20F9
:1014600000F0ECFF1F2001F005F800BF2837BD4653
:1014700080BD00BF0054004000100240000400483E
:1014800080B58CB000AF78600023FB620023BB62A4
:1014900000227968362000F0D1FF362000F0EAFF04
:1014A0001F4BDB691E4A43F01003D3611C4BDB6901
:1014B00003F01003FB60FB6807F1100207F114034F
:1014C0001146184602F092FA02F06EFA03465B00EB
:1014D000FB62FB6A134AA2FB03239B0C013BBB622A
:1014E000114B124A1A60104B40F2E732DA600E4A92
:1014F000BB6A53600C4B00221A610B4B00229A60AE
:10150000094803F017FB0346002B04D1064803F0FB
:1015100073FB034600E0012318463037BD4680BD0B
:101520000010024083DE1B435811002000100040D1
:1015300080B400AFFEE780B400AFFEE780B400AF38
:10154000FEE780B400AFFEE780B400AFFEE780B4F2
:1015500000AF00BFBD465DF8047B704780B500AFAB
:10156000024802F0DDFC00BF80BD00BF9C100020DF
:1015700080B500AF024803F0A9FB00BF80BD00BFEB
:101580005811002080B400AF064BD3F88830054ACC
:1015900043F47003C2F8883000BFBD465DF8047B99
:1015A000704700BF00ED00E0DFF834D00D480E4971
:1015B0000E4A002302E0D458C4500433C4188C42AD
:1015C000F9D30B4A0B4C002301E013600432A24212
:1015D000FBD3FFF7D7FF06F051F9FFF731FAFEE72B
:1015E00000A000200000002010000020B87A0008B1
:1015F00010000020A8110020FEE7000080B500AF19
:10160000084B1B68074A43F010031360032000F0E7
:101610000AFF0F20FFF734FFFFF74EFE00231846A6
:1016200080BD00BF0020024080B400AF064B1B7895
:101630001A46064B1B681344044A136000BFBD469C
:101640005DF8047B704700BF08000020A411002053
:1016500080B400AF034B1B681846BD465DF8047BA1
:10166000704700BFA411002080B59AB000AF786029
:10167000002387F8673000233B660023BB607B684C
:10168000002B01D10123C9E17B681B69002B7B681A
:101690001B6C03F01003002B76D17B681B6C002BB6
:1016A00052D17B6800225A647B680022DA647B682E
:1016B00000229A647B68002283F83C207868FFF758
:1016C00023FE7B681B689B6803F08053002B3BD193
:1016D000786800F095FD034687F867307B681B6CDF
:1016E00003F01003002B2FD197F86730002B2BD17C
:1016F0007B681B6C23F4885323F0020343F002023F
:101700007B681A647B681B689A687B681B6822F098
:1017100040529A607B681B689A687B681B6842F03D
:1017200080529A60864B1B68864AA2FB03239A0C60
:1017300013469B0013445B00BB6002E0BB68013BA7
:10174000BB60BB68002BF9D17B681B689B6803F00A
:101750008053002B07D07B681B689B6803F0005305
:10176000B3F1005F10D17B681B6C23F0120343F0D0
:1017700010027B681A647B685B6C43F001027B6833
:101780005A64012387F867307B681B6C03F01003F1
:10179000002B40F0368197F86730002B40F0318104
:1017A0007B681B689B6803F00403002B40F02981D1
:1017B0007B681B6C23F4817343F002027B681A641C
:1017C0007B681B68B3F1A04F04D07B681B685E4A3E
:1017D000934201D15D4B00E05D4BFB657B681B686C
:1017E000B3F1A04F02D1584BFB601AE07B681B6835
:1017F000554A934203D14FF0A043FB6011E07B6850
:101800001B68544A934202D1534BFB6009E07B684A
:101810001B68514A934202D14E4BFB6001E000230A
:10182000FB607B681B689B6803F00303012B08D1F6
:101830007B681B681B6803F00103012B01D10123A6
:1018400000E00023002B1CD1FB68002B10D0FB68AC
:101850009B6803F00303012B07D1FB681B6803F0AF
:101860000103012B01D1012300E00023002B08D14B
:10187000FB6D9B6823F440327B685B681A43FB6D09
:101880009A607B685B7E5B037A68526B012A02D0A8
:101890004FF4805200E000221A437B68DB681A4351
:1018A0007B689B6813433A6E13433B667B6893F8EF
:1018B0002030012B1BD17B685B7E002B09D17B681C
:1018C0005B6A013B5A043B6E134343F480333B662F
:1018D0000DE07B681B6C23F0220343F020027B6841
:1018E0001A647B685B6C43F001027B685A647B6816
:1018F0009B6A012B3AD07B681B68164A934204D03E
:101900007B681B68144A934228D17B689B6AB3F5B5
:10191000307F12D07B689B6AB3F5807F0AD07B68EA
:101920009B6AB3F5E07F02D07B689B6A18E04FF4B6
:10193000807315E04FF4307312E04FF4E0730FE062
:101940000000002083DE1B43000100500003005014
:101950000007005000040050000500507B689B6A9F
:101960007A68D26A13433A6E13433B667B681B68FE
:101970009B6803F00C03002B14D17B681B68DB68A9
:101980007A68126823F4804323F00203D3607B68F3
:101990001B7E9A037B6893F830305B0013433A6EEA
:1019A00013433B667B681B68DA681E4B13407A68FA
:1019B0001268396E0B43D3607B681B69012B0CD115
:1019C0007B681B681B6B23F00F017B68DB695A1E69
:1019D0007B681B680A431A6307E07B681B681A6B05
:1019E0007B681B6822F00F021A637B6800225A642E
:1019F0007B681B6C23F0030343F001027B681A64CD
:101A00000AE07B681B6C23F0120343F010027B6832
:101A10001A64012387F8673097F8673018466837EB
:101A2000BD4680BD07C0F0FF80B483B000AF7860D2
:101A30007B681B681B6C18460C37BD465DF8047B41
:101A40007047000080B49BB000AF7860396000231D
:101A500087F867300023BB607B6893F83C30012B2C
:101A600001D10223CBE27B68012283F83C207B6812
:101A70001B689B6803F00403002B40F0AF823B68B7
:101A80005B68042B1CD87B681B68196B3B685A6821
:101A900013465B0013445B001A461F239340DB434D
:101AA00019403B6818683B685A6813465B0013444A
:101AB0005B0000FA03F27B681B680A431A6363E069
:101AC0003B685B68092B1ED87B681B68596B3B68B9
:101AD0005A6813465B0013445B001E3B1F2202FA48
:101AE00003F3DB4319403B6818683B685A681346A8
:101AF0005B0013445B001E3B00FA03F27B681B682B
:101B00000A435A6340E03B685B680E2B1ED87B6833
:101B10001B68996B3B685A6813465B0013445B0073
:101B20003C3B1F2202FA03F3DB4319403B68186871
:101B30003B685A6813465B0013445B003C3B00FA69
:101B400003F27B681B680A439A631DE07B681B688D
:101B5000D96B3B685A6813465B0013445B005A3BE1
:101B60001F2202FA03F3DB4319403B6818683B6805
:101B70005A6813465B0013445B005A3B00FA03F2B9
:101B80007B681B680A43DA637B681B689B6803F009
:101B90000C03002B40F0E5803B681B68092B1CD927
:101BA0007B681B6899693B681A6813465B0013449D
:101BB0001E3B072202FA03F3DB4319403B68986897
:101BC0003B681A6813465B0013441E3B00FA03F29D
:101BD0007B681B680A439A6119E07B681B68596936
:101BE0003B681A6813465B001344072202FA03F3AA
:101BF000DB4319403B6898683B681A6813465B00F2
:101C0000134400FA03F27B681B680A435A613B687D
:101C10005A697B681B68DB68DB0803F003035B0021
:101C200002FA03F33B663B681B69013B032B4FD869
:101C300001A252F823F000BF491C00086B1C0008E9
:101C40008D1C0008AF1C00087B681B681A6E9F4B38
:101C500013403A68126891063A6E0A431A437B6849
:101C60001B6842F000421A667EE07B681B685A6E71
:101C7000964B13403A68126891063A6E0A431A432B
:101C80007B681B6842F000425A666DE07B681B6807
:101C90009A6E8E4B13403A68126891063A6E0A4368
:101CA0001A437B681B6842F000429A665CE07B68DE
:101CB0001B68DA6E854B13403A68126891063A6EDB
:101CC0000A431A437B681B6842F00042DA664BE025
:101CD0007B681B681B6E03F0F8423B681B689B0621
:101CE0009A4207D17B681B681A6E7B681B6822F0DA
:101CF00000421A667B681B685B6E03F0F8423B6823
:101D00001B689B069A4207D17B681B685A6E7B68EA
:101D10001B6822F000425A667B681B689B6E03F0CA
:101D2000F8423B681B689B069A4207D17B681B6898
:101D30009A6E7B681B6822F000429A667B681B687B
:101D4000DB6E03F0F8423B681B689B069A420AD19F
:101D50007B681B68DA6E7B681B6822F00042DA66DB
:101D600001E000BF00E000BF7B681B689B6803F0D8
:101D70000303012B08D17B681B681B6803F0010378
:101D8000012B01D1012300E00023002B40F0318121
:101D90003B68DB68012B0FD07B681B68D3F8B01061
:101DA0003B681B68012202FA03F3DA437B681B6875
:101DB0000A40C3F8B02049E07B681B68D3F8B01034
:101DC0003B681B6801229A407B681B680A43C3F882
:101DD000B0203B681B68092B1CD97B681B6899697C
:101DE0003B681A6813465B0013441B3B072202FA48
:101DF00003F3DB4319403B6898683B681A68134655
:101E00005B0013441B3B00FA03F27B681B680A4328
:101E10009A611BE07B681B6859693B681B685A1C08
:101E200013465B001344072202FA03F3DB43194015
:101E30003B6898683B681B685A1C13465B00134458
:101E400000FA03F27B681B680A435A617B681B68CF
:101E5000B3F1A04F04D07B681B681D4A934201D1A7
:101E60001C4B00E01C4BFB653B681B68102B05D12D
:101E7000FB6D9B6803F40003002B15D03B681B68C7
:101E8000112B05D1FB6D9B6803F08073002B0BD0E9
:101E90003B681B68122B40F0AC80FB6D9B6803F421
:101EA0008003002B40F0A5807B681B68B3F1A04F36
:101EB00002D1074BFB6023E07B681B68044A934216
:101EC0000CD14FF0A043FB601AE000BF00F0FF838D
:101ED0000001005000030050000700507B681B68A1
:101EE0004A4A934202D14A4BFB6009E07B681B6877
:101EF000474A934202D1454BFB6001E00023FB605F
:101F00007B681B689B6803F00303012B08D17B6887
:101F10001B681B6803F00103012B01D1012300E0C2
:101F20000023002B50D1FB68002B10D0FB689B686E
:101F300003F00303012B07D1FB681B6803F00103C7
:101F4000012B01D1012300E00023002B3CD13B6891
:101F50001B68102B1DD17B681B68B3F1A04F18D1F3
:101F6000FB6D9B6843F40002FB6D9A60294B1B6874
:101F7000294AA2FB03239A0C13469B0013445B00DF
:101F8000BB6002E0BB68013BBB60BB68002BF9D1C2
:101F90002EE03B681B68112B0BD17B681B68B3F1EB
:101FA000A04F06D1FB6D9B6843F08072FB6D9A6079
:101FB0001EE03B681B68122B1AD1FB6D9B6843F433
:101FC0008002FB6D9A6013E07B681B6C43F020027B
:101FD0007B681A64012387F867300AE07B681B6C12
:101FE00043F020027B681A64012387F8673000E021
:101FF00000BF7B68002283F83C2097F867301846C2
:102000006C37BD465DF8047B704700BF000400508C
:10201000000500500000002083DE1B4380B499B00F
:1020200000AF78603960002387F85F307B681B68F9
:10203000B3F1A04F02D16D4BBB601AE07B681B6807
:102040006A4A934203D14FF0A043BB6011E07B6822
:102050001B68674A934202D1664BBB6009E07B680C
:102060001B68644A934202D1614BBB6001E00023CC
:10207000BB60BB68002B01D10123B0E07B6893F803
:102080003C30012B01D10223A9E07B68012283F8B7
:102090003C207B681B689B6803F00403002B40F026
:1020A0008D80BB689B6803F00403002B40F08680A2
:1020B0007B681B68B3F1A04F04D07B681B684B4A58
:1020C000934201D14C4B00E04C4BBB653B681B6815
:1020D000002B40D0BB6D9B6823F460423B6859687D
:1020E0007B6893F830305B030B431A43BB6D9A60F7
:1020F0007B681B689B6803F00303012B08D17B6896
:102100001B681B6803F00103012B01D1012300E0D0
:102110000023002B5CD1BB689B6803F00303012BF9
:1021200007D1BB681B6803F00103012B01D1012318
:1021300000E00023002B4BD1BB6D9B6823F471633F
:1021400023F00F033A6811683A6892680A431A4309
:10215000BB6D9A603CE0BB6D9B6823F46042BB6D35
:102160009A607B681B689B6803F00303012B08D10E
:102170007B681B681B6803F00103012B01D101235D
:1021800000E00023002B23D1BB689B6803F003030E
:10219000012B07D1BB681B6803F00103012B01D1A0
:1021A000012300E00023002B12D1BB6D9B6823F4B8
:1021B000716323F00F03BA6D936009E07B681B6CB9
:1021C00043F020027B681A64012387F85F3000E047
:1021D00000BF7B68002283F83C2097F85F301846E8
:1021E0006437BD465DF8047B704700BF00010050B6
:1021F000000400500005005000030050000700508C
:1022000080B584B000AF78600023FB607B681B68FA
:102210009B6803F00303012B08D17B681B681B68D4
:1022200003F00103012B01D1012300E00023002B67
:1022300047D07B681B689B6803F00D03012B0FD10F
:102240007B681B689A687B681B6842F002029A6090
:102250007B681B6803221A60FFF7FAF9F86029E02F
:102260007B681B6C43F010027B681A647B685B6CB4
:1022700043F001027B685A64012323E0FFF7E8F989
:102280000246FB68D31A022B14D97B681B689B6833
:1022900003F00103012B0DD17B681B6C43F010028E
:1022A0007B681A647B685B6C43F001027B685A644C
:1022B000012307E07B681B689B6803F00103012B87
:1022C000DCD0002318461037BD4680BD80B485B0F1
:1022D00000AF78607B6803F00703FB600C4BDB68A2
:1022E000BB60BA684FF6FF031340BB60FB681A027D
:1022F000BB68134343F0BF6343F40033BB60044A3D
:10230000BB68D36000BF1437BD465DF8047B7047DF
:1023100000ED00E080B400AF044BDB681B0A03F063
:1023200007031846BD465DF8047B704700ED00E0EA
:1023300080B483B000AF0346FB7197F90730002BE0
:102340000BDBFB7903F01F02074997F907305B09A4
:10235000012000FA02F241F8232000BF0C37BD46ED
:102360005DF8047B704700BF00E100E080B483B0FB
:1023700000AF03463960FB7197F90730002B0ADB89
:102380003B68DAB20C4997F907301201D2B20B441C
:1023900083F800230AE03B68DAB20849FB7903F0CE
:1023A0000F03043B1201D2B20B441A7600BF0C3764
:1023B000BD465DF8047B704700E100E000ED00E001
:1023C00080B489B000AFF860B9607A60FB6803F050
:1023D0000703FB61FB69C3F10703042B28BF042338
:1023E000BB61FB690433062B02D9FB69033B00E0A8
:1023F00000237B614FF0FF32BB6902FA03F3DA433B
:10240000BB681A407B699A404FF0FF317B6901FA43
:1024100003F3D9437B680B40134318462437BD466A
:102420005DF8047B704780B582B000AF7860786853
:10243000FFF74CFF00BF0837BD4680BD80B586B0B2
:1024400000AF0346B9607A60FB7300237B61FFF73E
:1024500061FF78617A68B9687869FFF7B1FF024671
:1024600097F90F3011461846FFF780FF00BF183765
:10247000BD4680BD80B582B000AF0346FB7197F9C1
:1024800007301846FFF754FF00BF0837BD4680BD30
:1024900080B487B000AF7860396000237B6154E17D
:1024A0003B681A6801217B6901FA03F31340FB6062
:1024B000FB68002B00F046813B685B6803F0030378
:1024C000012B05D03B685B6803F00303022B30D17E
:1024D0007B689B683B617B695B00032202FA03F324
:1024E000DB433A6913403B613B68DA687B695B0018
:1024F00002FA03F33A6913433B617B683A699A60D5
:102500007B685B683B6101227B6902FA03F3DB4372
:102510003A6913403B613B685B681B0903F00102A9
:102520007B6902FA03F33A6913433B617B683A69BA
:102530005A603B685B6803F00303032B17D07B688A
:10254000DB683B617B695B00032202FA03F3DB4338
:102550003A6913403B613B689A687B695B0002FA09
:1025600003F33A6913433B617B683A69DA603B687D
:102570005B6803F00303022B23D17B69DA087B68D5
:10258000083253F822303B617B6903F007039B005C
:102590000F2202FA03F3DB433A6913403B613B68C5
:1025A0001A697B6903F007039B0002FA03F33A6997
:1025B00013433B617B69DA087B680832396943F869
:1025C00022107B681B683B617B695B00032202FA77
:1025D00003F3DB433A6913403B613B685B6803F0FC
:1025E00003027B695B0002FA03F33A6913433B6120
:1025F0007B683A691A603B685B6803F44033002BE0
:1026000000F0A080584B9B69574A43F00103936147
:10261000554B9B6903F00103BB60BB68534A7B6960
:102620009B08023352F823303B617B6903F00303BC
:102630009B000F2202FA03F3DB433A6913403B612C
:102640007B68B3F1904F19D07B68494A934213D00D
:102650007B68484A93420DD07B68474A934207D033
:102660007B68464A934201D1042308E0052306E033
:10267000032304E0022302E0012300E000237A693F
:1026800002F00302920093403A6913433B613749D9
:102690007B699B0802333A6941F82320384B1B6859
:1026A0003B61FB68DB433A6913403B613B685B6815
:1026B00003F48033002B03D03A69FB6813433B617A
:1026C0002F4A3B6913602E4B5B683B61FB68DB4321
:1026D0003A6913403B613B685B6803F40033002BAD
:1026E00003D03A69FB6813433B61254A3B69536059
:1026F000234B9B683B61FB68DB433A6913403B61BA
:102700003B685B6803F48013002B03D03A69FB68D5
:1027100013433B611A4A3B699360194BDB683B6189
:10272000FB68DB433A6913403B613B685B6803F439
:102730000013002B03D03A69FB6813433B61104A36
:102740003B69D3607B6901337B613B681A687B69B5
:1027500022FA03F3002B7FF4A3AE00BF00BF1C37A7
:10276000BD465DF8047B7047001002400000014048
:102770000004004800080048000C00480010004811
:102780000004014080B483B000AF78600B467B80CA
:1027900013467B707B78002B03D07A887B689A6124
:1027A00002E07A887B689A6200BF0C37BD465DF80C
:1027B000047B704780B5ADF5007D00AF3B1D186010
:1027C0003B1D1B68002B02D1012300F0F4BE3B1D12
:1027D0001B681B6803F00103002B00F06A81B34BF8
:1027E0005B6803F00C03042B0CD0B04B5B6803F068
:1027F0000C03082B59D1AD4B5B6803F48033B3F560
:10280000803F52D14FF40033C7F8F031D7F8F031A0
:1028100093FAA3F3C7F8EC31D7F8EC31B3FA83F3AA
:10282000DBB25B09DBB243F00103DBB2012B02D167
:102830009E4B1B6815E04FF40033C7F8E831D7F81A
:10284000E83193FAA3F3C7F8E4314FF40033C7F843
:10285000E031D7F8E03193FAA3F3C7F8DC31934BBA
:102860005B6A4FF40032C7F8D821D7F8D82192FA22
:10287000A2F2C7F8D421D7F8D421B2FA82F2D2B2A8
:1028800042F02002D2B202F01F02012101FA02F24C
:102890001340002B00F00C813B1D1B685B68002B74
:1028A00040F00681012300F086BE3B1D1B685B687B
:1028B000B3F5803F06D17D4B1B687C4A43F48033DF
:1028C000136030E03B1D1B685B68002B0CD1774B1D
:1028D0001B68764A23F480331360744B1B68734A79
:1028E00023F4802313601EE03B1D1B685B68B3F577
:1028F000A02F0CD16D4B1B686C4A43F480231360EE
:102900006A4B1B68694A43F4803313600BE0674BE2
:102910001B68664A23F480331360644B1B68634A68
:1029200023F480231360614BDB6A23F00F023B1D0D
:102930001B689B685D491343CB623B1D1B685B684A
:10294000002B59D0FEF784FEC7F8F8010AE0FEF725
:102950007FFE0246D7F8F831D31A642B02D903233D
:1029600000F029BE4FF40033C7F8D031D7F8D0318A
:1029700093FAA3F3C7F8CC31D7F8CC31B3FA83F389
:10298000DBB25B09DBB243F00103DBB2012B02D106
:10299000464B1B6815E04FF40033C7F8C831D7F831
:1029A000C83193FAA3F3C7F8C4314FF40033C7F822
:1029B000C031D7F8C03193FAA3F3C7F8BC313B4B11
:1029C0005B6A4FF40032C7F8B821D7F8B82192FA01
:1029D000A2F2C7F8B421D7F8B421B2FA82F2D2B287
:1029E00042F02002D2B202F01F02012101FA02F2EB
:1029F0001340002BABD05CE0FEF72AFEC7F8F801CD
:102A00000AE0FEF725FE0246D7F8F831D31A642B08
:102A100002D9032300F0CFBD4FF40033C7F8B03123
:102A2000D7F8B03193FAA3F3C7F8AC31D7F8AC318B
:102A3000B3FA83F3DBB25B09DBB243F00103DBB231
:102A4000012B02D1194B1B6815E04FF40033C7F876
:102A5000A831D7F8A83193FAA3F3C7F8A4314FF4FB
:102A60000033C7F8A031D7F8A03193FAA3F3C7F821
:102A70009C310E4B5B6A4FF40032C7F89821D7F8AF
:102A8000982192FAA2F2C7F89421D7F89421B2FAC9
:102A900082F2D2B242F02002D2B202F01F02012131
:102AA00001FA02F21340002BABD102E00010024009
:102AB00000BF3B1D1B681B6803F00203002B00F0E6
:102AC0006F81D04B5B6803F00C03002B0BD0CD4B18
:102AD0005B6803F00C03082B6CD1CA4B5B6803F4F2
:102AE0008033002B66D10223C7F89031D7F890319C
:102AF00093FAA3F3C7F88C31D7F88C31B3FA83F388
:102B0000DBB25B09DBB243F00103DBB2012B02D184
:102B1000BC4B1B6813E00223C7F88831D7F8883113
:102B200093FAA3F3C7F884310223C7F88031D7F8AA
:102B3000803193FAA3F3C7F87C31B24B5B6A02226F
:102B4000C7F87821D7F8782192FAA2F2C7F8742151
:102B5000D7F87421B2FA82F2D2B242F02002D2B295
:102B600002F01F02012101FA02F21340002B07D0EC
:102B70003B1D1B681B69012B02D0012300F01BBD0C
:102B8000A04B1B6823F0F8023B1D1B685B69F82112
:102B9000C7F87011D7F8701191FAA1F1C7F86C114C
:102BA000D7F86C11B1FA81F1C9B28B409549134342
:102BB0000B60F5E03B1D1B681B69002B00F0858056
:102BC0000123C7F86831D7F8683193FAA3F3C7F83F
:102BD0006431D7F86431B3FA83F3DBB203F1845381
:102BE00003F584139B001A4601231360FEF730FDA2
:102BF000C7F8F8010AE0FEF72BFD0246D7F8F831D6
:102C0000D31A022B02D9032300F0D5BC0223C7F844
:102C10006031D7F8603193FAA3F3C7F85C31D7F885
:102C20005C31B3FA83F3DBB25B09DBB243F001033F
:102C3000DBB2012B02D1734B1B6813E00223C7F8F0
:102C40005831D7F8583193FAA3F3C7F85431022317
:102C5000C7F85031D7F8503193FAA3F3C7F84C3185
:102C6000684B5B6A0222C7F84821D7F8482192FADC
:102C7000A2F2C7F84421D7F84421B2FA82F2D2B2C4
:102C800042F02002D2B202F01F02012101FA02F248
:102C90001340002BAFD05B4B1B6823F0F8023B1DA9
:102CA0001B685B69F821C7F84011D7F8401191FA09
:102CB000A1F1C7F83C11D7F83C11B1FA81F1C9B2C2
:102CC0008B40504913430B606AE00123C7F8383149
:102CD000D7F8383193FAA3F3C7F83431D7F8343141
:102CE000B3FA83F3DBB203F1845303F584139B003F
:102CF0001A4600231360FEF7ABFCC7F8F8010AE0A0
:102D0000FEF7A6FC0246D7F8F831D31A022B02D9F7
:102D1000032300F050BC0223C7F83031D7F830311C
:102D200093FAA3F3C7F82C31D7F82C31B3FA83F315
:102D3000DBB25B09DBB243F00103DBB2012B02D152
:102D4000304B1B6813E00223C7F82831D7F828312D
:102D500093FAA3F3C7F824310223C7F82031D7F838
:102D6000203193FAA3F3C7F81C31264B5B6A022289
:102D7000C7F81821D7F8182192FAA2F2C7F814213F
:102D8000D7F81421B2FA82F2D2B242F02002D2B2C3
:102D900002F01F02012101FA02F21340002BAFD111
:102DA0003B1D1B681B6803F00803002B00F0DA8052
:102DB0003B1D1B689B69002B69D00123C7F81031AC
:102DC000D7F8103193FAA3F3C7F80C31D7F80C31C8
:102DD000B3FA83F3DBB21A460B4B13449B001A463B
:102DE00001231360FEF734FCC7F8F8010EE0FEF78C
:102DF0002FFC0246D7F8F831D31A022B06D9032349
:102E0000D9E300BF00100240208190100223C7F8D0
:102E10000831D7F8083193FAA3F3C7F8043107F55E
:102E2000807302221A6007F580731B6893FAA3F27D
:102E300007F1FC031A6007F1F80302221A6007F198
:102E4000F8031B6893FAA3F207F1F4031A60A54B89
:102E50005A6A07F1F0030221196007F1F0031B68B9
:102E600093FAA3F107F1EC03196007F1EC031B6877
:102E7000B3FA83F3DBB243F06003DBB203F01F036A
:102E8000012101FA03F31340002BB0D06AE007F1EF
:102E9000E80301221A6007F1E8031B6893FAA3F222
:102EA00007F1E4031A6007F1E4031B68B3FA83F344
:102EB000DBB21A468C4B13449B001A460023136066
:102EC000FEF7C6FBC7F8F80109E0FEF7C1FB0246B2
:102ED000D7F8F831D31A022B01D903236BE307F19A
:102EE000E00302221A6007F1E0031B6893FAA3F2E1
:102EF00007F1DC031A6007F1D80302221A6007F118
:102F0000D8031B6893FAA3F207F1D4031A6007F100
:102F1000D00302221A6007F1D0031B6893FAA3F2D0
:102F200007F1CC031A606F4B5A6A07F1C8030221FC
:102F3000196007F1C8031B6893FAA3F107F1C403F2
:102F4000196007F1C4031B68B3FA83F3DBB243F0E3
:102F50006003DBB203F01F03012101FA03F3134006
:102F6000002BB2D13B1D1B681B6803F00403002B30
:102F700000F05881002387F8FF315A4BDB6903F0DA
:102F80008053002B12D1574BDB69564A43F08053D4
:102F9000D361544BDB6903F0805207F108031A60D8
:102FA00007F108031B68012387F8FF314F4B1B68AB
:102FB00003F48073002B1AD14C4B1B684B4A43F42B
:102FC00080731360FEF744FBC7F8F80109E0FEF7D1
:102FD0003FFB0246D7F8F831D31A642B01D90323FB
:102FE000E9E2424B1B6803F48073002BEFD03B1DDA
:102FF0001B68DB68012B06D13A4B1B6A394A43F048
:10300000010313622FE03B1D1B68DB68002B0CD112
:10301000344B1B6A334A23F001031362314B1B6AA2
:10302000304A23F0040313621DE03B1D1B68DB687C
:10303000052B0CD12B4B1B6A2A4A43F00403136265
:10304000284B1B6A274A43F0010313620BE0254B10
:103050001B6A244A23F001031362224B1B6A214A94
:1030600023F0040313623B1D1B68DB68002B6BD04D
:10307000FEF7EEFAC7F8F8010BE0FEF7E9FA0246B0
:10308000D7F8F831D31A41F28832934201D9032399
:1030900091E207F1C00302221A6007F1C0031B6826
:1030A00093FAA3F207F1BC031A6007F1B8030222F6
:1030B0001A6007F1B8031B6893FAA3F207F1B4038F
:1030C0001A6007F1B4031B68B3FA83F3DBB25B0940
:1030D000DBB243F00203DBB2022B09D1014B1B6AC6
:1030E00014E000BF001002402081901000700040EA
:1030F00007F1B00302221A6007F1B0031B6893FACC
:10310000A3F207F1AC031A60BB4B5B6A07F1A8029C
:103110000221116007F1A802126892FAA2F107F1E8
:10312000A402116007F1A4021268B2FA82F2D2B2CC
:1031300042F04002D2B202F01F02012101FA02F273
:103140001340002B99D063E0FEF782FAC7F8F8012C
:103150000BE0FEF77DFA0246D7F8F831D31A41F2B8
:103160008832934201D9032325E207F1A00302220A
:103170001A6007F1A0031B6893FAA3F207F19C03FE
:103180001A6007F1980302221A6007F198031B687E
:1031900093FAA3F207F194031A6007F194031B68F2
:1031A000B3FA83F3DBB25B09DBB243F00203DBB2B9
:1031B000022B02D1904B1B6A0DE007F19003022213
:1031C0001A6007F190031B6893FAA3F207F18C03CE
:1031D0001A60894B5B6A07F188020221116007F1CE
:1031E0008802126892FAA2F107F18402116007F1D5
:1031F00084021268B2FA82F2D2B242F04002D2B233
:1032000002F01F02012101FA02F21340002BA0D1AB
:1032100097F8FF31012B05D1774BDB69764A23F014
:103220008053D3613B1D1B68DB69002B00F0C2811A
:10323000714B5B6803F00C03082B00F09C813B1D75
:103240001B68DB69022B40F0148107F180034FF00B
:1032500080721A6007F180031B6893FAA3F207F1EA
:103260007C031A6007F17C031B68B3FA83F3DBB2BB
:1032700003F1845303F584139B001A460023136063
:10328000FEF7E6F9C7F8F80109E0FEF7E1F90246B2
:10329000D7F8F831D31A022B01D903238BE107F1B8
:1032A00078034FF000721A6007F178031B6893FAF5
:1032B000A3F207F174031A6007F174031B68B3FAF1
:1032C00083F3DBB25B09DBB243F00103DBB2012B1A
:1032D00002D1494B1B681BE007F170034FF00072ED
:1032E0001A6007F170031B6893FAA3F207F16C03ED
:1032F0001A6007F168034FF000721A6007F1680363
:103300001B6893FAA3F207F164031A603A4B5B6AF5
:1033100007F160024FF00071116007F1600212685E
:1033200092FAA2F107F15C02116007F15C021268E7
:10333000B2FA82F2D2B242F02002D2B202F01F02FE
:10334000012101FA02F21340002B9ED12A4B5B6847
:1033500023F474123B1D1B68596A3B1D1B681B6AD2
:103360000B43254913434B6007F158034FF080721C
:103370001A6007F158031B6893FAA3F207F154038C
:103380001A6007F154031B68B3FA83F3DBB203F14D
:10339000845303F584139B001A4601231360FEF740
:1033A00057F9C7F8F80109E0FEF752F90246D7F8D5
:1033B000F831D31A022B01D90323FCE007F15003A3
:1033C0004FF000721A6007F150031B6893FAA3F2E2
:1033D00007F14C031A6007F14C031B68B3FA83F33F
:1033E000DBB25B09DBB243F00103DBB2012B05D199
:1033F000014B1B681EE000BF0010024007F14803AC
:103400004FF000721A6007F148031B6893FAA3F2A9
:1034100007F144031A6007F140034FF000721A608D
:1034200007F140031B6893FAA3F207F13C031A600B
:10343000634B5B6A07F138024FF00071116007F1CE
:103440003802126892FAA2F107F13402116007F112
:1034500034021268B2FA82F2D2B242F02002D2B240
:1034600002F01F02012101FA02F21340002B9BD04F
:10347000A0E007F130034FF080721A6007F13003CB
:103480001B6893FAA3F207F12C031A6007F12C03CF
:103490001B68B3FA83F3DBB203F1845303F584139F
:1034A0009B001A4600231360FEF7D2F8C7F8F80114
:1034B00009E0FEF7CDF80246D7F8F831D31A022B0F
:1034C00001D9032377E007F128034FF000721A6057
:1034D00007F128031B6893FAA3F207F124031A608B
:1034E00007F124031B68B3FA83F3DBB25B09DBB299
:1034F00043F00103DBB2012B02D1314B1B681BE00F
:1035000007F120034FF000721A6007F120031B68D7
:1035100093FAA3F207F11C031A6007F118034FF0A6
:1035200000721A6007F118031B6893FAA3F207F1FF
:1035300014031A60224B5B6A07F110024FF000710E
:10354000116007F11002126892FAA2F107F10C0261
:10355000116007F10C021268B2FA82F2D2B242F0A4
:103560002002D2B202F01F02012101FA02F213403E
:10357000002B9ED11EE03B1D1B68DB69012B01D196
:10358000012318E00E4B5B68C7F8F431D7F8F4312B
:1035900003F480323B1D1B681B6A9A4208D1D7F89E
:1035A000F43103F470123B1D1B685B6A9A4201D030
:1035B000012300E00023184607F50077BD4680BDD3
:1035C0000010024080B59EB000AF786039600023E3
:1035D0007B677B68002B01D1012362E1904B1B6864
:1035E00003F007033A689A4210D98D4B1B6823F009
:1035F00007028B493B6813430B60894B1B6803F040
:1036000007033A689A4201D001234AE17B681B68AC
:1036100003F00203002B08D0824B5B6823F0F0021A
:103620007B689B687F4913434B607B681B6803F092
:103630000103002B00F0DC807B685B68012B3CD130
:103640004FF400333B673B6F93FAA3F3FB66FB6ECB
:10365000B3FA83F3DBB25B09DBB243F00103DBB205
:10366000012B02D16F4B1B680FE04FF40033BB6698
:10367000BB6E93FAA3F37B664FF400333B663B6E5D
:1036800093FAA3F3FB65674B5B6A4FF40032BA65AC
:10369000BA6D92FAA2F27A657A6DB2FA82F2D2B279
:1036A00042F02002D2B202F01F02012101FA02F21E
:1036B0001340002B7BD10123F3E07B685B68022B76
:1036C0003CD14FF000733B653B6D93FAA3F3FB6471
:1036D000FB6CB3FA83F3DBB25B09DBB243F00103AB
:1036E000DBB2012B02D14F4B1B680FE04FF0007390
:1036F000BB64BB6C93FAA3F37B644FF000733B6431
:103700003B6C93FAA3F3FB63464B5B6A4FF000728A
:10371000BA63BA6B92FAA2F27A637A6BB2FA82F265
:10372000D2B242F02002D2B202F01F02012101FA0D
:1037300002F21340002B3AD10123B2E002233B6393
:103740003B6B93FAA3F3FB62FB6AB3FA83F3DBB23E
:103750005B09DBB243F00103DBB2012B02D1314B39
:103760001B680DE00223BB62BB6A93FAA3F37B6282
:1037700002233B623B6A93FAA3F3FB61294B5B6A2A
:103780000222BA61BA6992FAA2F27A617A69B2FA4D
:1037900082F2D2B242F02002D2B202F01F02012124
:1037A00001FA02F21340002B01D1012379E01D4BF5
:1037B0005B6823F003027B685B681A4913434B6024
:1037C000FDF746FF78670AE0FDF742FF02467B6F90
:1037D000D31A41F28832934201D9032361E0114B9D
:1037E0005B6803F00C027B685B689B009A42EBD13C
:1037F0000B4B1B6803F007033A689A4214D2084B3C
:103800001B6823F0070206493B6813430B60044B17
:103810001B6803F007033A689A4205D0012340E091
:1038200000200240001002407B681B6803F0040384
:10383000002B08D01D4B5B6823F4E0627B68DB68DB
:103840001A4913434B607B681B6803F00803002B85
:1038500009D0164B5B6823F460527B681B69DB0060
:10386000124913434B6000F029F801460F4B5B6887
:1038700003F0F003F0223A613A6992FAA2F2FA6098
:10388000FA68B2FA82F2D2B2D340094AD35C21FA82
:1038900003F3084A1360084B1B681846FDF7F0FD58
:1038A000002318467837BD4680BD00BF0010024097
:1038B000787A0008000000200400002080B48BB05B
:1038C00000AF0023FB610023BB6100237B62002368
:1038D0007B6100233B62294B5B68FB61FB6903F062
:1038E0000C03042B02D0082B03D03CE0244B3B629A
:1038F0003CE0FB6903F470134FF47012BA60BA68CD
:1039000092FAA2F27A607A68B2FA82F2D2B2D34024
:103910001C4AD35C7B61194BDB6A03F00F030F2257
:103920003A613A6992FAA2F2FA60FA68B2FA82F25D
:10393000D2B2D340144AD35CBB61FB6903F4803339
:10394000002B08D00E4ABB69B2FBF3F27B6902FB85
:1039500003F37B6204E07B690C4A02FB03F37B62A6
:103960007B6A3B6202E0064B3B6200BF3B6A184643
:103970002C37BD465DF8047B704700BF0010024045
:1039800000127A00907A0008A07A000800093D0031
:1039900080B400AF034B1B681846BD465DF8047B3E
:1039A000704700BF0000002080B582B000AFFFF775
:1039B000EFFF01460B4B5B6803F4E0634FF4E062FA
:1039C0007A607A6892FAA2F23A603A68B2FA82F2BF
:1039D000D2B2D340044AD35C21FA03F31846083725
:1039E000BD4680BD00100240887A000880B483B0D4
:1039F00000AF786039607B680F221A60124B5B68F9
:103A000003F003027B685A600F4B5B6803F0F0021F
:103A10007B689A600C4B5B6803F4E0627B68DA6059
:103A2000094B5B68DB0803F4E0627B681A61074BB3
:103A30001B6803F007023B681A6000BF0C37BD46E5
:103A40005DF8047B704700BF001002400020024078
:103A500080B592B000AF786000233B640023FB6325
:103A6000002387F847307B681B6803F48033002B02
:103A700000F0D4804E4BDB6903F08053002B0ED155
:103A80004B4BDB694A4A43F08053D361484BDB69B7
:103A900003F08053BB60BB68012387F84730454B78
:103AA0001B6803F48073002B18D1424B1B68414AFA
:103AB00043F480731360FDF7CBFD386408E0FDF735
:103AC000C7FD02463B6CD31A642B01D9032369E17D
:103AD000384B1B6803F48073002BF0D0344B1B6A07
:103AE00003F44073FB63FB6B002B00F084807B6866
:103AF0005B6803F44073FA6B9A427CD02C4B1B6AD0
:103B000023F44073FB634FF480333B633B6B93FAC6
:103B1000A3F3FB62FB6AB3FA83F3DBB21A46264BCC
:103B200013449B001A46012313604FF48033BB6398
:103B3000BB6B93FAA3F37B637B6BB3FA83F3DBB2C8
:103B40001A461D4B13449B001A4600231360184A63
:103B5000FB6B1362FB6B03F00103002B4BD0FDF7F3
:103B600077FD38640AE0FDF773FD02463B6CD31A1B
:103B700041F28832934201D9032313E10223BB624D
:103B8000BB6A93FAA3F37B6202233B623B6A93FA1C
:103B9000A3F3FB61FB69B3FA83F3DBB25B09DBB22E
:103BA00043F00203DBB2022B08D1014B1B6A0DE08C
:103BB0000010024000700040008190100223BB61A1
:103BC000BB6993FAA3F37B61784B5B6A02223A618B
:103BD0003A6992FAA2F2FA60FA68B2FA82F2D2B2C2
:103BE00042F04002D2B202F01F02012101FA02F2B9
:103BF0001340002BB7D06D4B1B6A23F440727B68D7
:103C00005B686A4913430B6297F84730012B05D173
:103C1000664BDB69654A23F08053D3617B681B6880
:103C200003F00103002B08D0604B1B6B23F0030251
:103C30007B689B685D4913430B637B681B6803F0DB
:103C40000203002B08D0594B1B6B23F440327B68D6
:103C5000DB68564913430B637B681B6803F004035E
:103C6000002B08D0514B1B6B23F440227B681B694F
:103C70004E4913430B637B681B6803F02003002B42
:103C800008D04A4B1B6B23F010027B68DB69474965
:103C900013430B637B681B6803F40033002B08D0CD
:103CA000424B5B6823F480027B689B6B3F49134364
:103CB0004B607B681B6803F04003002B08D03B4B34
:103CC0001B6B23F020027B681B6A384913430B638C
:103CD0007B681B6803F00803002B08D0334B1B6B79
:103CE00023F440127B685B69304913430B637B68A4
:103CF0001B6803F01003002B08D02C4B1B6B23F424
:103D000040027B689B69294913430B637B681B68EE
:103D100003F40073002B08D0244B5B6823F40002EB
:103D20007B68DB6A214913434B607B681B6803F0A7
:103D30008003002B08D01D4BDB6A23F4F8727B68EC
:103D40005B6A1A491343CB627B681B6803F4807378
:103D5000002B08D0154BDB6A23F478527B689B6AF2
:103D600012491343CB627B681B6803F48053002B1A
:103D700008D00E4B1B6B23F480727B681B6B0B49C6
:103D800013430B637B681B6803F40053002B08D0BC
:103D9000064B1B6B23F400727B685B6B0349134378
:103DA0000B63002318464837BD4680BD0010024013
:103DB00080B582B000AF78607B68002B01D1012311
:103DC000AAE07B689B6C002B06D17B68002283F8FD
:103DD00044207868FDF708FB7B6802229A647B68C0
:103DE0001B681A687B681B6822F001021A607B68F6
:103DF0005A687B681B6822F070621A617B681B68D6
:103E00005A697B681B6822F400425A617B681B6810
:103E10005A697B681B6822F000425A617B681B6804
:103E20007A68126B5A617B681B689A687B681B68AA
:103E300022F400429A607B68DB68002B12D07B681A
:103E40001B69012B07D17B68DA687B681B6842F429
:103E500000429A6006E07B68DA687B681B6842F47F
:103E600004429A607B681B69022B04D17B681B6843
:103E70004FF400625A607B681B685B687A6812685E
:103E800043F0007343F4004353607B685A697B68D6
:103E90009B6942EA03017B68DB691A027B681B6845
:103EA0000A43DA607B681A6A7B685B6A1A437B683C
:103EB0009B6A1A437B68DB6A42EA03017B689A6863
:103EC0007B681B680A431A607B689B6AB3F5000F26
:103ED00010D17B68DB6A002B04D07B68DB6AB3F50A
:103EE000001F07D17B681B681A687B681B6842F457
:103EF00080321A607B681B681A687B681B6842F016
:103F000001021A607B680022DA647B6801221A646D
:103F10007B6801229A64002318460837BD4680BD9D
:103F200080B584B000AF78607B681B689B69FB60DC
:103F30007B681B681B68BB60BB6803F07203722B55
:103F400032D1FB685B0803F00103002B17D1FB683B
:103F5000DB0903F00103002B11D1FB689B0903F07F
:103F60000103002B0BD1FB685B0903F00103002B5D
:103F700005D1FB681B0903F00103002B14D07B68FB
:103F80009B6C03F03203322B04D1F968786800F09F
:103F900097FA09E07B689B6C03F01203122B03D1A4
:103FA000F968786800F0B4F8BB6803F07403742B08
:103FB00032D1FB689B0803F00103002B17D1FB688B
:103FC000DB0903F00103002B11D1FB689B0903F00F
:103FD0000103002B0BD1FB685B0903F00103002BED
:103FE00005D1FB681B0903F00103002B14D07B688B
:103FF0009B6C03F04203422B04D1F968786800F00F
:104000005FFA09E07B689B6C03F02203222B03D14B
:10401000F968786800F07CF8BB68DB0803F00103FE
:10402000002B0BD1BB685B0903F00103002B05D10A
:10403000BB681B0903F00103002B1BD0FB68DB08E6
:1040400003F00103002B0BD1FB685B0903F00103B4
:10405000002B05D1FB681B0903F00103002B09D0DD
:104060007B689B6C03F00803082B03D1F968786820
:1040700000F026FA00BF1037BD4680BD80B483B083
:1040800000AF786000BF0C37BD465DF8047B704719
:1040900080B483B000AF786000BF0C37BD465DF8D8
:1040A000047B704780B483B000AF786000BF0C37EA
:1040B000BD465DF8047B704780B483B000AF786084
:1040C00000BF0C37BD465DF8047B704780B483B0F9
:1040D00000AF78600B46FB7013463B8000BF0C3787
:1040E000BD465DF8047B704780B483B000AF786054
:1040F00000BF0C37BD465DF8047B704780B483B0C9
:1041000000AF786000BF0C37BD465DF8047B704798
:1041100080B586B002AF786039607B6893F8443030
:10412000012B01D10223C6E17B68012283F84420E0
:104130003B681B0903F00103002B11D07B681B684F
:104140001022DA617B68DB6C43F004027B68DA647E
:104150007B68002283F844207868FFF7CFFFA5E151
:104160003B685B0903F00103002B7AD0786800F00C
:1041700000FC7B689B6C122B2DD1F221786800F03B
:104180007BFB7B681B682022DA617B681B685968AF
:104190007B681A68914B0B4053607B681B681A68F8
:1041A0007B681B6822F001021A607B6801221A6496
:1041B0007B6801229A647B68002283F844207B6834
:1041C0001B681A687B681B6842F001021A607868F5
:1041D000FFF754FF6AE17B689B6C222B40F06681FD
:1041E0003B689B0803F00103002B1CD07B681B6815
:1041F0005A6A7B685B6BD2B21A707B685B6B5A1C25
:104200007B685A637B681B8F002B0CD07B681B8FED
:10421000013B9AB27B681A877B685B8F9BB2013B3C
:104220009AB27B685A87D421786800F025FB7B68B6
:104230001B682022DA617B681B6859687B681A68F2
:10424000664B0B4053607B6801221A647B68012235
:104250009A647B68002283F844207868FFF718FF8F
:1042600024E13B689B0803F00103002B19D07B6815
:104270001B685A6A7B685B6BD2B21A707B685B6B97
:104280005A1C7B685A637B681B8F013B9AB27B6820
:104290001A877B685B8F9BB2013B9AB27B685A8717
:1042A00004E13B685B0803F00103002B18D07B6836
:1042B0005B6B1A787B681B689A627B685B6B5A1C25
:1042C0007B685A637B681B8F013B9AB27B681A87B5
:1042D0007B685B8F9BB2013B9AB27B685A87E5E0B3
:1042E0003B68DB0903F00103002B00F090807B6842
:1042F0005B8F9BB2002B46D07B681B8F002B42D17B
:104300007B681B685B689BB2C3F30903FB817B6816
:104310005B8F9BB2FF2B10D97B68DB6B03F0806354
:1043200043F08073F98900220092FF22786800F040
:10433000D3FB7B68FF221A87B7E07B685B8F9AB25A
:104340007B681A877B681B8FDAB27B68DB6BF98925
:1043500000200090786800F0BFFB7B681B685B68FA
:1043600003F08063002B00F0A0807B681B8F013B73
:104370009AB27B681A877B685B8F9BB2013B9AB2CB
:104380007B685A8791E07B685B8F9BB2002B40F083
:104390008D807B681B8F002B40F088807B681B68BA
:1043A0005B6803F00073B3F1007F7FD07B689B6C88
:1043B000122B15D1F221786800F05EFA7B689A6CB6
:1043C0007B681A647B6801229A647B68002283F808
:1043D00044207868FFF752FE68E000BF00E800FE66
:1043E0007B689B6C222B61D1D421786800F044FA61
:1043F0007B689A6C7B681A647B6801229A647B688C
:10440000002283F844207868FFF742FE4EE03B68C4
:104410009B0903F00103002B48D07B685B8F9BB2A4
:10442000002B43D17B685B6B002B08D17B681B683A
:104430005A687B681B6842F480425A6036E07B68A9
:104440001B685B6803F00073B3F1007F2ED07B68BC
:104450009B6C122B12D1F221786800F00DFA7B6868
:104460009A6C7B681A647B6801229A647B680022DC
:1044700083F844207868FFF701FE17E07B689B6CA7
:10448000222B13D1D421786800F0F6F97B689A6C5E
:104490007B681A647B6801229A647B68002283F837
:1044A00044207868FFF7F4FD00E000BF7B6800223D
:1044B00083F84420002318461037BD4680BD00BF56
:1044C00080B586B002AF786039607B6893F844307D
:1044D000012B01D10223C8E17B68012283F844202B
:1044E0003B681B0903F00103002B33D07B685B8F13
:1044F0009BB2002B08D17B681B681022DA617B68B5
:10450000002283F844204AE17B681B681022DA61AC
:104510007B689A6C7B681A647B689B6C23F0320220
:104520007B689A647B689B6C23F042027B689A6488
:10453000F621786800F0A0F97B68DB6C43F0040298
:104540007B68DA647B68002283F844207868FFF790
:10455000D5FD24E13B68DB0803F00103002B22D0EA
:104560007B681B689B691B0CDBB203F00103FB73C8
:104570007B681B689B695B0C9BB203F07F03BB816C
:104580007B681B681A687B681B6822F008021A6047
:104590007B68002283F84420BA89FB7B194678683F
:1045A000FFF794FDFBE03B689B0803F00103002B41
:1045B00006D13B68DB0903F00103002B00F0B0805B
:1045C0007B689B6C03F04203422B5ED17B681B68C7
:1045D0005A6A7B685B6BD2B21A707B685B6B5A1C41
:1045E0007B685A637B681B8F013B9AB27B681A8792
:1045F0007B685B8F9BB2013B9AB27B685A877B6872
:104600005B8F9BB2012B0FD17B68DB6B23F0807239
:104610007B68DA637B68DB6B002200920122002159
:10462000786800F059FAB9E07B685B8F9BB2002B89
:1046300015D1D421786800F01FF97B689A6C7B68EB
:104640001A647B689B6C23F042027B689A647B68E7
:10465000002283F844207868FFF72EFD9EE07B68F7
:10466000DB6B03F0806343F0807300220092012231
:104670000021786800F030FA7B681B685A687B6814
:104680001B6822F400425A6088E07B689B6C03F050
:104690003203322B40F082807B685B8F9BB2002B11
:1046A0007CD07B681B8F002B78D17B685B8F9BB2A3
:1046B000FF2B10D97B68DB6B03F0806343F08073C2
:1046C00000220092FF220021786800F005FA7B6842
:1046D000FF221A8762E07B685B8F9AB27B681A8739
:1046E0007B681B8FDAB27B68DB6B002100910021B5
:1046F000786800F0F1F97B681B685B6803F0806301
:10470000002B4BD07B681B8F013B9AB27B681A87CA
:104710007B685B8F9BB2013B9AB27B685A873DE016
:104720003B685B0803F00103002B38D07B685B8F8C
:104730009BB2002B17D07B685B6B1A787B681B6879
:104740009A627B685B6B5A1C7B685A637B685B8FE1
:104750009BB2013B9AB27B685A877B681B8F013BF7
:104760009AB27B681A877B685B8F9BB2002B16D14D
:10477000F221786800F080F87B689A6C7B681A6494
:104780007B689B6C23F032027B689A647B68002212
:1047900083F844207868FFF785FC00E000BF3B68A1
:1047A0005B0903F00103002B5AD07B689B6C03F07C
:1047B0000803082B54D17B681B689B6903F0040332
:1047C000042B1CD17B681B685A6A7B685B6BD2B276
:1047D0001A707B685B6B5A1C7B685A637B681B8F03
:1047E000002B0CD07B681B8F013B9AB27B681A8729
:1047F0007B685B8F9BB2013B9AB27B685A87F6213C
:10480000786800F039F83821786800F035F87B686E
:104810001B685A687B681B6842F400425A607B68D8
:104820001B6859687B681A68124B0B4053607B68A1
:104830001B682022DA617B681B680822DA617B68CA
:104840000022DA637B689A6C7B681A647B680122B9
:104850009A647B68002283F844207868FFF744FC60
:104860007B68002283F84420002318461037BD4699
:1048700080BD00BF00E800FE80B485B000AF786066
:1048800039600023FB607B689B6CBB60BB68012BBD
:1048900008D13B6803F08003002B03D0FB6843F092
:1048A0008003FB603B6803F0F203F22B1CD1FB6832
:1048B00043F04203FB607B681B681B6803F48003C2
:1048C000002B08D1BB6803F00803002B03D1FB6861
:1048D00043F08003FB60BB6803F00803002B03D1A7
:1048E000FB6843F03003FB603B6803F0D403D42B38
:1048F0001CD1FB6843F04403FB607B681B681B68AA
:1049000003F48003002B08D1BB6803F00803002BDD
:1049100003D1FB6843F08003FB60BB6803F008032E
:10492000002B03D1FB6843F03003FB603B6803F0CE
:104930003803382B0ED1FB6843F03803FB607B68EB
:104940001B681B6803F48003002B03D1FB6843F052
:104950008003FB607B681B681968FB68DA437B682F
:104960001B680A401A6000BF1437BD465DF8047B1F
:10497000704780B586B000AF78607B681B689B6924
:104980007B617B681B681B683B617B6903F48073F8
:10499000002B0FD03B6903F08003002B0AD07B680B
:1049A000DB6C43F001027B68DA647B681B684FF4C0
:1049B0008072DA617B6903F48063002B0FD03B695E
:1049C00003F08003002B0AD07B68DB6C43F0080205
:1049D0007B68DA647B681B684FF48062DA617B690C
:1049E00003F40073002B0FD03B6903F08003002B0E
:1049F0000AD07B68DB6C43F002027B68DA647B6878
:104A00001B684FF40072DA617B6903F48053002B5A
:104A10000FD03B6903F08003002B0AD07B68DB6C6E
:104A200043F020027B68DA647B681B684FF4805295
:104A3000DA617B6903F40053002B0FD03B6903F06C
:104A40008003002B0AD07B68DB6C43F040027B685C
:104A5000DA647B681B684FF40052DA617B6903F407
:104A60000063002B0FD03B6903F08003002B0AD0BA
:104A70007B68DB6C43F080027B68DA647B681B68D0
:104A80004FF40062DA617B68DB6CFB60FB68002B33
:104A90001DD0FB68042B1AD0FB6803F04003002BE9
:104AA00012D17B689B6CBB60BB6803F03203322B76
:104AB00004D0BB6803F04203422B05D17B6801227E
:104AC0001A647B6808229A647868FFF717FB00BFB6
:104AD0001837BD4680BD000080B485B000AFF860D7
:104AE0007B600B467B8113467B72FB681B685A68B0
:104AF000BB695B0D03F480610D4B0B43DB4302EAA2
:104B000003017B89C3F309027B7A1B0403F47F034F
:104B10001A437B681A43BB691A43FB681B680A4344
:104B20005A6000BF1437BD465DF8047B704700BF74
:104B3000FF63FF0780B582B000AF78607B68002B11
:104B400001D1012349E07B6893F83D30DBB2002BB3
:104B500006D17B68002283F83C20786800F041F899
:104B60007B68022283F83D207B681A687B680433E7
:104B70001946104600F0F2F97B68012283F84820BC
:104B80007B68012283F83E207B68012283F83F2066
:104B90007B68012283F840207B68012283F8412052
:104BA0007B68012283F842207B68012283F843203E
:104BB0007B68012283F844207B68012283F845202A
:104BC0007B68012283F846207B68012283F8472016
:104BD0007B68012283F83D20002318460837BD4634
:104BE00080BD80B483B000AF786000BF0C37BD4695
:104BF0005DF8047B7047000080B485B000AF78603A
:104C00007B6893F83D30DBB2012B01D001234AE0F1
:104C10007B68022283F83D207B681B68DA687B682A
:104C20001B6842F00102DA607B681B68214A9342EC
:104C300018D07B681B68B3F1804F13D07B681B686A
:104C40001D4A93420ED07B681B681C4A934209D0D0
:104C50007B681B681A4A934204D07B681B68194A18
:104C6000934215D17B681B689A68174B1340FB6011
:104C7000FB68062B15D0FB68B3F5803F11D07B682D
:104C80001B681A687B681B6842F001021A6008E022
:104C90007B681B681A687B681B6842F001021A6017
:104CA00000E000BF002318461437BD465DF8047BC2
:104CB000704700BF002C0140000400400008004085
:104CC00000340140004001400700010080B582B07F
:104CD00000AF78607B681B681B6903F00203022B3E
:104CE00022D17B681B68DB6803F00203022B1BD117
:104CF0007B681B686FF002021A617B6801221A77D9
:104D00007B681B689B6903F00303002B03D0786862
:104D100000F005F905E0786800F0F7F8786800F031
:104D200008F97B6800221A777B681B681B6903F00F
:104D30000403042B22D17B681B68DB6803F00403A7
:104D4000042B1BD17B681B686FF004021A617B681F
:104D500002221A777B681B689B6903F44073002B5F
:104D600003D0786800F0DBF805E0786800F0CDF853
:104D7000786800F0DEF87B6800221A777B681B6891
:104D80001B6903F00803082B22D17B681B68DB68D2
:104D900003F00803082B1BD17B681B686FF0080227
:104DA0001A617B6804221A777B681B68DB6903F051
:104DB0000303002B03D0786800F0B1F805E07868B1
:104DC00000F0A3F8786800F0B4F87B6800221A7746
:104DD0007B681B681B6903F01003102B22D17B68D2
:104DE0001B68DB6803F01003102B1BD17B681B686A
:104DF0006FF010021A617B6808221A777B681B68C3
:104E0000DB6903F44073002B03D0786800F087F867
:104E100005E0786800F079F8786800F08AF87B6837
:104E200000221A777B681B681B6903F00103012BC2
:104E30000ED17B681B68DB6803F00103012B07D1EF
:104E40007B681B686FF001021A617868FCF71CFA36
:104E50007B681B681B6903F08003802B0ED17B6885
:104E60001B68DB6803F08003802B07D17B681B681D
:104E70006FF080021A61786800F00AF97B681B689D
:104E80001B6903F48073B3F5807F0ED17B681B68C8
:104E9000DB6803F08003802B07D17B681B686FF40D
:104EA00080721A61786800F0FDF87B681B681B69E6
:104EB00003F04003402B0ED17B681B68DB6803F0D6
:104EC0004003402B07D17B681B686FF040021A61DA
:104ED000786800F038F87B681B681B6903F02003D2
:104EE000202B0ED17B681B68DB6803F02003202B8E
:104EF00007D17B681B686FF020021A61786800F0A8
:104F0000BDF800BF0837BD4680BD80B483B000AF98
:104F1000786000BF0C37BD465DF8047B704780B4F5
:104F200083B000AF786000BF0C37BD465DF8047BEE
:104F3000704780B483B000AF786000BF0C37BD46C7
:104F40005DF8047B704780B483B000AF786000BF29
:104F50000C37BD465DF8047B7047000080B485B017
:104F600000AF786039607B681B68FB607B683C4AF7
:104F700093420FD07B68B3F1804F0BD07B68394AE6
:104F8000934207D07B68384A934203D07B68374A04
:104F9000934208D1FB6823F07003FB603B685B68B9
:104FA000FA681343FB607B682D4A93421BD07B68F1
:104FB000B3F1804F17D07B682A4A934213D07B68A5
:104FC000294A93420FD07B68284A93420BD07B68D2
:104FD000274A934207D07B68264A934203D07B68D6
:104FE000254A934208D1FB6823F44073FB603B6879
:104FF000DB68FA681343FB60FB6823F080023B68C0
:105000005B691343FB607B68FA681A603B689A68C7
:105010007B68DA623B681A687B689A627B68104A30
:1050200093420FD07B68114A93420BD07B68104AA1
:10503000934207D07B680F4A934203D07B680E4AA5
:10504000934203D13B681A697B681A637B6801222B
:105050005A6100BF1437BD465DF8047B704700BF3E
:10506000002C0140000400400008004000340140D2
:1050700000400140004401400048014080B483B03A
:1050800000AF786000BF0C37BD465DF8047B704709
:1050900080B483B000AF786000BF0C37BD465DF8C8
:1050A000047B704780B483B000AF786000BF0C37DA
:1050B000BD465DF8047B704780B485B000AF034601
:1050C000FB800023FB60B7F90630842B05D0B7F9CD
:1050D0000620FB6813440333FB60FB681846143753
:1050E000BD465DF8047B704780B483B000AFEFF33A
:1050F00005837B607B68002B14BF01230023DBB298
:1051000018460C37BD465DF8047B704780B500AF8C
:1051100001F03CF90023184680BDF0B589B004AF1A
:10512000786039607B685B69002B20D07B689B6965
:10513000002B1CD07B685C687B681D687B681E69DF
:105140007B68B3F908301846FFF7B6FF01467B6865
:105150005B697A6892690292019300913B683246DA
:105160002946204600F054FF0346FB601CE07B68A4
:105170005C687B681D687B681B699EB27B68B3F9BD
:1051800008301846FFF798FF024607F10C03019319
:1051900000923B6832462946204600F095FF0346C0
:1051A000012B01D0002300E0FB6818461437BD46F0
:1051B000F0BD80B584B000AF78607B68FB60FB68B1
:1051C000002B01D0FB6800E00123184601F0AAF88B
:1051D000002318461037BD4680BD80B582B000AFB1
:1051E00078607B685B68002B07D07B685B6819463A
:1051F000012000F0B1FA034603E0012000F094FA28
:10520000034618460837BD4680BD000080B584B00F
:1052100000AF786039600023BB607B68002B01D150
:1052200080233AE00023FB603B68B3F1FF3F03D1EA
:105230004FF0FF33FB6009E03B68002B06D03B6872
:10524000FB60FB68002B01D10123FB60FFF74CFFE3
:105250000346002B17D007F108031A46002178688F
:1052600000F02EFD0346012B01D0FF2315E0BB68A3
:10527000002B11D00B4B4FF080521A60BFF34F8FB1
:10528000BFF36F8F08E0F968786800F00DFC034603
:10529000012B01D0FF2300E0002318461037BD4644
:1052A00080BD00BF04ED00E080B584B000AF786041
:1052B0000023FB600023BB60FFF716FF0346002BB3
:1052C00016D007F108031946786800F05FFB034623
:1052D000012B01D0FF2317E0BB68002B13D00C4B30
:1052E0004FF080521A60BFF34F8FBFF36F8F0AE009
:1052F000002300220021786800F04AFA0346012BBF
:1053000001D0FF23FB60FB6818461037BD4680BD07
:1053100004ED00E080B483B000AF78607B6803F1F7
:1053200008027B685A607B684FF0FF329A607B68A6
:1053300003F108027B68DA607B6803F108027B688E
:105340001A617B6800221A6000BF0C37BD465DF809
:10535000047B704780B483B000AF78607B68002224
:105360001A6100BF0C37BD465DF8047B704780B4FE
:1053700085B000AF786039607B685B68FB603B6834
:10538000FA685A60FB689A683B689A60FB689B6899
:105390003A685A60FB683A689A603B687A681A61B2
:1053A0007B681B685A1C7B681A6000BF1437BD46B7
:1053B0005DF8047B704780B485B000AF78603960D9
:1053C0003B681B68BB60BB68B3F1FF3F03D17B68E0
:1053D0001B69FB600CE07B680833FB6002E0FB6844
:1053E0005B68FB60FB685B681B68BA689A42F6D230
:1053F000FB685A683B685A603B685B683A689A6029
:105400003B68FA689A60FB683A685A603B687A6859
:105410001A617B681B685A1C7B681A6000BF1437CE
:10542000BD465DF8047B704780B485B000AF7860FE
:105430007B681B69FB607B685B687A6892689A602E
:105440007B689B687A6852685A60FB685B687A6818
:105450009A4203D17B689A68FB685A607B68002295
:105460001A61FB681B685A1EFB681A60FB681B68A0
:1054700018461437BD465DF8047B704780B584B08C
:1054800000AF786039607B68FB60FB68002B0AD155
:105490004FF0500383F31188BFF36F8FBFF34F8F2B
:1054A000BB6000BFFEE701F0EDFEFB681A68FB6819
:1054B000DB6BF968096C01FB03F31A44FB685A6063
:1054C000FB6800229A63FB681A68FB689A60FB68B5
:1054D0001A68FB68DB6B013BF968096C01FB03F39D
:1054E0001A44FB68DA60FB68FF2283F84420FB68FB
:1054F000FF2283F845203B68002B14D1FB681B6911
:10550000002B1AD0FB681033184601F087F90346C8
:10551000002B12D00C4B4FF080521A60BFF34F8F0C
:10552000BFF36F8F09E0FB6810331846FFF7F2FEF8
:10553000FB6824331846FFF7EDFE01F0D3FE01238C
:1055400018461037BD4680BD04ED00E080B58EB032
:1055500002AFF860B9607A603B60FB68002B0AD14B
:105560004FF0500383F31188BFF36F8FBFF34F8F5A
:10557000BB6200BFFEE73B68002B0AD14FF050032F
:1055800083F31188BFF36F8FBFF34F8F7B6200BF30
:10559000FEE77B68002B02D0BB68002B01D0012303
:1055A00000E00023002B0AD14FF0500383F3118851
:1055B000BFF36F8FBFF34F8F3B6200BFFEE77B6887
:1055C000002B02D1BB68002B01D1012300E0002396
:1055D000002B0AD14FF0500383F31188BFF36F8F74
:1055E000BFF34F8FFB6100BFFEE748237B617B6900
:1055F000482B0AD04FF0500383F31188BFF36F8F0D
:10560000BFF34F8FBB6100BFFEE73B68FB62FB6AE5
:10561000002B0DD0FB6A012283F8462097F8382032
:10562000FB6A009313467A68B968F86800F043F89B
:10563000FB6A18463037BD4680BD80B58AB002AFE0
:10564000F860B9601346FB71FB68002B0AD14FF07C
:10565000500383F31188BFF36F8FBFF34F8F3B610C
:1056600000BFFEE7BB68002B02D10023FB6104E012
:10567000FB68BA6802FB03F3FB61FB694833184619
:1056800001F022FFB861BB69002B0FD0BB69483322
:105690007B61BB69002283F84620FA79BB690093DD
:1056A00013467A69B968F86800F005F8BB691846CE
:1056B0002037BD4680BD80B584B000AFF860B960CA
:1056C0007A60FB70BB68002B03D1BB69BA691A60B2
:1056D00002E0BB697A681A60BB69FA68DA63BB6981
:1056E000BA681A640121B869FFF7C8FE00BF103715
:1056F000BD4680BD80B582B000AF78607B68002B6E
:105700000ED07B6800225A607B6800221A607B689A
:105710000022DA60002300220021786800F038F8C7
:1057200000BF0837BD4680BD80B586B000AF0346D8
:10573000FB7101237B6100233B61FB791A463969C8
:105740007869FFF77AFFF860F868FFF7D3FFFB6826
:1057500018461837BD4680BD80B588B002AF0346F5
:105760003960FB7101237B6100233B61FB7900936E
:105770003B68002239697869FFF7E8FEF860F8684D
:10578000FFF7B8FFFB6818461837BD4680BD00001C
:1057900080B58EB000AFF860B9607A603B600023DE
:1057A0007B63FB683B633B6B002B0AD14FF05003DC
:1057B00083F31188BFF36F8FBFF34F8FBB6200BFBE
:1057C000FEE7BB68002B03D13B6B1B6C002B01D1A8
:1057D000012300E00023002B0AD14FF0500383F394
:1057E0001188BFF36F8FBFF34F8F7B6200BFFEE75F
:1057F0003B68022B03D13B6BDB6B012B01D10123F7
:1058000000E00023002B0AD14FF0500383F31188EE
:10581000BFF36F8FBFF34F8F3B6200BFFEE701F016
:10582000BFF90346002B02D17B68002B01D1012375
:1058300000E00023002B0AD14FF0500383F31188BE
:10584000BFF36F8FBFF34F8FFB6100BFFEE701F027
:1058500019FD3B6B9A6B3B6BDB6B9A4202D33B6847
:10586000022B29D13A68B968386B00F0C1FAF862A6
:105870003B6B5B6A002B10D03B6B2433184600F067
:10588000CDFF0346002B13D03F4B4FF080521A60E0
:10589000BFF34F8FBFF36F8F0AE0FB6A002B07D077
:1058A000394B4FF080521A60BFF34F8FBFF36F8FA9
:1058B00001F018FD012363E07B68002B03D101F0A8
:1058C00011FD00235CE07B6B002B06D107F1140374
:1058D000184601F005F801237B6301F003FD00F099
:1058E000B5FD01F0CFFC3B6B93F844305BB2B3F1F4
:1058F000FF3F03D13B6B002283F844203B6B93F8BE
:1059000045305BB2B3F1FF3F03D13B6B002283F81C
:10591000452001F0E7FC3A1D07F114031146184633
:1059200000F0F4FF0346002B24D1386B00F058FB45
:105930000346002B18D03B6B10337A68114618468B
:1059400000F048FF386B00F0E3FA00F08DFD0346ED
:10595000002B7FF47CAF0C4B4FF080521A60BFF3EA
:105960004F8FBFF36F8F72E7386B00F0D1FA00F002
:105970007BFD6CE7386B00F0CBFA00F075FD00237F
:1059800018463837BD4680BD04ED00E080B58EB0C6
:1059900000AF786039607B683B633B6B002B0AD1BA
:1059A0004FF0500383F31188BFF36F8FBFF34F8F16
:1059B0003B6200BFFEE73B6B1B6C002B0AD04FF035
:1059C000500383F31188BFF36F8FBFF34F8FFB61D9
:1059D00000BFFEE73B6B1B68002B03D13B6B5B6892
:1059E000002B01D1012300E00023002B0AD14FF04E
:1059F000500383F31188BFF36F8FBFF34F8FBB61E9
:105A000000BFFEE701F020FDEFF311824FF05003DD
:105A100083F31188BFF36F8FBFF34F8F7A613B61C0
:105A20007B69FB623B6B9B6BBB623B6BDB6BBA6A5C
:105A30009A422BD23B6B93F8453087F82730BB6AEC
:105A40005A1C3B6B9A6397F92730B3F1FF3F12D191
:105A50003B6B5B6A002B16D03B6B2433184600F07F
:105A6000DDFE0346002B0ED03B68002B0BD03B68BD
:105A700001221A6007E097F827300133DBB25AB2EF
:105A80003B6B83F8452001237B6301E000237B63AC
:105A9000FB6AFB60FB6883F3118800BF7B6B1846D1
:105AA0003837BD4680BD000080B58EB000AF78604D
:105AB000396000237B637B68FB6200233B63FB6AE6
:105AC000002B0AD14FF0500383F31188BFF36F8F7F
:105AD000BFF34F8F3B6200BFFEE7FB6A1B6C002BDE
