:020000040800F2
:1000000000A00020AD090008350900083B090008E0
:1000100041090008470900084D09000800000000D8
:10002000000000000000000000000000D13A0008BD
:100030005309000800000000213D0008893D000828
:10004000FD090008FD090008FD090008FD09000878
:10005000FD090008FD090008FD090008FD09000868
:10006000FD090008FD090008FD090008FD09000858
:10007000FD090008FD090008FD090008FD09000848
:10008000FD090008FD090008FD090008FD09000838
:10009000FD090008FD090008FD090008FD09000828
:1000A000FD090008FD090008FD090008FD09000818
:1000B000FD090008FD090008FD09000861090008A4
:1000C000FD090008FD090008FD090008FD090008F8
:1000D000FD090008FD090008FD090008FD090008E8
:1000E000FD090008FD090008FD090008FD090008D8
:1000F000FD090008FD090008FD090008FD090008C8
:10010000000000000000000000000000FD090008E1
:10011000FD090008FD09000875090008FD0900082F
:10012000FD090008FD090008FD090008FD09000897
:10013000FD090008FD0900080000000000000000A3
:10014000FD090008FD090008FD0900080000000085
:10015000000000000000000000000000000000009F
:100160000000000000000000FD090008FD09000873
:10017000FD09000800000000000000000000000071
:0801800000000000FD09000869
:1001900010B5054C237833B9044B13B10448AFF3C1
:1001A00000800123237010BD10000020000000001B
:1001B0003442000808B5034B1BB103490348AFF3B1
:1001C000008008BD00000000140000203442000838
:1001D00080B485B000AFF860B9607A60FB68074A08
:1001E0001A60BB68064A1A607B6880221A6000BFEA
:1001F0001437BD465DF8047B704700BF2C0000201B
:1002000080000020B0B5A8B000AF00F0F9FB00F00E
:1002100091F800F02BF900F0E9F82823A7F89030C6
:10022000022387F8923007F19003033336491A46C8
:100230000B4603CB1060516019889B781181937233
:100240000F2387F89D30314B07F174041D460FCD05
:100250000FC495E8070084E8070007F17403002144
:10026000184602F096FD0346294A1360294B07F110
:1002700058041D460FCD0FC495E8070084E8070019
:1002800007F158030021184602F083FD0346224A75
:100290001360224B07F13C041D460FCD0FC495E8B7
:1002A000070084E8070007F13C030021184602F02C
:1002B00070FD03461A4A13601A4B07F120041D46CD
:1002C0000FCD0FC495E8070084E8070007F120036D
:1002D0000021184602F05DFD0346134A1360134BDC
:1002E0003C1D1D460FCD0FC495E8070084E80700AC
:1002F0003B1D0021184602F04CFD03460C4A1360DA
:1003000002F040FDFEE700BF78420008844200088A
:1003100088100020A0420008CC0F0020BC4200083A
:100320008C100020D842000850100020F442000831
:100330009010002080B59EB000AF07F15003282236
:100340000021184603F06EFF07F13C0300221A60FB
:100350005A609A60DA601A613B463C2200211846D6
:1003600003F060FF03233B654FF4A0237B6500236C
:10037000BB6501233B6610237B660223FB664FF4BB
:1003800080333B674FF480137B6707F150031846B7
:1003900000F020FF0346002B01D000F0F9F90F23F5
:1003A000FB6302233B6400237B644FF48063BB64E4
:1003B0000023FB6407F13C030121184601F012FE03
:1003C0000346002B01D000F0E3F920233B6000231B
:1003D000FB613B46184602F04BF80346002B01D068
:1003E00000F0D6F900BF7837BD4680BD80B500AFBC
:1003F0001B4B1C4A1A601A4B1B4A5A60184B0A22A4
:100400009A60174B0122DA60154B00221A61144BD7
:1004100000225A61124B00229A61114B0022DA61CC
:100420000F4B00221A620E4800F094FD0346002B89
:1004300001D000F0ADF90021094800F034FE034678
:10044000002B01D000F0A4F90021054800F076FE51
:100450000346002B01D000F09BF900BF80BD00BF18
:1004600004100020005400400E09002080B58AB01E
:1004700000AF07F1140300221A605A609A60DA6034
:100480001A61494B5B69484A43F400135361464B78
:100490005B6903F400133B613B69434B5B69424A70
:1004A00043F400235361404B5B6903F40023FB607A
:1004B000FB683D4B5B693C4A43F4800353613A4B14
:1004C0005B6903F48003BB60BB68374B5B69364AEA
:1004D00043F400335361344B5B6903F400337B60B6
:1004E0007B68314B5B69304A43F4802353612E4B68
:1004F0005B6903F480233B603B6800224FF6087180
:100500002A4800F00FFD37237B614FF49013BB6145
:100510000023FB6107F114031946244800F088FB0F
:100520004FF608737B610123BB610023FB6100234D
:100530003B6207F1140319461C4800F079FB0123C4
:100540007B610023BB610023FB6107F114031946A3
:100550004FF0904000F06CFBE0237B610223BB6115
:100560000023FB6103233B6205237B6207F1140335
:1005700019464FF0904000F05BFB4FF4C0537B6195
:100580000223BB610023FB6103233B620E237B62DA
:1005900007F1140319464FF0904000F049FB00BFEB
:1005A0002837BD4680BD00BF001002400010004843
:1005B00090B583B000AF78600F4B104A07CA83E84C
:1005C00007000F4A0F4B144607CB20606160A26002
:1005D0000D4B0E4A1068186012791A71064B0122F1
:1005E000DA85054B0A4A1A63034BB3F92E301846D5
:1005F00002F01BFCF5E700BFC81000201043000804
:10060000D31000201C430008E110002028430008FC
:1006100000007041B0B582B000AF7860134B144A4F
:1006200007CA03C31A70134A134B15461C460FCC56
:1006300028606960AA60EB6007CC28616961AA61E3
:100640002388AB830D4B0E4A1068186012791A711B
:10065000064B0122DA85054B0A4A1A63034BB3F9AC
:100660002E30184602F0E1FBF5E700BF94100020A1
:10067000304300089F1000203C430008AD100020CC
:10068000284300080000704180B582B000AF786058
:100690000F4B104A07CA83E807000F4A0F4B03CBE2
:1006A000106051601B8813810D4B0E4A1068186052
:1006B00012791A71064B0122DA85054B0A4A1A6330
:1006C000034BB3F92E30184602F0AFFBF5E700BF3D
:1006D00054100020104300085F1000205C43000805
:1006E0006D1000202843000800007041B0B582B0B2
:1006F00000AF7860124A134B14461D460FCD0FC44D
:100700002B682380104A114B15461C460FCC2860DD
:100710006960AA60EB6023882B820D4B0D4A10683C
:10072000186012791A71064B0122DA85044B0A4AC5
:100730001A63034BB3F92E30184602F076FBF5E747
:10074000D00F002068430008DB0F00207C43000826
:10075000E90F0020284300080000704180B582B0F6
:1007600000AF7860012002F060FBFBE780B582B04B
:1007700000AF78607B681B68044A934201D100F0A7
:1007800055F900BF0837BD4680BD00BF00100040CE
:1007900080B400AF72B600BFFEE7000080B582B043
:1007A00000AF114B9B69104A43F0010393610E4B5C
:1007B0009B6903F001037B607B680B4BDB690A4A92
:1007C00043F08053D361084BDB6903F080533B60F7
:1007D0003B6800220F216FF0010000F0FFF900BF1D
:1007E0000837BD4680BD00BF0010024080B58AB00A
:1007F00000AF786007F1140300221A605A609A6013
:10080000DA601A617B681B681B4A93422FD11B4B2D
:100810005B691A4A43F480235361184B5B6903F404
:1008200080233B613B69C0237B611223BB610123B1
:10083000FB6103233B6204237B6207F11403194627
:100840000F4800F0F5F90D4BDB690C4A43F4001337
:10085000D3610A4BDB6903F40013FB60FB680022E1
:1008600005211F2000F0BAF91F2000F0D3F900BFC6
:100870002837BD4680BD00BF005400400010024034
:100880000004004880B58CB000AF78600023FB62A4
:100890000023BB6200227968362000F09FF93620E1
:1008A00000F0B8F91F4BDB691E4A43F01003D36117
:1008B0001C4BDB6903F01003FB60FB6807F11002BF
:1008C00007F114031146184601F0A0FD01F07CFD6C
:1008D00003465B00FB62FB6A134AA2FB03239B0CEB
:1008E000013BBB62114B124A1A60104B40F2E732D7
:1008F000DA600E4ABB6A53600C4B00221A610B4B44
:1009000000229A60094801F063FF0346002B04D1DE
:10091000064801F0BFFF034600E0012318463037C8
:10092000BD4680BD0010024083DE1B43FC1000204A
:100930000010004080B400AFFEE780B400AFFEE7D7
:1009400080B400AFFEE780B400AFFEE780B400AF34
:10095000FEE780B400AF00BFBD465DF8047B704782
:1009600080B500AF024800F084FB00BF80BD00BF2F
:100970000410002080B500AF024801F0F5FF00BF71
:1009800080BD00BFFC10002080B400AF064BD3F840
:100990008830054A43F47003C2F8883000BFBD4672
:1009A0005DF8047B704700BF00ED00E0DFF834D055
:1009B0000D480E490E4A002302E0D458C4500433B7
:1009C000C4188C42F9D30B4A0B4C002301E013608E
:1009D0000432A242FBD3FFF7D7FF03F0FFFBFFF780
:1009E00011FCFEE700A00020000000201000002005
:1009F000D8430008100000204C110020FEE7000042
:100A000080B500AF084B1B68074A43F01003136022
:100A1000032000F0D8F80F20FFF734FFFFF7BEFEE9
:100A20000023184680BD00BF0020024080B400AF04
:100A3000064B1B781A46064B1B681344044A136086
:100A400000BFBD465DF8047B704700BF0800002072
:100A50004811002080B400AF034B1B681846BD4608
:100A60005DF8047B704700BF4811002080B485B05A
:100A700000AF78607B6803F00703FB600C4BDB681A
:100A8000BB60BA684FF6FF031340BB60FB681A02F5
:100A9000BB68134343F0BF6343F40033BB60044AB5
:100AA000BB68D36000BF1437BD465DF8047B704758
:100AB00000ED00E080B400AF044BDB681B0A03F0DC
:100AC00007031846BD465DF8047B704700ED00E063
:100AD00080B483B000AF0346FB7197F90730002B59
:100AE0000BDBFB7903F01F02074997F907305B091D
:100AF000012000FA02F241F8232000BF0C37BD4666
:100B00005DF8047B704700BF00E100E080B483B073
:100B100000AF03463960FB7197F90730002B0ADB01
:100B20003B68DAB20C4997F907301201D2B20B4494
:100B300083F800230AE03B68DAB20849FB7903F046
:100B40000F03043B1201D2B20B441A7600BF0C37DC
:100B5000BD465DF8047B704700E100E000ED00E079
:100B600080B489B000AFF860B9607A60FB6803F0C8
:100B70000703FB61FB69C3F10703042B28BF0423B0
:100B8000BB61FB690433062B02D9FB69033B00E020
:100B900000237B614FF0FF32BB6902FA03F3DA43B3
:100BA000BB681A407B699A404FF0FF317B6901FABC
:100BB00003F3D9437B680B40134318462437BD46E3
:100BC0005DF8047B704780B582B000AF78607868CC
:100BD000FFF74CFF00BF0837BD4680BD80B586B02B
:100BE00000AF0346B9607A60FB7300237B61FFF7B7
:100BF00061FF78617A68B9687869FFF7B1FF0246EA
:100C000097F90F3011461846FFF780FF00BF1837DD
:100C1000BD4680BD80B582B000AF0346FB7197F939
:100C200007301846FFF754FF00BF0837BD4680BDA8
:100C300080B487B000AF7860396000237B6154E1F5
:100C40003B681A6801217B6901FA03F31340FB60DA
:100C5000FB68002B00F046813B685B6803F00303F0
:100C6000012B05D03B685B6803F00303022B30D1F6
:100C70007B689B683B617B695B00032202FA03F39C
:100C8000DB433A6913403B613B68DA687B695B0090
:100C900002FA03F33A6913433B617B683A699A604D
:100CA0007B685B683B6101227B6902FA03F3DB43EB
:100CB0003A6913403B613B685B681B0903F0010222
:100CC0007B6902FA03F33A6913433B617B683A6933
:100CD0005A603B685B6803F00303032B17D07B6803
:100CE000DB683B617B695B00032202FA03F3DB43B1
:100CF0003A6913403B613B689A687B695B0002FA82
:100D000003F33A6913433B617B683A69DA603B68F5
:100D10005B6803F00303022B23D17B69DA087B684D
:100D2000083253F822303B617B6903F007039B00D4
:100D30000F2202FA03F3DB433A6913403B613B683D
:100D40001A697B6903F007039B0002FA03F33A690F
:100D500013433B617B69DA087B680832396943F8E1
:100D600022107B681B683B617B695B00032202FAEF
:100D700003F3DB433A6913403B613B685B6803F074
:100D800003027B695B0002FA03F33A6913433B6198
:100D90007B683A691A603B685B6803F44033002B58
:100DA00000F0A080584B9B69574A43F001039361C0
:100DB000554B9B6903F00103BB60BB68534A7B69D9
:100DC0009B08023352F823303B617B6903F0030335
:100DD0009B000F2202FA03F3DB433A6913403B61A5
:100DE0007B68B3F1904F19D07B68494A934213D086
:100DF0007B68484A93420DD07B68474A934207D0AC
:100E00007B68464A934201D1042308E0052306E0AB
:100E1000032304E0022302E0012300E000237A69B7
:100E200002F00302920093403A6913433B61374951
:100E30007B699B0802333A6941F82320384B1B68D1
:100E40003B61FB68DB433A6913403B613B685B688D
:100E500003F48033002B03D03A69FB6813433B61F2
:100E60002F4A3B6913602E4B5B683B61FB68DB4399
:100E70003A6913403B613B685B6803F40033002B25
:100E800003D03A69FB6813433B61254A3B695360D1
:100E9000234B9B683B61FB68DB433A6913403B6132
:100EA0003B685B6803F48013002B03D03A69FB684E
:100EB00013433B611A4A3B699360194BDB683B6102
:100EC000FB68DB433A6913403B613B685B6803F4B2
:100ED0000013002B03D03A69FB6813433B61104AAF
:100EE0003B69D3607B6901337B613B681A687B692E
:100EF00022FA03F3002B7FF4A3AE00BF00BF1C3720
:100F0000BD465DF8047B70470010024000000140C0
:100F10000004004800080048000C00480010004889
:100F20000004014080B483B000AF78600B467B8042
:100F300013467B707B78002B03D07A887B689A619C
:100F400002E07A887B689A6200BF0C37BD465DF884
:100F5000047B704780B582B000AF78607B68002B5F
:100F600001D1012381E07B6893F84130DBB2002B93
:100F700006D17B68002283F840207868FFF736FCB2
:100F80007B68242283F841207B681B681A687B6891
:100F90001B6822F001021A607B685A687B681B6834
:100FA00022F070621A617B681B689A687B681B6814
:100FB00022F400429A607B68DB68012B07D17B68D2
:100FC0009A687B681B6842F400429A6006E07B687E
:100FD0009A687B681B6842F404429A607B68DB680D
:100FE000022B04D17B681B684FF400625A607B6857
:100FF0001B685B687A68126843F0007343F400432F
:1010000053607B681B68DA687B681B6822F40042C7
:10101000DA607B681A697B685B6942EA03017B6876
:101020009B691A027B681B680A43DA607B68D9698E
:101030007B681A6A7B681B680A431A607B681B68B6
:101040001A687B681B6842F001021A607B68002204
:101050005A647B68202283F841207B6800221A634F
:101060007B68002283F84220002318460837BD46DB
:1010700080BD80B584B000AF78607B681B689B69D9
:10108000FB607B681B681B68BB607B685B6B002B2D
:1010900005D07B685B6BBA68F9687868984700BFD1
:1010A0001037BD4680BD80B483B000AF7860396032
:1010B0007B6893F84130DBB2202B38D17B6893F802
:1010C0004030012B01D1022332E07B68012283F8FA
:1010D00040207B68242283F841207B681B681A68C3
:1010E0007B681B6822F001021A607B681B681A6823
:1010F0007B681B6822F480521A607B681B68196841
:101100007B681B683A680A431A607B681B681A6828
:101110007B681B6842F001021A607B68202283F81A
:1011200041207B68002283F84020002300E0022356
:1011300018460C37BD465DF8047B704780B485B017
:1011400000AF786039607B6893F84130DBB2202BC8
:1011500039D17B6893F84030012B01D1022333E071
:101160007B68012283F840207B68242283F8412099
:101170007B681B681A687B681B6822F001021A6092
:101180007B681B681B68FB60FB6823F47063FB6073
:101190003B681B02FA681343FB607B681B68FA68B4
:1011A0001A607B681B681A687B681B6842F0010242
:1011B0001A607B68202283F841207B68002283F834
:1011C0004020002300E0022318461437BD465DF896
:1011D000047B704780B5ADF5007D00AF3B1D186006
:1011E0003B1D1B68002B02D1012300F0F4BE3B1D08
:1011F0001B681B6803F00103002B00F06A81B34BEE
:101200005B6803F00C03042B0CD0B04B5B6803F05D
:101210000C03082B59D1AD4B5B6803F48033B3F555
:10122000803F52D14FF40033C7F8F031D7F8F03196
:1012300093FAA3F3C7F8EC31D7F8EC31B3FA83F3A0
:10124000DBB25B09DBB243F00103DBB2012B02D15D
:101250009E4B1B6815E04FF40033C7F8E831D7F810
:10126000E83193FAA3F3C7F8E4314FF40033C7F839
:10127000E031D7F8E03193FAA3F3C7F8DC31934BB0
:101280005B6A4FF40032C7F8D821D7F8D82192FA18
:10129000A2F2C7F8D421D7F8D421B2FA82F2D2B29E
:1012A00042F02002D2B202F01F02012101FA02F242
:1012B0001340002B00F00C813B1D1B685B68002B6A
:1012C00040F00681012300F086BE3B1D1B685B6871
:1012D000B3F5803F06D17D4B1B687C4A43F48033D5
:1012E000136030E03B1D1B685B68002B0CD1774B13
:1012F0001B68764A23F480331360744B1B68734A6F
:1013000023F4802313601EE03B1D1B685B68B3F56C
:10131000A02F0CD16D4B1B686C4A43F480231360E3
:101320006A4B1B68694A43F4803313600BE0674BD8
:101330001B68664A23F480331360644B1B68634A5E
:1013400023F480231360614BDB6A23F00F023B1D03
:101350001B689B685D491343CB623B1D1B685B6840
:10136000002B59D0FFF776FBC7F8F8010AE0FFF72A
:1013700071FB0246D7F8F831D31A642B02D9032344
:1013800000F029BE4FF40033C7F8D031D7F8D03180
:1013900093FAA3F3C7F8CC31D7F8CC31B3FA83F37F
:1013A000DBB25B09DBB243F00103DBB2012B02D1FC
:1013B000464B1B6815E04FF40033C7F8C831D7F827
:1013C000C83193FAA3F3C7F8C4314FF40033C7F818
:1013D000C031D7F8C03193FAA3F3C7F8BC313B4B07
:1013E0005B6A4FF40032C7F8B821D7F8B82192FAF7
:1013F000A2F2C7F8B421D7F8B421B2FA82F2D2B27D
:1014000042F02002D2B202F01F02012101FA02F2E0
:101410001340002BABD05CE0FFF71CFBC7F8F801D2
:101420000AE0FFF717FB0246D7F8F831D31A642B0E
:1014300002D9032300F0CFBD4FF40033C7F8B03119
:10144000D7F8B03193FAA3F3C7F8AC31D7F8AC3181
:10145000B3FA83F3DBB25B09DBB243F00103DBB227
:10146000012B02D1194B1B6815E04FF40033C7F86C
:10147000A831D7F8A83193FAA3F3C7F8A4314FF4F1
:101480000033C7F8A031D7F8A03193FAA3F3C7F817
:101490009C310E4B5B6A4FF40032C7F89821D7F8A5
:1014A000982192FAA2F2C7F89421D7F89421B2FABF
:1014B00082F2D2B242F02002D2B202F01F02012127
:1014C00001FA02F21340002BABD102E000100240FF
:1014D00000BF3B1D1B681B6803F00203002B00F0DC
:1014E0006F81D04B5B6803F00C03002B0BD0CD4B0E
:1014F0005B6803F00C03082B6CD1CA4B5B6803F4E8
:101500008033002B66D10223C7F89031D7F8903191
:1015100093FAA3F3C7F88C31D7F88C31B3FA83F37D
:10152000DBB25B09DBB243F00103DBB2012B02D17A
:10153000BC4B1B6813E00223C7F88831D7F8883109
:1015400093FAA3F3C7F884310223C7F88031D7F8A0
:10155000803193FAA3F3C7F87C31B24B5B6A022265
:10156000C7F87821D7F8782192FAA2F2C7F8742147
:10157000D7F87421B2FA82F2D2B242F02002D2B28B
:1015800002F01F02012101FA02F21340002B07D0E2
:101590003B1D1B681B69012B02D0012300F01BBD02
:1015A000A04B1B6823F0F8023B1D1B685B69F82108
:1015B000C7F87011D7F8701191FAA1F1C7F86C1142
:1015C000D7F86C11B1FA81F1C9B28B409549134338
:1015D0000B60F5E03B1D1B681B69002B00F085804C
:1015E0000123C7F86831D7F8683193FAA3F3C7F835
:1015F0006431D7F86431B3FA83F3DBB203F1845377
:1016000003F584139B001A4601231360FFF722FAA7
:10161000C7F8F8010AE0FFF71DFA0246D7F8F831DB
:10162000D31A022B02D9032300F0D5BC0223C7F83A
:101630006031D7F8603193FAA3F3C7F85C31D7F87B
:101640005C31B3FA83F3DBB25B09DBB243F0010335
:10165000DBB2012B02D1734B1B6813E00223C7F8E6
:101660005831D7F8583193FAA3F3C7F8543102230D
:10167000C7F85031D7F8503193FAA3F3C7F84C317B
:10168000684B5B6A0222C7F84821D7F8482192FAD2
:10169000A2F2C7F84421D7F84421B2FA82F2D2B2BA
:1016A00042F02002D2B202F01F02012101FA02F23E
:1016B0001340002BAFD05B4B1B6823F0F8023B1D9F
:1016C0001B685B69F821C7F84011D7F8401191FAFF
:1016D000A1F1C7F83C11D7F83C11B1FA81F1C9B2B8
:1016E0008B40504913430B606AE00123C7F838313F
:1016F000D7F8383193FAA3F3C7F83431D7F8343137
:10170000B3FA83F3DBB203F1845303F584139B0034
:101710001A4600231360FFF79DF9C7F8F8010AE0A5
:10172000FFF798F90246D7F8F831D31A022B02D9FD
:10173000032300F050BC0223C7F83031D7F8303112
:1017400093FAA3F3C7F82C31D7F82C31B3FA83F30B
:10175000DBB25B09DBB243F00103DBB2012B02D148
:10176000304B1B6813E00223C7F82831D7F8283123
:1017700093FAA3F3C7F824310223C7F82031D7F82E
:10178000203193FAA3F3C7F81C31264B5B6A02227F
:10179000C7F81821D7F8182192FAA2F2C7F8142135
:1017A000D7F81421B2FA82F2D2B242F02002D2B2B9
:1017B00002F01F02012101FA02F21340002BAFD107
:1017C0003B1D1B681B6803F00803002B00F0DA8048
:1017D0003B1D1B689B69002B69D00123C7F81031A2
:1017E000D7F8103193FAA3F3C7F80C31D7F80C31BE
:1017F000B3FA83F3DBB21A460B4B13449B001A4631
:1018000001231360FFF726F9C7F8F8010EE0FFF790
:1018100021F90246D7F8F831D31A022B06D903234F
:10182000D9E300BF00100240208190100223C7F8C6
:101830000831D7F8083193FAA3F3C7F8043107F554
:10184000807302221A6007F580731B6893FAA3F273
:1018500007F1FC031A6007F1F80302221A6007F18E
:10186000F8031B6893FAA3F207F1F4031A60A54B7F
:101870005A6A07F1F0030221196007F1F0031B68AF
:1018800093FAA3F107F1EC03196007F1EC031B686D
:10189000B3FA83F3DBB243F06003DBB203F01F0360
:1018A000012101FA03F31340002BB0D06AE007F1E5
:1018B000E80301221A6007F1E8031B6893FAA3F218
:1018C00007F1E4031A6007F1E4031B68B3FA83F33A
:1018D000DBB21A468C4B13449B001A46002313605C
:1018E000FFF7B8F8C7F8F80109E0FFF7B3F80246C8
:1018F000D7F8F831D31A022B01D903236BE307F190
:10190000E00302221A6007F1E0031B6893FAA3F2D6
:1019100007F1DC031A6007F1D80302221A6007F10D
:10192000D8031B6893FAA3F207F1D4031A6007F1F6
:10193000D00302221A6007F1D0031B6893FAA3F2C6
:1019400007F1CC031A606F4B5A6A07F1C8030221F2
:10195000196007F1C8031B6893FAA3F107F1C403E8
:10196000196007F1C4031B68B3FA83F3DBB243F0D9
:101970006003DBB203F01F03012101FA03F31340FC
:10198000002BB2D13B1D1B681B6803F00403002B26
:1019900000F05881002387F8FF315A4BDB6903F0D0
:1019A0008053002B12D1574BDB69564A43F08053CA
:1019B000D361544BDB6903F0805207F108031A60CE
:1019C00007F108031B68012387F8FF314F4B1B68A1
:1019D00003F48073002B1AD14C4B1B684B4A43F421
:1019E00080731360FFF736F8C7F8F80109E0FFF7D6
:1019F00031F80246D7F8F831D31A642B01D9032302
:101A0000E9E2424B1B6803F48073002BEFD03B1DCF
:101A10001B68DB68012B06D13A4B1B6A394A43F03D
:101A2000010313622FE03B1D1B68DB68002B0CD108
:101A3000344B1B6A334A23F001031362314B1B6A98
:101A4000304A23F0040313621DE03B1D1B68DB6872
:101A5000052B0CD12B4B1B6A2A4A43F0040313625B
:101A6000284B1B6A274A43F0010313620BE0254B06
:101A70001B6A244A23F001031362224B1B6A214A8A
:101A800023F0040313623B1D1B68DB68002B6BD043
:101A9000FEF7E0FFC7F8F8010BE0FEF7DBFF0246B8
:101AA000D7F8F831D31A41F28832934201D903238F
:101AB00091E207F1C00302221A6007F1C0031B681C
:101AC00093FAA3F207F1BC031A6007F1B8030222EC
:101AD0001A6007F1B8031B6893FAA3F207F1B40385
:101AE0001A6007F1B4031B68B3FA83F3DBB25B0936
:101AF000DBB243F00203DBB2022B09D1014B1B6ABC
:101B000014E000BF001002402081901000700040DF
:101B100007F1B00302221A6007F1B0031B6893FAC1
:101B2000A3F207F1AC031A60BB4B5B6A07F1A80292
:101B30000221116007F1A802126892FAA2F107F1DE
:101B4000A402116007F1A4021268B2FA82F2D2B2C2
:101B500042F04002D2B202F01F02012101FA02F269
:101B60001340002B99D063E0FEF774FFC7F8F8012B
:101B70000BE0FEF76FFF0246D7F8F831D31A41F2B7
:101B80008832934201D9032325E207F1A003022200
:101B90001A6007F1A0031B6893FAA3F207F19C03F4
:101BA0001A6007F1980302221A6007F198031B6874
:101BB00093FAA3F207F194031A6007F194031B68E8
:101BC000B3FA83F3DBB25B09DBB243F00203DBB2AF
:101BD000022B02D1904B1B6A0DE007F19003022209
:101BE0001A6007F190031B6893FAA3F207F18C03C4
:101BF0001A60894B5B6A07F188020221116007F1C4
:101C00008802126892FAA2F107F18402116007F1CA
:101C100084021268B2FA82F2D2B242F04002D2B228
:101C200002F01F02012101FA02F21340002BA0D1A1
:101C300097F8FF31012B05D1774BDB69764A23F00A
:101C40008053D3613B1D1B68DB69002B00F0C28110
:101C5000714B5B6803F00C03082B00F09C813B1D6B
:101C60001B68DB69022B40F0148107F180034FF001
:101C700080721A6007F180031B6893FAA3F207F1E0
:101C80007C031A6007F17C031B68B3FA83F3DBB2B1
:101C900003F1845303F584139B001A460023136059
:101CA000FEF7D8FEC7F8F80109E0FEF7D3FE0246BA
:101CB000D7F8F831D31A022B01D903238BE107F1AE
:101CC00078034FF000721A6007F178031B6893FAEB
:101CD000A3F207F174031A6007F174031B68B3FAE7
:101CE00083F3DBB25B09DBB243F00103DBB2012B10
:101CF00002D1494B1B681BE007F170034FF00072E3
:101D00001A6007F170031B6893FAA3F207F16C03E2
:101D10001A6007F168034FF000721A6007F1680358
:101D20001B6893FAA3F207F164031A603A4B5B6AEB
:101D300007F160024FF00071116007F16002126854
:101D400092FAA2F107F15C02116007F15C021268DD
:101D5000B2FA82F2D2B242F02002D2B202F01F02F4
:101D6000012101FA02F21340002B9ED12A4B5B683D
:101D700023F474123B1D1B68596A3B1D1B681B6AC8
:101D80000B43254913434B6007F158034FF0807212
:101D90001A6007F158031B6893FAA3F207F1540382
:101DA0001A6007F154031B68B3FA83F3DBB203F143
:101DB000845303F584139B001A4601231360FEF736
:101DC00049FEC7F8F80109E0FEF744FE0246D7F8DD
:101DD000F831D31A022B01D90323FCE007F1500399
:101DE0004FF000721A6007F150031B6893FAA3F2D8
:101DF00007F14C031A6007F14C031B68B3FA83F335
:101E0000DBB25B09DBB243F00103DBB2012B05D18E
:101E1000014B1B681EE000BF0010024007F14803A1
:101E20004FF000721A6007F148031B6893FAA3F29F
:101E300007F144031A6007F140034FF000721A6083
:101E400007F140031B6893FAA3F207F13C031A6001
:101E5000634B5B6A07F138024FF00071116007F1C4
:101E60003802126892FAA2F107F13402116007F108
:101E700034021268B2FA82F2D2B242F02002D2B236
:101E800002F01F02012101FA02F21340002B9BD045
:101E9000A0E007F130034FF080721A6007F13003C1
:101EA0001B6893FAA3F207F12C031A6007F12C03C5
:101EB0001B68B3FA83F3DBB203F1845303F5841395
:101EC0009B001A4600231360FEF7C4FDC7F8F80113
:101ED00009E0FEF7BFFD0246D7F8F831D31A022B0E
:101EE00001D9032377E007F128034FF000721A604D
:101EF00007F128031B6893FAA3F207F124031A6081
:101F000007F124031B68B3FA83F3DBB25B09DBB28E
:101F100043F00103DBB2012B02D1314B1B681BE004
:101F200007F120034FF000721A6007F120031B68CD
:101F300093FAA3F207F11C031A6007F118034FF09C
:101F400000721A6007F118031B6893FAA3F207F1F5
:101F500014031A60224B5B6A07F110024FF0007104
:101F6000116007F11002126892FAA2F107F10C0257
:101F7000116007F10C021268B2FA82F2D2B242F09A
:101F80002002D2B202F01F02012101FA02F2134034
:101F9000002B9ED11EE03B1D1B68DB69012B01D18C
:101FA000012318E00E4B5B68C7F8F431D7F8F43121
:101FB00003F480323B1D1B681B6A9A4208D1D7F894
:101FC000F43103F470123B1D1B685B6A9A4201D026
:101FD000012300E00023184607F50077BD4680BDC9
:101FE0000010024080B59EB000AF786039600023D9
:101FF0007B677B68002B01D1012362E1904B1B685A
:1020000003F007033A689A4210D98D4B1B6823F0FE
:1020100007028B493B6813430B60894B1B6803F035
:1020200007033A689A4201D001234AE17B681B68A2
:1020300003F00203002B08D0824B5B6823F0F00210
:102040007B689B687F4913434B607B681B6803F088
:102050000103002B00F0DC807B685B68012B3CD126
:102060004FF400333B673B6F93FAA3F3FB66FB6EC1
:10207000B3FA83F3DBB25B09DBB243F00103DBB2FB
:10208000012B02D16F4B1B680FE04FF40033BB668E
:10209000BB6E93FAA3F37B664FF400333B663B6E53
:1020A00093FAA3F3FB65674B5B6A4FF40032BA65A2
:1020B000BA6D92FAA2F27A657A6DB2FA82F2D2B26F
:1020C00042F02002D2B202F01F02012101FA02F214
:1020D0001340002B7BD10123F3E07B685B68022B6C
:1020E0003CD14FF000733B653B6D93FAA3F3FB6467
:1020F000FB6CB3FA83F3DBB25B09DBB243F00103A1
:10210000DBB2012B02D14F4B1B680FE04FF0007385
:10211000BB64BB6C93FAA3F37B644FF000733B6426
:102120003B6C93FAA3F3FB63464B5B6A4FF0007280
:10213000BA63BA6B92FAA2F27A637A6BB2FA82F25B
:10214000D2B242F02002D2B202F01F02012101FA03
:1021500002F21340002B3AD10123B2E002233B6389
:102160003B6B93FAA3F3FB62FB6AB3FA83F3DBB234
:102170005B09DBB243F00103DBB2012B02D1314B2F
:102180001B680DE00223BB62BB6A93FAA3F37B6278
:1021900002233B623B6A93FAA3F3FB61294B5B6A20
:1021A0000222BA61BA6992FAA2F27A617A69B2FA43
:1021B00082F2D2B242F02002D2B202F01F0201211A
:1021C00001FA02F21340002B01D1012379E01D4BEB
:1021D0005B6823F003027B685B681A4913434B601A
:1021E000FEF738FC78670AE0FEF734FC02467B6FA6
:1021F000D31A41F28832934201D9032361E0114B93
:102200005B6803F00C027B685B689B009A42EBD131
:102210000B4B1B6803F007033A689A4214D2084B31
:102220001B6823F0070206493B6813430B60044B0D
:102230001B6803F007033A689A4205D0012340E087
:1022400000200240001002407B681B6803F004037A
:10225000002B08D01D4B5B6823F4E0627B68DB68D1
:102260001A4913434B607B681B6803F00803002B7B
:1022700009D0164B5B6823F460527B681B69DB0056
:10228000124913434B6000F029F801460F4B5B687D
:1022900003F0F003F0223A613A6992FAA2F2FA608E
:1022A000FA68B2FA82F2D2B2D340094AD35C21FA78
:1022B00003F3084A1360084B1B681846FEF7E2FA5E
:1022C000002318467837BD4680BD00BF001002408D
:1022D00098430008000000200400002080B48BB068
:1022E00000AF0023FB610023BB6100237B6200235E
:1022F0007B6100233B62294B5B68FB61FB6903F058
:102300000C03042B02D0082B03D03CE0244B3B628F
:102310003CE0FB6903F470134FF47012BA60BA68C2
:1023200092FAA2F27A607A68B2FA82F2D2B2D3401A
:102330001C4AD35C7B61194BDB6A03F00F030F224D
:102340003A613A6992FAA2F2FA60FA68B2FA82F253
:10235000D2B2D340144AD35CBB61FB6903F480332F
:10236000002B08D00E4ABB69B2FBF3F27B6902FB7B
:1023700003F37B6204E07B690C4A02FB03F37B629C
:102380007B6A3B6202E0064B3B6200BF3B6A184639
:102390002C37BD465DF8047B704700BF001002403B
:1023A00000127A00B0430008C043000800093D0055
:1023B00080B400AF034B1B681846BD465DF8047B34
:1023C000704700BF0000002080B582B000AFFFF76B
:1023D000EFFF01460B4B5B6803F4E0634FF4E062F0
:1023E0007A607A6892FAA2F23A603A68B2FA82F2B5
:1023F000D2B2D340044AD35C21FA03F3184608371B
:10240000BD4680BD00100240A843000880B483B0E0
:1024100000AF786039607B680F221A60124B5B68EE
:1024200003F003027B685A600F4B5B6803F0F00215
:102430007B689A600C4B5B6803F4E0627B68DA604F
:10244000094B5B68DB0803F4E0627B681A61074BA9
:102450001B6803F007023B681A6000BF0C37BD46DB
:102460005DF8047B704700BF00100240002002406E
:1024700080B592B000AF786000233B640023FB631B
:10248000002387F847307B681B6803F48033002BF8
:1024900000F0D4804E4BDB6903F08053002B0ED14B
:1024A0004B4BDB694A4A43F08053D361484BDB69AD
:1024B00003F08053BB60BB68012387F84730454B6E
:1024C0001B6803F48073002B18D1424B1B68414AF0
:1024D00043F480731360FEF7BDFA386408E0FEF73A
:1024E000B9FA02463B6CD31A642B01D9032369E184
:1024F000384B1B6803F48073002BF0D0344B1B6AFD
:1025000003F44073FB63FB6B002B00F084807B685B
:102510005B6803F44073FA6B9A427CD02C4B1B6AC5
:1025200023F44073FB634FF480333B633B6B93FABC
:10253000A3F3FB62FB6AB3FA83F3DBB21A46264BC2
:1025400013449B001A46012313604FF48033BB638E
:10255000BB6B93FAA3F37B637B6BB3FA83F3DBB2BE
:102560001A461D4B13449B001A4600231360184A59
:10257000FB6B1362FB6B03F00103002B4BD0FEF7E8
:1025800069FA38640AE0FEF765FA02463B6CD31A32
:1025900041F28832934201D9032313E10223BB6243
:1025A000BB6A93FAA3F37B6202233B623B6A93FA12
:1025B000A3F3FB61FB69B3FA83F3DBB25B09DBB224
:1025C00043F00203DBB2022B08D1014B1B6A0DE082
:1025D0000010024000700040008190100223BB6197
:1025E000BB6993FAA3F37B61784B5B6A02223A6181
:1025F0003A6992FAA2F2FA60FA68B2FA82F2D2B2B8
:1026000042F04002D2B202F01F02012101FA02F2AE
:102610001340002BB7D06D4B1B6A23F440727B68CC
:102620005B686A4913430B6297F84730012B05D169
:10263000664BDB69654A23F08053D3617B681B6876
:1026400003F00103002B08D0604B1B6B23F0030247
:102650007B689B685D4913430B637B681B6803F0D1
:102660000203002B08D0594B1B6B23F440327B68CC
:10267000DB68564913430B637B681B6803F0040354
:10268000002B08D0514B1B6B23F440227B681B6945
:102690004E4913430B637B681B6803F02003002B38
:1026A00008D04A4B1B6B23F010027B68DB6947495B
:1026B00013430B637B681B6803F40033002B08D0C3
:1026C000424B5B6823F480027B689B6B3F4913435A
:1026D0004B607B681B6803F04003002B08D03B4B2A
:1026E0001B6B23F020027B681B6A384913430B6382
:1026F0007B681B6803F00803002B08D0334B1B6B6F
:1027000023F440127B685B69304913430B637B6899
:102710001B6803F01003002B08D02C4B1B6B23F419
:1027200040027B689B69294913430B637B681B68E4
:1027300003F40073002B08D0244B5B6823F40002E1
:102740007B68DB6A214913434B607B681B6803F09D
:102750008003002B08D01D4BDB6A23F4F8727B68E2
:102760005B6A1A491343CB627B681B6803F480736E
:10277000002B08D0154BDB6A23F478527B689B6AE8
:1027800012491343CB627B681B6803F48053002B10
:1027900008D00E4B1B6B23F480727B681B6B0B49BC
:1027A00013430B637B681B6803F40053002B08D0B2
:1027B000064B1B6B23F400727B685B6B034913436E
:1027C0000B63002318464837BD4680BD0010024009
:1027D00080B582B000AF78607B68002B01D1012307
:1027E00049E07B6893F83D30DBB2002B06D17B6873
:1027F000002283F83C20786800F041F87B680222D0
:1028000083F83D207B681A687B68043319461046BC
:1028100000F0F2F97B68012283F848207B680122EE
:1028200083F83E207B68012283F83F207B680122E9
:1028300083F840207B68012283F841207B680122D5
:1028400083F842207B68012283F843207B680122C1
:1028500083F844207B68012283F845207B680122AD
:1028600083F846207B68012283F847207B68012299
:1028700083F83D20002318460837BD4680BD80B44C
:1028800083B000AF786000BF0C37BD465DF8047BB5
:102890007047000080B485B000AF78607B6893F823
:1028A0003D30DBB2012B01D001234AE07B680222DC
:1028B00083F83D207B681B68DA687B681B6842F000
:1028C0000102DA607B681B68214A934218D07B685A
:1028D0001B68B3F1804F13D07B681B681D4A93427D
:1028E0000ED07B681B681C4A934209D07B681B682A
:1028F0001A4A934204D07B681B68194A934215D147
:102900007B681B689A68174B1340FB60FB68062BBB
:1029100015D0FB68B3F5803F11D07B681B681A683F
:102920007B681B6842F001021A6008E07B681B6844
:102930001A687B681B6842F001021A6000E000BF61
:10294000002318461437BD465DF8047B704700BF6E
:10295000002C014000040040000800400034014009
:10296000004001400700010080B582B000AF7860F0
:102970007B681B681B6903F00203022B22D17B6872
:102980001B68DB6803F00203022B1BD17B681B680A
:102990006FF002021A617B6801221A777B681B685C
:1029A0009B6903F00303002B03D0786800F005F95E
:1029B00005E0786800F0F7F8786800F008F97B68BF
:1029C00000221A777B681B681B6903F00403042B41
:1029D00022D17B681B68DB6803F00403042B1BD146
:1029E0007B681B686FF004021A617B6802221A7709
:1029F0007B681B689B6903F44073002B03D07868E5
:102A000000F0DBF805E0786800F0CDF8786800F0B9
:102A1000DEF87B6800221A777B681B681B6903F06D
:102A20000803082B22D17B681B68DB6803F00803CE
:102A3000082B1BD17B681B686FF008021A617B684A
:102A400004221A777B681B68DB6903F00303002B01
:102A500003D0786800F0B1F805E0786800F0A3F8DA
:102A6000786800F0B4F87B6800221A777B681B68EE
:102A70001B6903F01003102B22D17B681B68DB68F5
:102A800003F01003102B1BD17B681B686FF0100242
:102A90001A617B6808221A777B681B68DB6903F47C
:102AA0004073002B03D0786800F087F805E0786861
:102AB00000F079F8786800F08AF87B6800221A77CD
:102AC0007B681B681B6903F00103012B0ED17B6837
:102AD0001B68DB6803F00103012B07D17B681B68CF
:102AE0006FF001021A617868FDF740FE7B681B6891
:102AF0001B6903F08003802B0ED17B681B68DB68A9
:102B000003F08003802B07D17B681B686FF0800285
:102B10001A61786800F00AF97B681B681B6903F486
:102B20008073B3F5807F0ED17B681B68DB6803F090
:102B30008003802B07D17B681B686FF480721A6159
:102B4000786800F0FDF87B681B681B6903F04003A0
:102B5000402B0ED17B681B68DB6803F04003402BE1
:102B600007D17B681B686FF040021A61786800F03B
:102B700038F87B681B681B6903F02003202B0ED1FB
:102B80007B681B68DB6803F02003202B07D17B6880
:102B90001B686FF020021A61786800F0BDF800BF72
:102BA0000837BD4680BD80B483B000AF786000BFF9
:102BB0000C37BD465DF8047B704780B483B000AF2E
:102BC000786000BF0C37BD465DF8047B704780B469
:102BD00083B000AF786000BF0C37BD465DF8047B62
:102BE000704780B483B000AF786000BF0C37BD463B
:102BF0005DF8047B7047000080B485B000AF78605A
:102C000039607B681B68FB607B683C4A93420FD04D
:102C10007B68B3F1804F0BD07B68394A934207D071
:102C20007B68384A934203D07B68374A934208D185
:102C3000FB6823F07003FB603B685B68FA68134332
:102C4000FB607B682D4A93421BD07B68B3F1804FB9
:102C500017D07B682A4A934213D07B68294A934253
:102C60000FD07B68284A93420BD07B68274A934257
:102C700007D07B68264A934203D07B68254A93425B
:102C800008D1FB6823F44073FB603B68DB68FA689B
:102C90001343FB60FB6823F080023B685B691343CE
:102CA000FB607B68FA681A603B689A687B68DA6246
:102CB0003B681A687B689A627B68104A93420FD01F
:102CC0007B68114A93420BD07B68104A934207D02D
:102CD0007B680F4A934203D07B680E4A934203D12C
:102CE0003B681A697B681A637B6801225A6100BFDE
:102CF0001437BD465DF8047B704700BF002C0140CF
:102D00000004004000080040003401400040014041
:102D1000004401400048014080B483B000AF7860B7
:102D200000BF0C37BD465DF8047B704780B483B0AC
:102D300000AF786000BF0C37BD465DF8047B70477C
:102D400080B483B000AF786000BF0C37BD465DF83B
:102D5000047B704780B485B000AF0346FB8000233E
:102D6000FB60B7F90630842B05D0B7F90620FB6865
:102D700013440333FB60FB6818461437BD465DF807
:102D8000047B704780B500AF00F0D6FA00231846E8
:102D900080BDF0B589B004AF786039607B685B694D
:102DA000002B20D07B689B69002B1CD07B685C6863
:102DB0007B681D687B681E697B68B3F9083018461C
:102DC000FFF7C8FF01467B685B697A6892690292E7
:102DD000019300913B6832462946204600F0EDF809
:102DE0000346FB601CE07B685C687B681D687B6851
:102DF0001B699EB27B68B3F908301846FFF7AAFF3B
:102E0000024607F10C03019300923B6832462946C3
:102E1000204600F02EF90346012B01D0002300E0EC
:102E2000FB6818461437BD46F0BD80B584B000AFCE
:102E300078607B68FB60FB68002B01D0FB6800E0DA
:102E40000123184600F044FA002318461037BD4607
:102E500080BD80B483B000AF78607B6803F1080266
:102E60007B685A607B684FF0FF329A607B6803F1A1
:102E700008027B68DA607B6803F108027B681A61EC
:102E80007B6800221A6000BF0C37BD465DF8047BEA
:102E9000704780B483B000AF78607B6800221A610D
:102EA00000BF0C37BD465DF8047B704780B485B029
:102EB00000AF786039607B685B68FB603B68FA68EC
:102EC0005A60FB689A683B689A60FB689B683A683E
:102ED0005A60FB683A689A603B687A681A617B6856
:102EE0001B685A1C7B681A6000BF1437BD465DF82A
:102EF000047B704780B485B000AF786039603B6870
:102F00001B68BB60BB68B3F1FF3F03D17B681B69E3
:102F1000FB600CE07B680833FB6002E0FB685B68E9
:102F2000FB60FB685B681B68BA689A42F6D2FB6874
:102F30005A683B685A603B685B683A689A603B68CD
:102F4000FA689A60FB683A685A603B687A681A6166
:102F50007B681B685A1C7B681A6000BF1437BD462B
:102F60005DF8047B704780B485B000AF78607B6803
:102F70001B69FB607B685B687A6892689A607B6813
:102F80009B687A6852685A60FB685B687A689A4204
:102F900003D17B689A68FB685A607B6800221A61DB
:102FA000FB681B685A1EFB681A60FB681B681846A2
:102FB0001437BD465DF8047B704780B58EB004AF12
:102FC000F860B9607A603B607B6B002B0AD14FF0F0
:102FD000500383F31188BFF36F8FBFF34F8F3B62B2
:102FE00000BFFEE7BB6B002B0AD14FF0500383F309
:102FF0001188BFF36F8FBFF34F8FFB6100BFFEE7F8
:1030000054233B613B69542B0AD04FF0500383F3A8
:103010001188BFF36F8FBFF34F8FBB6100BFFEE717
:10302000BB6B002B1ED07B6B002B1BD0BB6B7B6262
:103030007B6A7A6B1A637B6A022283F85120002331
:1030400003937B6A029307F1140301933B6B009394
:103050003B687A68B968F86800F050F8786A00F060
:10306000CDF801E000237B617B6918462837BD4617
:1030700080BD80B58CB004AFF860B9603B6013468A
:10308000FB80FB889B00184600F0CEFE78617B69D0
:10309000002B0ED0542000F0C7FEF861FB69002B16
:1030A00003D0FB697A691A6305E0786900F080FF54
:1030B00001E00023FB61FB69002B17D0FB690022B4
:1030C00083F85120FA8800230393FB690293FB6A7B
:1030D0000193BB6A00933B68B968F86800F00EF88A
:1030E000F86900F08BF80123BB6102E04FF0FF3379
:1030F000BB61BB6918462037BD4680BD80B588B02E
:1031000000AFF860B9607A603B603B6B1A6B7B681C
:1031100003F18043013B9B001344BB61BB6923F077
:103120000703BB61BB6903F00703002B0AD04FF014
:10313000500383F31188BFF36F8FBFF34F8F7B6111
:1031400000BFFEE70023FB6112E0BA68FB6913448D
:1031500019783A6BFB69134434330A461A70BA681B
:10316000FB6913441B78002B06D0FB690133FB611C
:10317000FB690F2BE9D900E000BF3B6B002283F80D
:103180004320BB6A062B01D90623BB623B6BBA6A9C
:10319000DA623B6BBA6A5A643B6B00229A643B6BFF
:1031A00004331846FFF775FE3B6B18331846FFF7DC
:1031B00070FE3B6B3A6B1A61BB6AC3F107023B6B53
:1031C0009A613B6B3A6B5A623B6B0022DA643B6B51
:1031D000002283F850203A68F968B86900F012FCC0
:1031E00002463B6B1A60FB6A002B02D0FB6A3A6B0B
:1031F0001A6000BF2037BD4680BD000080B582B098
:1032000000AF786000F02EFD2A4B1B680133294A7D
:103210001360294B1B68002B09D1274A7B68136078
:10322000244B1B68012B10D100F0C2FA0DE0234B98
:103230001B68002B09D1204B1B68DA6A7B68DB6AAC
:103240009A4202D81C4A7B6813601D4B1B680133ED
:103250001B4A13607B68DB6A01229A40194B1B688A
:103260001343184A13607B68DA6A13469B001344C1
:103270009B00154A1A447B68043319461046FFF731
:1032800015FE00F01FFD0D4B1B68002B0ED00A4BE6
:103290001B68DA6A7B68DB6A9A4207D20B4B4FF0F5
:1032A00080521A60BFF34F8FBFF36F8F00BF083794
:1032B000BD4680BD80030020800200208C030020DA
:1032C0009C030020880300208402002004ED00E01D
:1032D00080B584B000AF78600023FB607B68002B72
:1032E00017D0134B1B68002B0AD04FF0500383F309
:1032F0001188BFF36F8FBFF34F8FBB6000BFFEE736
:1033000000F07AF80021786800F016FB00F082F8EF
:10331000F860FB68002B07D1064B4FF080521A6013
:10332000BFF34F8FBFF36F8F00BF1037BD4680BD17
:10333000A803002004ED00E080B58AB004AF0023AC
:10334000BB6000237B603A46391D07F1080318462D
:10335000FCF73EFF39687B68BA680292019300234C
:10336000009300230A461E491E48FFF726FE034627
:103370001D4A13601C4B1B68002B02D001237B618C
:1033800001E000237B617B69012B16D14FF05003D4
:1033900083F31188BFF36F8FBFF34F8F3B6100BF83
:1033A000124B4FF0FF321A60114B01221A60114B81
:1033B00000221A6000F0B4FB0EE07B69B3F1FF3F1E
:1033C0000AD14FF0500383F31188BFF36F8FBFF31F
:1033D0004F8FFB6000BFFEE700BF1837BD4680BDC2
:1033E0009043000881370008A4030020A0030020B8
:1033F0008C0300208403002080B400AF044B1B68C2
:103400000133034A136000BFBD465DF8047B70477B
:10341000A803002080B584B000AF0023FB60002328
:10342000BB60414B1B68002B0AD14FF0500383F364
:103430001188BFF36F8FBFF34F8F3B6000BFFEE774
:1034400000F010FC384B1B68013B374A1360364BC9
:103450001B68002B61D1354B1B68002B5DD02EE023
:10346000334BDB68DB68FB60FB6818331846FFF7FB
:103470007AFDFB6804331846FFF775FDFB68DB6ACD
:1034800001229A402B4B1B6813432A4A1360FB68A6
:10349000DA6A13469B0013449B00274A1A44FB68D0
:1034A000043319461046FFF701FDFB68DA6A234B27
:1034B0001B68DB6A9A4202D3214B01221A601C4B23
:1034C0001B68002BCCD1FB68002B01D000F00EFA5A
:1034D0001C4B1B687B607B68002B10D000F036F81B
:1034E0000346002B02D0164B01221A607B68013B79
:1034F0007B607B68002BF1D1124B00221A60104BCD
:103500001B68002B09D00123BB600F4B4FF080528A
:103510001A60BFF34F8FBFF36F8F00F0D3FBBB6810
:1035200018461037BD4680BDA80300208003002048
:103530004003002088030020840200208002002035
:10354000940300209003002004ED00E080B586B0D5
:1035500000AF00237B61514B1B68002B40F08D8036
:103560004F4B1B6801333B614D4A3B6913603B691C
:10357000002B20D14B4B1B681B68002B0AD04FF04F
:10358000500383F31188BFF36F8FBFF34F8F3B60FE
:1035900000BFFEE7434B1B68FB60434B1B68414A7F
:1035A0001360414AFB681360404B1B6801333F4A7C
:1035B000136000F09BF93E4B1B683A699A424DD369
:1035C000384B1B681B68002B01D1012300E000234E
:1035D000002B04D0364B4FF0FF321A603EE0314BE7
:1035E0001B68DB68DB68BB60BB685B687B603A6953
:1035F0007B689A4203D22E4A7B6813602EE0BB6838
:1036000004331846FFF7AFFCBB689B6A002B04D05D
:10361000BB6818331846FFF7A6FCBB68DB6A0122BB
:103620009A40244B1B681343224A1360BB68DA6A32
:1036300013469B0013449B001F4A1A44BB68043383
:1036400019461046FFF732FCBB68DA6A1B4B1B6851
:10365000DB6A9A42B4D301237B61B1E7174B1B6845
:10366000DA6A154913469B0013449B000B441B6800
:10367000012B07D901237B6104E0114B1B68013347
:103680000F4A13600F4B1B68002B01D001237B6195
:103690007B6918461837BD4680BD00BFA8030020CF
:1036A00084030020380300203C03002098030020FE
:1036B000A003002088030020840200208002002054
:1036C000900300209403002080B487B000AF274B04
:1036D0001B68002B03D0264B01221A603FE0244BCD
:1036E00000221A60234B1B68FB60FB68B3FA83F36C
:1036F000FB72FB7AC3F11F037B611F497A69134692
:103700009B0013449B000B441B68002B0AD14FF015
:10371000500383F31188BFF36F8FBFF34F8F7B602C
:1037200000BFFEE77A6913469B0013449B00124AD0
:1037300013443B613B695B685A683B695A603B696B
:103740005A683B6908339A4204D13B695B685A68FE
:103750003B695A603B695B68DB68084A136000BFDD
:103760001C37BD465DF8047B704700BFA8030020EE
:10377000940300208803002084020020800200209F
:1037800080B582B000AF786000F052F8064B1B683D
:10379000012BF9D9054B4FF080521A60BFF34F8FC0
:1037A000BFF36F8FF0E700BF8402002004ED00E05C
:1037B00080B582B000AF00237B600CE07A681346CE
:1037C0009B0013449B00124A13441846FFF741FB29
:1037D0007B6801337B607B68062BEFD90D48FFF7D0
:1037E00038FB0D48FFF735FB0C48FFF732FB0C4860
:1037F000FFF72FFB0B48FFF72CFB0B4B054A1A601A
:103800000A4B054A1A6000BF0837BD4680BD00BF9D
:103810008402002010030020240300204003002025
:10382000540300206C030020380300203C030020D8
:1038300080B582B000AF19E000F014FA104BDB68DD
:10384000DB687B607B6804331846FFF78CFB0D4B0D
:103850001B68013B0B4A13600B4B1B68013B0A4A78
:10386000136000F02FFA786800F010F8064B1B6820
:10387000002BE1D100BF00BF0837BD4680BD00BFAF
:1038800054030020800300206803002080B584B02A
:1038900000AF78607B6893F85130002B08D17B68CB
:1038A0001B6B184600F084FB786800F081FB18E081
:1038B0007B6893F85130012B03D1786800F078FBD6
:1038C0000FE07B6893F85130022B0AD04FF0500381
:1038D00083F31188BFF36F8FBFF34F8FFB6000BF7F
:1038E000FEE700BF1037BD4680BD000080B483B046
:1038F00000AF0F4B1B681B68002B01D1012300E0B8
:103900000023002B04D00B4B4FF0FF321A6008E06D
:10391000074B1B68DB68DB687B607B685B68054A7C
:10392000136000BF0C37BD465DF8047B704700BFD5
:1039300038030020A003002080B584B000AF786079
:103940003960294B1B68FB60284B1B680433184601
:10395000FFF709FB0346002B0BD1244B1B68DB6AE6
:10396000012202FA03F3DA43214B1B681340204A79
:1039700013607B68B3F1FF3F0AD13B68002B07D08F
:103980001A4B1B68043319461A48FFF78FFA26E0D2
:10399000FA687B681344BB60144B1B68BA685A60B2
:1039A000BA68FB689A4209D2134B1A680F4B1B681E
:1039B000043319461046FFF79DFA10E00F4B1A68C2
:1039C0000A4B1B68043319461046FFF793FA0C4B59
:1039D0001B68BA689A4202D2094ABB68136000BFEA
:1039E0001037BD4680BD00BF840300208002002048
:1039F000880300206C0300203C03002038030020D3
:103A0000A003002080B485B000AFF860B9607A6090
:103A1000FB68043BFB60FB684FF080721A60FB6838
:103A2000043BFB60BB6823F00102FB681A60FB6883
:103A3000043BFB600C4AFB681A60FB68143BFB60AC
:103A40007A68FB681A60FB68043BFB60FB686FF0F8
:103A500002021A60FB68203BFB60FB6818461437C3
:103A6000BD465DF8047B70476D3A000880B485B0B0
:103A700000AF00237B60124B1B68B3F1FF3F0AD0FD
:103A80004FF0500383F31188BFF36F8FBFF34F8F55
:103A9000FB6000BFFEE74FF0500383F31188BFF3D4
:103AA0006F8FBFF34F8FBB6000BF00BF7B68002BE1
:103AB000FCD000BF00BF1437BD465DF8047B7047E3
:103AC0000C000020000000000000000000000000CA
:103AD000074B19680868B0E8F04F80F30988BFF316
:103AE0006F8F4FF0000080F311887047AFF30080B4
:103AF0008002002000BF00BF08480068006880F313
:103B000008884FF0000080F3148862B661B6BFF3F6
:103B10004F8FBFF36F8F00DF00BF00BF08ED00E0E5
:103B200080B586B000AF464B1B68464A93420AD127
:103B30004FF0500383F31188BFF36F8FBFF34F8FA4
:103B40003B6100BFFEE73E4B1B683F4A93420AD1F0
:103B50004FF0500383F31188BFF36F8FBFF34F8F84
:103B6000FB6000BFFEE7394B7B617B691B78DBB2F2
:103B70007B607B69FF221A707B691B78DBB2FB706C
:103B8000FB78DBB203F05003DAB2314B1A70314BE1
:103B900007221A6009E02F4B1B68013B2D4A136076
:103BA000FB78DBB25B00DBB2FB70FB78DBB203F0CF
:103BB0008003802BEFD0274B1B68C3F10703042B36
:103BC0000AD04FF0500383F31188BFF36F8FBFF318
:103BD0004F8FBB6000BFFEE71E4B1B681B021D4AD8
:103BE00013601C4B1B6803F4E0631A4A13607B6884
:103BF000DAB27B691A70184B1B68174A43F47003DA
:103C00001360154B1B68144A43F07043136000F0B7
:103C1000DDF8124B00221A6000F0FCF8104B1B6814
:103C20000F4A43F040431360FFF766FFFFF74CFD78
:103C3000FFF71CFF002318461837BD4680BD00BFA4
:103C400000ED00E071C20F4170C20F4100E400E0DE
:103C5000AC030020B003002020ED00E00C000020A9
:103C600034EF00E080B483B000AF4FF0500383F333
:103C70001188BFF36F8FBFF34F8F7B6000BF0F4B77
:103C80001B6801330D4A13600C4B1B68012B0FD1CD
:103C90000B4B1B68DBB2002B0AD04FF0500383F3B1
:103CA0001188BFF36F8FBFF34F8F3B6000BFFEE7FC
:103CB00000BF0C37BD465DF8047B70470C00002048
:103CC00004ED00E080B483B000AF124B1B68002B02
:103CD0000AD14FF0500383F31188BFF36F8FBFF306
:103CE0004F8F7B6000BFFEE70A4B1B68013B094A10
:103CF0001360084B1B68002B05D100233B603B6819
:103D000083F3118800BF00BF0C37BD465DF8047B0C
:103D1000704700BF0C000020000000000000000001
:103D2000EFF30980BFF36F8F154B1A681EF0100F69
:103D300008BF20ED108A20E9F04F10602DE909003E
:103D40004FF0500080F31188BFF34F8FBFF36F8F98
:103D5000FFF7BAFC4FF0000080F3118809BC196826
:103D60000868B0E8F04F1EF0100F08BFB0EC108AE2
:103D700080F30988BFF36F8F704700BFAFF30080F7
:103D80008002002000BF00BF80B582B000AF4FF0BE
:103D9000500383F31188BFF36F8FBFF34F8F7B60A6
:103DA00000BFFFF7D3FB0346002B03D0064B4FF0B9
:103DB00080521A6000233B603B6883F3118800BF88
:103DC00000BF0837BD4680BD04ED00E080B400AF01
:103DD0000B4B00221A600B4B00221A600A4B1B6827
:103DE0000A4AA2FB03239B09094A013B1360044BC7
:103DF00007221A6000BFBD465DF8047B704700BF14
:103E000010E000E018E000E000000020D34D621058
:103E100014E000E0DFF80C00016841F4700101607B
:103E2000704700BF88ED00E080B58AB000AF7860D1
:103E30000023FB61FFF7E0FA584B1B68002B01D110
:103E400000F010F9564B1A687B681340002B40F0C5
:103E50008E807B68002B1DD008227B6813447B601A
:103E60007B6803F00703002B14D07B6823F0070363
:103E700008337B607B6803F00703002B0AD04FF008
:103E8000500383F31188BFF36F8FBFF34F8F7B61B4
:103E900000BFFEE77B68002B69D0424B1B687A6845
:103EA0009A4264D8404B3B623F4B1B687B6204E004
:103EB0007B6A3B627B6A1B687B627B6A5B687A68B1
:103EC0009A4203D97B6A1B68002BF1D1334B1B68E4
:103ED0007A6A9A424BD03B6A1B6808221344FB6102
:103EE0007B6A1A683B6A1A607B6A5A687B68D21AD6
:103EF00008235B009A421FD97A6A7B681344BB612E
:103F0000BB6903F00703002B0AD04FF0500383F383
:103F10001188BFF36F8FBFF34F8F3B6100BFFEE788
:103F20007B6A5A687B68D21ABB695A607B6A7A6876
:103F30005A60B86900F0F8F81A4B1A687B6A5B6837
:103F4000D31A184A1360174B1A68184B1B689A4209
:103F500003D2144B1B68154A13607B6A5A68104BD6
:103F60001B681A437B6A5A607B6A00221A60FFF75B
:103F700051FAFB6903F00703002B0AD04FF05003FE
:103F800083F31188BFF36F8FBFF34F8FFB6000BFC8
:103F9000FEE7FB6918462837BD4680BDBC0F0020F0
:103FA000C80F0020C00F0020B40F0020C40F002055
:103FB00080B586B000AF78607B687B617B68002B42
:103FC00048D008235B427A6913447B617B693B617B
:103FD0003B695A68214B1B681340002B0AD14FF0F4
:103FE000500383F31188BFF36F8FBFF34F8FFB60D4
:103FF00000BFFEE73B691B68002B0AD04FF050035F
:1040000083F31188BFF36F8FBFF34F8FBB6000BF87
:10401000FEE73B695A68114B1B681340002B19D00F
:104020003B691B68002B15D13B695A680B4B1B6819
:10403000DB431A403B695A60FFF7DEF93B695A6877
:10404000074B1B681344064A1360386900F06CF88C
:10405000FFF7E0F900BF1837BD4680BDC80F00204C
:10406000C00F002080B485B000AF4FF44063BB6048
:10407000274BFB60FB6803F00703002B0CD0FB68A9
:104080000733FB60FB6823F00703FB60BA68FB683B
:10409000D31A1F4A1344BB60FB687B601D4A7B68D0
:1040A00013601C4B00225A607B68BA681344FB60A3
:1040B0000822FB689B1AFB60FB6823F00703FB6088
:1040C000FB68154A1360144B1B6800225A60124BA0
:1040D0001B6800221A607B683B603B68FA68D21A52
:1040E0003B685A600C4B1A683B681A603B685B6817
:1040F0000A4A13603B685B68094A1360094B4FF03A
:1041000000421A6000BF1437BD465DF8047B70475B
:10411000B4030020B40F0020BC0F0020C40F002007
:10412000C00F0020C80F002080B485B000AF7860B9
:10413000284BFB6002E0FB681B68FB60FB681B68A8
:104140007A689A42F7D8FB68BB60FB685B68BA681C
:1041500013447A689A4208D1FB685A687B685B68A6
:104160001A44FB685A60FB687B607B68BB607B68B5
:104170005B68BA681A44FB681B689A4218D1FB68EE
:104180001A68154B1B689A420DD07B685A68FB6809
:104190001B685B681A447B685A60FB681B681A6876
:1041A0007B681A6008E00C4B1A687B681A6003E0B1
:1041B000FB681A687B681A60FA687B689A4202D0CA
:1041C000FB687A681A6000BF1437BD465DF8047B4F
:1041D000704700BFB40F0020BC0F002070B50D4D1C
:1041E0000D4C641BA4100026A64209D10B4D0C4CAB
:1041F00000F020F8641BA4100026A64205D170BD73
:1042000055F8043B98470136EEE755F8043B9847CC
:104210000136F2E7D0430008D0430008D04300083D
:10422000D443000802440346934200D1704703F888
:10423000011BF9E7F8B500BFF8BC08BC9E46704703
:0C424000F8B500BFF8BC08BC9E467047F3
:10424C005461736B30315F49324300005461736BBE
:10425C00303200005461736B303300005461736B67
:10426C00303400005461736B3035000064642F6D82
:10427C006D2F7979797900004C4200085D070008B0
:10428C00030000000000000080000000000000009F
:10429C000000000058420008B105000800000000B2
:1042AC000000000080000000000000000000000082
:1042BC006042000815060008000000000000000025
:1042CC0080000000000000000000000068420008B0
:1042DC0089060008000000000000000080000000BB
:1042EC00000000000000000070420008ED0600080D
:1042FC000000000000000000800000000000000032
:10430C000000000053485433312D4152502D4200CF
:10431C0054656D7065726174757265002E2E2E2E4B
:10432C0000000000496E7465726E616C0000000044
:10433C004D6963726F2D636F6E74726F6C6C657206
:10434C002074656D70657261747572652000000073
:10435C0048756D69646974793A0000004B503232CB
:10436C00392D45323730312D58544D413100000034
:10437C004162736F6C7574652070726573737572BE
:10438C006500000049444C4500000000000000009E
:10439C0000000000010203040607080900000000E9
:1043AC000102030402030405060708090A0B0C0D9D
:1043BC000E0F10100102030405060708090A0B0C66
:0443CC000D0E0F10B3
:0443D000B50100082B
:0443D400910100084B
:1043D80000127A001000000001000000AAAAAAAA90
:04000005080009AD39
:00000001FF
