:020000040800F2
:1000000000A000206D1B0008F51A0008FB1A00086C
:10001000011B0008071B00080D1B00080000000062
:10002000000000000000000000000000518B0008EC
:10003000131B000800000000A18D0008098E0008B5
:10004000BD1B0008BD1B0008BD1B0008BD1B000830
:10005000BD1B0008BD1B0008BD1B0008BD1B000820
:10006000BD1B0008BD1B0008BD1B0008BD1B000810
:10007000BD1B0008BD1B0008BD1B0008BD1B000800
:10008000BD1B0008BD1B0008BD1B0008BD1B0008F0
:10009000BD1B0008BD1B0008BD1B0008BD1B0008E0
:1000A000BD1B0008BD1B0008BD1B0008BD1B0008D0
:1000B000BD1B0008BD1B0008BD1B0008211B00085C
:1000C000BD1B0008BD1B0008BD1B0008BD1B0008B0
:1000D000BD1B0008BD1B0008BD1B0008BD1B0008A0
:1000E000BD1B0008BD1B0008BD1B0008BD1B000890
:1000F000BD1B0008BD1B0008BD1B0008BD1B000880
:10010000000000000000000000000000BD1B00080F
:10011000BD1B0008BD1B0008351B0008BD1B0008E7
:10012000BD1B0008BD1B0008BD1B0008BD1B00084F
:10013000BD1B0008BD1B00080000000000000000FF
:10014000BD1B0008BD1B0008BD1B0008000000000F
:10015000000000000000000000000000000000009F
:100160000000000000000000BD1B0008BD1B0008CF
:10017000BD1B00080000000000000000000000009F
:0801800000000000BD1B000897
:1001900010B5054C237833B9044B13B10448AFF3C1
:1001A00000800123237010BD10000020000000001B
:1001B0005093000808B5034B1BB103490348AFF344
:1001C000008008BD000000001400002050930008CB
:1001D00081F0004102E000BF83F0004330B54FEAF8
:1001E00041044FEA430594EA050F08BF90EA020F65
:1001F0001FBF54EA000C55EA020C7FEA645C7FEAF8
:10020000655C00F0E2804FEA5454D4EB5555B8BF1A
:100210006D420CDD2C4480EA020281EA030382EA8B
:10022000000083EA010180EA020281EA0303362D1D
:1002300088BF30BD11F0004F4FEA01314FF4801CF0
:100240004CEA113102D0404261EB410113F0004F02
:100250004FEA03334CEA133302D0524263EB4303B9
:1002600094EA050F00F0A780A4F10104D5F1200E57
:100270000DDB02FA0EFC22FA05F2801841F10001B2
:1002800003FA0EF2801843FA05F359410EE0A5F186
:1002900020050EF1200E012A03FA0EFC28BF4CF0B7
:1002A000020C43FA05F3C01851EBE37101F000456D
:1002B00007D54FF0000EDCF1000C7EEB00006EEB7A
:1002C0000101B1F5801F1BD3B1F5001F0CD3490804
:1002D0005FEA30004FEA3C0C04F101044FEA44525B
:1002E00012F5800F80F09A80BCF1004F08BF5FEAE2
:1002F000500C50F1000041EB045141EA050130BDC2
:100300005FEA4C0C404141EB0101013C28BFB1F5D3
:10031000801FE9D291F0000F04BF01460020B1FA1E
:1003200081F308BF2033A3F10B03B3F120020CDAF1
:100330000C3208DD02F1140CC2F10C0201FA0CF0CF
:1003400021FA02F10CE002F11402D8BFC2F1200C34
:1003500001FA02F120FA0CFCDCBF41EA0C019040EA
:10036000E41AA2BF01EB0451294330BD6FEA040433
:100370001F3C1CDA0C340EDC04F11404C4F120021E
:1003800020FA04F001FA02F340EA030021FA04F330
:1003900045EA030130BDC4F10C04C4F1200220FA87
:1003A00002F001FA04F340EA0300294630BD21FAC5
:1003B00004F0294630BD94F0000F83F4801306BF8B
:1003C00081F480110134013D4EE77FEA645C18BF7F
:1003D0007FEA655C29D094EA050F08BF90EA020F16
:1003E00005D054EA000C04BF1946104630BD91EA0E
:1003F000030F1EBF0021002030BD5FEA545C05D111
:100400004000494128BF41F0004130BD14F580044F
:100410003CBF01F5801130BD01F0004545F0FE41C3
:1004200041F470014FF0000030BD7FEA645C1ABFF8
:10043000194610467FEA655C1CBF0B46024650EA2F
:10044000013406BF52EA033591EA030F41F400215B
:1004500030BD00BF90F0000F04BF0021704730B5E1
:100460004FF4806404F132044FF000054FF00001B6
:1004700050E700BF90F0000F04BF0021704730B577
:100480004FF4806404F1320410F0004548BF40424C
:100490004FF000013EE700BF42004FEAE2014FEAA1
:1004A00031014FEA02701FBF12F07F4393F07F4F7C
:1004B00081F06051704732F07F4208BF704793F07F
:1004C0007F4F04BF41F40021704730B54FF4607492
:1004D00001F0004521F000411CE700BF50EA010295
:1004E00008BF704730B54FF000050AE050EA01023E
:1004F00008BF704730B511F0004502D5404261EBAE
:1005000041014FF4806404F132045FEA915C3FF4EE
:10051000D8AE4FF003025FEADC0C18BF03325FEA8B
:10052000DC0C18BF033202EBDC02C2F1200300FA3C
:1005300003FC20FA02F001FA03FE40EA0E0021FA61
:1005400002F11444BDE600BF70B54FF0FF0C4CF44F
:10055000E06C1CEA11541DBF1CEA135594EA0C0F01
:1005600095EA0C0F00F0DEF82C4481EA030621EA3C
:100570004C5123EA4C5350EA013518BF52EA033577
:1005800041F4801143F4801338D0A0FB02CE4FF029
:100590000005E1FB02E506F00042E0FB03E54FF059
:1005A0000006E1FB03569CF0000F18BF4EF0010E51
:1005B000A4F1FF04B6F5007F64F5407404D25FEA4D
:1005C0004E0E6D4146EB060642EAC62141EA555100
:1005D0004FEAC52040EA5E504FEACE2EB4F1FD0C42
:1005E00088BFBCF5E06F1ED8BEF1004F08BF5FEAC0
:1005F000500E50F1000041EB045170BD06F0004672
:1006000046EA010140EA020081EA0301B4EB5C041E
:10061000C2BFD4EB0C0541EA045170BD41F4801116
:100620004FF0000E013C00F3AB8014F1360FDEBF3B
:10063000002001F0004170BDC4F10004203C35DA17
:100640000C341BDC04F11404C4F1200500FA05F39A
:1006500020FA04F001FA05F240EA020001F000423B
:1006600021F0004110EBD37021FA04F642EB0601B1
:100670005EEA430E08BF20EAD37070BDC4F10C04DB
:10068000C4F1200500FA04F320FA05F001FA04F29F
:1006900040EA020001F0004110EBD37041F100018B
:1006A0005EEA430E08BF20EAD37070BDC4F1200596
:1006B00000FA05F24EEA020E20FA04F301FA05F2FE
:1006C00043EA020321FA04F001F0004121FA04F2A6
:1006D00020EA020000EBD3705EEA430E08BF20EA76
:1006E000D37070BD94F0000F0FD101F000464000B0
:1006F00041EB010111F4801F08BF013CF7D041EA32
:10070000060195F0000F18BF704703F00046520035
:1007100043EB030313F4801F08BF013DF7D043EA06
:100720000603704794EA0C0F0CEA135518BF95EABC
:100730000C0F0CD050EA410618BF52EA4306D1D143
:1007400081EA030101F000414FF0000070BD50EA62
:10075000410606BF1046194652EA430619D094EAEC
:100760000C0F02D150EA013613D195EA0C0F05D1D6
:1007700052EA03361CBF104619460AD181EA03012A
:1007800001F0004141F0FE4141F470014FF00000E2
:1007900070BD41F0FE4141F4780170BD70B54FF07D
:1007A000FF0C4CF4E06C1CEA11541DBF1CEA1355FD
:1007B00094EA0C0F95EA0C0F00F0A7F8A4EB0504DF
:1007C00081EA030E52EA03354FEA013100F08880D6
:1007D0004FEA03334FF0805545EA131343EA12639F
:1007E0004FEA022245EA111545EA10654FEA002654
:1007F0000EF000419D4208BF964244F1FD0404F50D
:10080000407402D25B084FEA3202B61A65EB030568
:100810005B084FEA32024FF480104FF4002CB6EB25
:10082000020E75EB030E22BFB61A754640EA0C00A5
:100830005B084FEA3202B6EB020E75EB030E22BFE5
:10084000B61A754640EA5C005B084FEA3202B6EB26
:10085000020E75EB030E22BFB61A754640EA9C00E5
:100860005B084FEA3202B6EB020E75EB030E22BFB5
:10087000B61A754640EADC0055EA060E18D04FEA73
:10088000051545EA16754FEA06164FEAC30343EA13
:1008900052734FEAC2025FEA1C1CC0D111F4801FE0
:1008A0000BD141EA00014FF000004FF0004CB6E7D9
:1008B00011F4801F04BF01430020B4F1FD0C88BF78
:1008C000BCF5E06F3FF6AFAEB5EB030C04BFB6EB83
:1008D000020C5FEA500C50F1000041EB045170BD76
:1008E0000EF0004E4EEA113114EB5C04C2BFD4EBA3
:1008F0000C0541EA045170BD41F480114FF0000E27
:10090000013C90E645EA060E8DE60CEA135594EAA2
:100910000C0F08BF95EA0C0F3FF43BAF94EA0C0FA5
:100920000AD150EA01347FF434AF95EA0C0F7FF41A
:1009300025AF104619462CE795EA0C0F06D152EA6E
:1009400003353FF4FDAE1046194622E750EA410652
:1009500018BF52EA43067FF4C5AE50EA41047FF463
:100960000DAF52EA43057FF4EBAE12E74FEA4102C6
:10097000B2F1E04324BFB3F5001CDCF1FE5C0DD9FD
:1009800001F0004C4FEAC0024CEA5070B2F1004F47
:1009900040EB830008BF20F00100704711F0804F4A
:1009A00021D113F13872BCBF01F00040704741F40F
:1009B00080114FEA5252C2F11802C2F1200C10FA13
:1009C0000CF320FA02F018BF40F001004FEAC123F7
:1009D0004FEAD32303FA0CFC40EA0C0023FA02F39B
:1009E0004FEA4303CCE77FEA625307D150EA013371
:1009F0001EBF4FF0FE4040F44000704701F0004041
:100A000040F0FE4040F40000704700BF80B485B065
:100A100000AFF860B9607A60FB68074A1A60BB688B
:100A2000064A1A607B6880221A6000BF1437BD46F0
:100A30005DF8047B704700BF2C0000208000002080
:100A4000B0B5B2B000AF01F0BBF800F025FA00F08D
:100A500057FB00F0F5FA00F083FA00F02FFBC24BD1
:100A600001225A60C04B0022DA60BF4B05229A6017
:100A7000BD4B00221A61BC4B00225A61BB4B0A22BB
:100A80001A80BA4BB3F900301B021AB2B74BB3F954
:100A900000301B121BB213431AB2B44B1A80B34B73
:100AA00003229A70B24AB34B03CB1060516019888D
:100AB0009B7811819372AD4B05225A730023C7F8BE
:100AC000B0300023C7F8B43007F1B003184606F081
:100AD00050F80346A84A13600023C7F8A830002343
:100AE000C7F8AC3007F1A8030121184606F0DEF87C
:100AF0000346A24A1360A24B07F18C041D460FCD9A
:100B00000FC495E8070084E8070007F18C03002173
:100B1000184605F0CEFF03469A4A13609A4B07F138
:100B200070041D460FCD0FC495E8070084E8070048
:100B300007F170030021184605F0BBFF0346934AF6
:100B40001360934B07F154041D460FCD0FC495E875
:100B5000070084E8070007F154030021184605F058
:100B6000A8FF03468B4A13608B4A8C4B144607CB75
:100B700020606160A2608A4A8A4B144607CB2060DD
:100B80006160A2601A889B78A281A373824B864A17
:100B900003F1190514460FCC28606960AA60EB6068
:100BA000206828617C4B1E22DA85804B03221A6064
:100BB0007F4B07F138041D460FCD0FC495E80700A1
:100BC00084E8070007F138030021184605F071FF9B
:100BD0000346784A1360784A784B144607CB206066
:100BE0006160A260764A6F4B144607CB206061605B
:100BF000A2601A889B78A281A373674B6A4A03F1AB
:100C0000490514460FCC28606960AA60EB60206833
:100C10002861614B4B22A3F85E20644B04225A608A
:100C2000684B07F11C041D460FCD0FC495E8070063
:100C300084E8070007F11C030121184605F039FF7D
:100C40000346614A1360544B604903F160020B464E
:100C500003CB1060516019889B78118193725C4AB4
:100C6000504B144607CB20606160A2601A889B78C5
:100C7000A281A373574A584B15461C460FCC2860D7
:100C80006960AA60EB602068286123792B75424B6C
:100C90003C22A3F88E20454B05229A604F4B3C46E0
:100CA0001D460FCD0FC495E8070084E807003B46BA
:100CB0000221184605F0FDFE0346494A1360002351
:100CC000C7F8C430DCE00023C7F8C0301CE0D7F818
:100CD000C42013465B0013441B019A1AD7F8C03096
:100CE000D1182D48D7F8C42013465B0013441B01CC
:100CF000C218D7F8C03013441A783A4B5A54D7F870
:100D0000C0300133C7F8C030D7F8C0300A2BDEDD61
:100D10000023C7F8BC301FE0D7F8C42013465B009F
:100D200013441B019B1A03F10B02D7F8BC30D118F6
:100D30001948D7F8C42013465B0013441B01C2189E
:100D4000D7F8BC3013440B331A78264B5A54D7F8D3
:100D5000BC300133C7F8BC30D7F8BC300D2BDBDD1D
:100D60000023C7F8B8305FE080020020941600200E
:100D7000971600209C930008D0130020FC1400203C
:100D800008940008C4150020249400085816002078
:100D90004094000860160020C8150020A8930008A1
:100DA000D3150020B4930008C49300089C140020BD
:100DB0005C940008A8140020F8150020D8930008BF
:100DC000031600207894000804150020E49300081E
:100DD0003316002041160020F09300089494000878
:100DE000A4160020DC130020D7F8C42013465B00B3
:100DF00013441B019B1A03F11902D7F8B830D1181C
:100E00002348D7F8C42013465B0013441B01C218C3
:100E1000D7F8B830134419331A781E4B5A54D7F800
:100E2000B8300133C7F8B830D7F8B830132BDBDD52
:100E30001749D7F8C42013465B0013441B010B4429
:100E40002E33B3F900301B1219B2D7F8C420134661
:100E50005B0013441B019B1A2D33C9B20D4AD154B8
:100E6000D7F8C42013465B0013441B019B1A2E3392
:100E7000084A0021D154D7F8C4300133C7F8C43030
:100E8000D7F8C430022B7FF71EAF05F00BFEFEE74C
:100E9000C8150020DC13002080B59EB000AF07F11C
:100EA000500328220021184608F04AFA07F13C03B3
:100EB00000221A605A609A60DA601A613B463C224E
:100EC0000021184608F03CFA03233B654FF4A023A9
:100ED0007B650023BB6501233B6610237B660223F1
:100EE000FB664FF480333B674FF480137B6707F159
:100EF0005003184603F0B0FF0346002B01D000F06A
:100F000073FC0F23FB6302233B6400237B644FF4D9
:100F10008063BB640023FB6407F13C030121184696
:100F200004F0A2FE0346002B01D000F05DFC0B4B49
:100F30003B604FF480737B620023FB614FF48003BE
:100F4000BB633B46184605F0D5F80346002B01D09D
:100F500000F04AFC00BF7837BD4680BDA00002000B
:100F600080B58AB000AF07F11C0300221A605A60F6
:100F70009A603B1D00221A605A609A60DA601A611A
:100F80005A612E4B4FF0A0421A602C4B00225A603F
:100F90002A4B00229A60294B00221A61274B00221B
:100FA0005A76264B002283F82020244B0022DA6256
:100FB000224B01229A62214B0022DA601F4B012250
:100FC000DA611E4B002283F830201C4B04225A6148
:100FD0001A4B00221A76194B00225A63174800F068
:100FE00025FE0346002B01D000F0FEFB0023FB6131
:100FF00007F11C031946114801F040FD0346002B80
:1010000001D000F0F1FB02237B600123BB600023D1
:101010003B610523FB6000237B610023BB613B1D1B
:101020001946064801F03EFA0346002B01D000F0B5
:10103000DBFB00BF2837BD4680BD00BF5415002034
:1010400080B500AF1B4B1C4A1A601A4B40F20B22B2
:101050005A60184B1A229A60164B0122DA60154B1F
:1010600000221A61134B00225A61124B00229A612E
:10107000104B0022DA610F4B00221A620D4802F079
:101080002FFA0346002B01D000F0AEFB00210948E7
:1010900003F06CFD0346002B01D000F0A5FB0021FE
:1010A000044803F0AEFD0346002B01D000F09CFB8A
:1010B00000BF80BDB01400200054004080B500AFD8
:1010C0000D4B0E4A1A600C4B08225A600A4B022242
:1010D0009A60094B02221A61074B00229A61064B63
:1010E00000221A62044803F0D8FD0346002B01D009
:1010F00000F07AFB00BF80BDE0160020005C0040DD
:1011000080B58AB000AF07F1140300221A605A605C
:101110009A60DA601A61404B5B693F4A43F40013FE
:1011200053613D4B5B6903F400133B613B693A4BF0
:101130005B69394A43F400235361374B5B6903F41D
:101140000023FB60FB68344B5B69334A43F4800344
:101150005361314B5B6903F48003BB60BB682E4B6A
:101160005B692D4A43F4003353612B4B5B6903F4F5
:1011700000337B607B68284B5B69274A43F48023FC
:101180005361254B5B6903F480233B603B6800227D
:101190004FF60871214802F08BF937237B614FF439
:1011A0009013BB610023FB6107F1140319461B4830
:1011B00002F004F84FF608737B610123BB61002342
:1011C000FB6100233B6207F114031946134801F049
:1011D000F5FF01237B610023BB610023FB6107F165
:1011E000140319464FF0904001F0E8FFE0237B61C3
:1011F0000223BB610023FB6103233B6205237B6267
:1012000007F1140319464FF0904001F0D7FF00BFDB
:101210002837BD4680BD00BF0010024000100048C6
:1012200080B582B000AF7860786802F0D1FB00BF73
:101230000837BD4680BD000080B582B000AF786041
:101240000B46FB7013463B80FB78002B07D14FF019
:10125000807301220749786802F016FB06E04FF020
:10126000807301220449786802F06AFA00BF0837E7
:10127000BD4680BDA8160020A916002080B582B00A
:1012800000AF7860044B1B68184605F041FD00BFB5
:101290000837BD4680BD00BFFC14002080B582B079
:1012A00000AF7860044B1B68184605F031FD00BFA5
:1012B0000837BD4680BD00BFFC14002000000000C0
:1012C000B0B584B000AF7860414A424B03CB1060A8
:1012D00051601B781372404A404B15461C460FCC98
:1012E00028606960AA60EB6007CC28616961AA6127
:1012F0002388AB833A4B3B4A1068186012791A7105
:10130000334B2822DA85384B1B686421184605F0D8
:1013100049FC364B10221A603449354801F0C2F8B6
:101320000346002B01D000F05FFA314800F05EFE6A
:1013300001212F4800F0A6FF2D4801F0A5F8F86024
:101340002B4800F069FF284B1B68184605F078FC15
:10135000F868FFF77FF818A3D3E90023FFF7F4F844
:1013600002460B4616A1D1E90001FEF735FF024601
:101370000B461046194614A3D3E90023FFF70EFAD3
:1013800002460B46104619464FF00002194BFEF775
:1013900025FF02460B4610461946FFF7E7FA0346BB
:1013A000154A53600A4BB3F92E30184605F0CDFBB1
:1013B000A9E700BFAFF300806666666666664A3FCF
:1013C000E17A14AE47E1F63F333333333333114020
:1013D00064160020B09400086F160020BC9400082A
:1013E0007D160020DC940008D0130020800200202D
:1013F000541500200000394038150020000000007E
:10140000B0B584B000AF7860374A384B15461C46FB
:101410000FCC28606960AA60EB6023882B82344A75
:10142000344B15461C460FCC28606960AA60EB60FF
:1014300023882B82304B314A1068186012791A7158
:10144000294B2822DA852E4B1B686421184605F0AB
:10145000A9FB2C4B04221A602A492B4801F022F8E0
:101460000346002B01D000F0BFF9274800F0BEFD75
:101470000121254800F006FF234801F005F8F86037
:10148000214800F0C9FE1E4B1B68184605F0D8FB2A
:10149000F868FEF7DFFF10A3D3E90023FFF754F845
:1014A00002460B46104619460DA3D3E90023FEF76A
:1014B00093FE02460B4610461946FFF757FA0346BD
:1014C000124AD360084BB3F92E30184605F03DFBA5
:1014D000B9E700BFAFF30080944AE837C054B53F86
:1014E0005C23DD2AE34C31406C140020E4940008B6
:1014F00077140020F894000885140020DC9400087C
:10150000D013002080020020541500203815002040
:1015100090B585B000AF7860294B1B6864211846F0
:1015200005F040FB7B68274A52F82330264A1360B7
:101530002549264800F0B6FF0346002B01D000F0F5
:1015400053F9224800F052FD0121204800F09AFE94
:101550001E4800F099FFF8601C4800F05DFE184B33
:101560001B68184605F06CFBF868FEF773FF12A3C2
:10157000D3E90023FEF7E8FF02460B461046194662
:101580007B681C1DFFF7F2F902461149A3000B44CA
:101590001A607A680F4913465B0013441B010B4421
:1015A0002E33B3F900301A464FF47A7303FB02F37B
:1015B000184605F0CAFAAFE70000000000C8E93F8E
:1015C000D01300209C14002080020020541500201D
:1015D00038150020C815002080B584B000AF7860B1
:1015E000714B00221A7002E0012005F0AEFA0122D0
:1015F0006D496E4802F004F80346002BF4D102E076
:10160000012005F0A2FA694802F058FA0346202B9F
:10161000F6D102E0012005F098FA012264496348FE
:1016200002F03EF80346002BF4D102E0012005F061
:101630008CFA5E4802F042FA0346202BF6D15C4B4E
:101640001A785B4B1A705A4B1B78012B16D102E0AB
:10165000012005F07AFA01225349544801F0D0FFE5
:101660000346002BF4D102E0012005F06EFA4F484A
:1016700002F024FA0346202BF6D1CEE74C4B1B7820
:10168000022B16D102E0012005F05FFA0E22494933
:10169000464801F0B5FF0346002BF4D102E00120DB
:1016A00005F053FA414802F009FA0346202BF6D11F
:1016B000B3E73F4B1B78032B16D102E0012005F066
:1016C00044FA8D223C49394801F09AFF0346002B29
:1016D000F4D102E0012005F038FA344802F0EEF9C6
:1016E0000346202BF6D198E7314B1B78042B48D1C9
:1016F0001A23BB600023FB6024E0304AFB689B0098
:101700001344D3ED007AFCEEE77AC7ED007AFB686C
:101710009B003A68D1B22A4AD154FB689B0001333E
:10172000274A0021D154FB689B000233244A002140
:10173000D154FB689B000333214A0021D154FB683C
:101740000133FB60FB68062BD7DD02E0012005F0CA
:10175000FCF9BB689BB21A461949144801F050FFC6
:101760000346002BF2D102E0012005F0EEF90F480C
:1017700002F0A4F90346202BF6D14EE7012005F034
:10178000E4F901220849094801F03AFF0346002B19
:10179000F4D102E0012005F0D8F9044802F08EF9F6
:1017A0000346202BF6D138E7A9160020B0140020FC
:1017B000A816002094160020DC1300203815002005
:1017C000A815002080B582B000AF78607B681B68E8
:1017D000044A934201D100F009FA00BF0837BD4620
:1017E00080BD00BF0010004080B400AF72B600BFE3
:1017F000FEE7000080B582B000AF114B9B69104A34
:1018000043F0010393610E4B9B6903F001037B607E
:101810007B680B4BDB690A4A43F08053D361084B6A
:10182000DB6903F080533B603B6800220F216FF0BF
:10183000010001F04DFC00BF0837BD4680BD00BF70
:101840000010024080B58CB000AF786007F11C0337
:1018500000221A605A609A60DA601A617B681B681D
:10186000B3F1A04F54D12C4B5B692B4A43F080530A
:101870005361294B5B6903F08053BB61BB69264B05
:101880005B69254A43F400235361234B5B6903F4EE
:1018900000237B617B69204B5B691F4A43F4003363
:1018A00053611D4B5B6903F400333B613B691A4B89
:1018B0005B69194A43F480035361174B5B6903F476
:1018C0008003FB60FB680F23FB6103233B62002363
:1018D0007B6207F11C031946104801F06FFC0E23D0
:1018E000FB6103233B6200237B6207F11C03194663
:1018F0004FF0904001F062FC1023FB6103233B6238
:1019000000237B6207F11C031946054801F056FCD1
:1019100000BF3037BD4680BD0010024000080048BF
:101920000014004880B58AB000AF786007F1140356
:1019300000221A605A609A60DA601A617B681B683C
:101940001B4A934230D11B4B5B691A4A43F48023F4
:101950005361184B5B6903F480233B613B694FF48F
:1019600040737B611223BB610123FB6103233B6254
:1019700004237B6207F1140319460F4801F01EFC93
:101980000C4BDB690B4A43F40013D361094BDB6951
:1019900003F40013FB60FB68002205211F2001F007
:1019A00097FB1F2001F0B0FB00BF2837BD4680BD6C
:1019B00000540040001002400004004880B58AB086
:1019C00000AF786007F1140300221A605A609A6031
:1019D000DA601A617B681B68184A934229D1184B58
:1019E0005B69174A43F400335361154B5B6903F499
:1019F00000333B613B694FF4C0537B610223BB6101
:101A00000023FB6103233B620E237B6207F1140377
:101A100019464FF0904001F0D1FB094BDB69084AB1
:101A200043F40003D361064BDB6903F40003FB605E
:101A3000FB6800BF2837BD4680BD00BF005C00408A
:101A40000010024080B58CB000AF78600023FB62CC
:101A50000023BB6200227968362001F039FB362072
:101A600001F052FB1F4BDB691E4A43F01003D361A8
:101A70001C4BDB6903F01003FB60FB6807F11002ED
:101A800007F114031146184604F002FB04F0DEFAD5
:101A900003465B00FB62FB6A134AA2FB03239B0C19
:101AA000013BBB62114B124A1A60104B40F2E73205
:101AB000DA600E4ABB6A53600C4B00221A610B4B72
:101AC00000229A60094804F0C5FC0346002B04D1AB
:101AD000064804F021FD034600E001231846303794
:101AE000BD4680BD0010024083DE1B43D01900209C
:101AF0000010004080B400AFFEE780B400AFFEE706
:101B000080B400AFFEE780B400AFFEE780B400AF62
:101B1000FEE780B400AF00BFBD465DF8047B7047B0
:101B200080B500AF024801F073FF00BF80BD00BF69
:101B3000B014002080B500AF024804F057FD00BF8C
:101B400080BD00BFD019002080B400AF064BD3F891
:101B50008830054A43F47003C2F8883000BFBD46A0
:101B60005DF8047B704700BF00ED00E0DFF834D083
:101B70000D480E490E4A002302E0D458C4500433E5
:101B8000C4188C42F9D30B4A0B4C002301E01360BC
:101B90000432A242FBD3FFF7D7FF07F09FFBFEF70B
:101BA0004FFFFEE700A000200000002010000020F2
:101BB0005495000810000020201A0020FEE70000C5
:101BC00080B500AF084B1B68074A43F01003136051
:101BD000032001F072FA0F20FFF734FFFFF70AFE2F
:101BE0000023184680BD00BF0020024080B400AF33
:101BF000064B1B781A46064B1B681344044A1360B5
:101C000000BFBD465DF8047B704700BF08000020A0
:101C10001C1A002080B400AF034B1B681846BD4659
:101C20005DF8047B704700BF1C1A002080B59AB095
:101C300000AF7860002387F8673000233B660023FD
:101C4000BB607B68002B01D10123C9E17B681B6964
:101C5000002B7B681B6C03F01003002B76D17B6894
:101C60001B6C002B52D17B6800225A647B680022D7
:101C7000DA647B6800229A647B68002283F83C2047
:101C80007868FFF7DFFD7B681B689B6803F0805373
:101C9000002B3BD1786801F047F8034687F867309E
:101CA0007B681B6C03F01003002B2FD197F8673073
:101CB000002B2BD17B681B6C23F4885323F0020389
:101CC00043F002027B681A647B681B689A687B6831
:101CD0001B6822F040529A607B681B689A687B6898
:101CE0001B6842F080529A60864B1B68864AA2FBB2
:101CF00003239A0C13469B0013445B00BB6002E075
:101D0000BB68013BBB60BB68002BF9D17B681B68DB
:101D10009B6803F08053002B07D07B681B689B688F
:101D200003F00053B3F1005F10D17B681B6C23F00C
:101D3000120343F010027B681A647B685B6C43F00B
:101D400001027B685A64012387F867307B681B6C4B
:101D500003F01003002B40F0368197F86730002B1A
:101D600040F031817B681B689B6803F00403002B03
:101D700040F029817B681B6C23F4817343F00202DD
:101D80007B681A647B681B68B3F1A04F04D07B6842
:101D90001B685E4A934201D15D4B00E05D4BFB65E1
:101DA0007B681B68B3F1A04F02D1584BFB601AE06F
:101DB0007B681B68554A934203D14FF0A043FB60F8
:101DC00011E07B681B68544A934202D1534BFB607D
:101DD00009E07B681B68514A934202D14E4BFB607D
:101DE00001E00023FB607B681B689B6803F0030332
:101DF000012B08D17B681B681B6803F00103012BD2
:101E000001D1012300E00023002B1CD1FB68002B33
:101E100010D0FB689B6803F00303012B07D1FB681C
:101E20001B6803F00103012B01D1012300E0002313
:101E3000002B08D1FB6D9B6823F440327B685B6804
:101E40001A43FB6D9A607B685B7E5B037A68526B1A
:101E5000012A02D04FF4805200E000221A437B682E
:101E6000DB681A437B689B6813433A6E13433B66F7
:101E70007B6893F82030012B1BD17B685B7E002BA5
:101E800009D17B685B6A013B5A043B6E134343F400
:101E900080333B660DE07B681B6C23F0220343F02C
:101EA00020027B681A647B685B6C43F001027B68EC
:101EB0005A647B689B6A012B3AD07B681B68164A80
:101EC000934204D07B681B68144A934228D17B68F4
:101ED0009B6AB3F5307F12D07B689B6AB3F5807F35
:101EE0000AD07B689B6AB3F5E07F02D07B689B6A6F
:101EF00018E04FF4807315E04FF4307312E04FF4A4
:101F0000E0730FE00000002083DE1B43000100505F
:101F1000000300500007005000040050000500506E
:101F20007B689B6A7A68D26A13433A6E13433B66B6
:101F30007B681B689B6803F00C03002B14D17B6843
:101F40001B68DB687A68126823F4804323F002037D
:101F5000D3607B681B7E9A037B6893F830305B000C
:101F600013433A6E13433B667B681B68DA681E4B6B
:101F700013407A681268396E0B43D3607B681B6923
:101F8000012B0CD17B681B681B6B23F00F017B6856
:101F9000DB695A1E7B681B680A431A6307E07B688B
:101FA0001B681A6B7B681B6822F00F021A637B6840
:101FB00000225A647B681B6C23F0030343F0010288
:101FC0007B681A640AE07B681B6C23F0120343F001
:101FD00010027B681A64012387F8673097F867302E
:101FE00018466837BD4680BD07C0F0FF80B584B095
:101FF00000AF78600023FB737B681B689B6803F06D
:102000000403002B40F0F9807B6893F83C30012BEF
:1020100001D10223F4E07B68012283F83C20786838
:1020200000F01EFE0346FB73FB7B002B40F0E080BC
:102030007B681B6C23F4706323F0010343F480720C
:102040007B681A647B681B68B3F1A04F04D07B687F
:102050001B686D4A934206D16C4B9B6803F01F03CB
:10206000002B10D005E06A4B9B6803F01F03002B88
:1020700009D07B681B68B3F1A04F04D07B681B6854
:10208000644A934215D17B681B6C23F480127B68F1
:102090001A647B681B68DB6803F00073002B36D082
:1020A0007B681B6C23F4405343F480527B681A64B2
:1020B0002DE07B681B6C43F480127B681A647B689C
:1020C0001B68B3F1A04F04D07B681B684E4A934253
:1020D0000AD14FF0A043DB6803F00073002B14BF5C
:1020E00001230023DBB208E04A4BDB6803F00073F6
:1020F000002B14BF01230023DBB2002B07D07B6829
:102100001B6C23F4405343F480527B681A647B6851
:102110001B6C03F48053B3F5805F06D17B685B6C66
:1021200023F006027B685A6402E07B6800225A644E
:102130007B68002283F83C207B681B681C221A60A5
:102140007B681B68B3F1A04F04D07B681B682E4AE4
:10215000934206D12D4B9B6803F01F03002B3ED00A
:1021600005E02B4B9B6803F01F03002B37D07B68E7
:102170001B68B3F1A04F04D07B681B68224A9342CE
:1021800006D1224B9B6803F01F03052B27D005E0E7
:102190001F4B9B6803F01F03052B20D07B681B6837
:1021A000B3F1A04F04D07B681B68174A934206D155
:1021B000164B9B6803F01F03092B10D005E0144B4E
:1021C0009B6803F01F03092B09D07B681B68B3F1E0
:1021D000A04F04D07B681B680E4A93420FD17B68E6
:1021E0001B689A687B681B6842F004029A6006E0EC
:1021F0007B68002283F83C2001E00223FB73FB7B19
:1022000018461037BD4680BD000100500003005045
:10221000000700500004005080B584B000AF786023
:102220000023FB737B6893F83C30012B01D1022320
:1022300023E07B68012283F83C206C21786800F061
:10224000D9FD0346FB73FB7B002B11D1786800F0AE
:102250006BFD0346FB73FB7B002B09D17B681B6C7A
:1022600023F4885323F0010343F001027B681A64CE
:102270007B68002283F83C20FB7B18461037BD4664
:1022800080BD000080B586B000AF78603960002363
:102290003B617B685B69082B02D108237B613AE0D4
:1022A0007B681B68B3F1A04F04D07B681B68724A3F
:1022B000934201D1714B00E0714BFB60FB689B685E
:1022C00003F01F03002B12D17B681B68DB6803F04F
:1022D0000103012B1DD17B681B6C43F020027B683E
:1022E0001A647B68002283F83C200123BFE0FB686E
:1022F0009B6803F44043002B0BD07B681B6C43F0BE
:1023000020027B681A647B68002283F83C2001234A
:10231000ADE00C237B617B681B68B3F1A04F04D058
:102320007B681B68544A934206D1544B9B6803F068
:102330001F03002B10D005E0514B9B6803F01F03D7
:10234000002B09D07B681B68B3F1A04F04D07B68D9
:102350001B684C4A934204D17B681B68DB683B6175
:102360000FE07B681B68B3F1A04F04D07B681B684B
:10237000414A934202D14FF0A04300E0414BDB6859
:102380003B61FFF747FCB86021E03B68B3F1FF3FDA
:102390001DD03B68002B07D0FFF73CFC0246BB6812
:1023A000D31A3A689A4212D27B681B681A687B6912
:1023B0001340002B0BD17B681B6C43F004027B683D
:1023C0001A647B68002283F83C2003234FE07B687B
:1023D0001B681A687B691340002BD6D07B681B6C86
:1023E00043F400727B681A647B681B68DB6803F443
:1023F0004063002B31D13B6903F40053002B2CD1F7
:102400007B681B681B6803F00803082B25D17B68D9
:102410001B689B6803F00403002B12D17B681B6CC4
:1024200023F480727B681A647B681B6C03F480530E
:10243000002B12D17B681B6C43F001027B681A648D
:102440000BE07B681B6C43F020027B681A647B689E
:102450005B6C43F001027B685A643B6903F4804380
:10246000002B03D17B681B687A691A600023184629
:102470001837BD4680BD00BF00010050000300506A
:10248000000700500004005080B483B000AF7860B3
:102490007B681B681B6C18460C37BD465DF8047BD7
:1024A0007047000080B49BB000AF786039600023B3
:1024B00087F867300023BB607B6893F83C30012BC2
:1024C00001D10223CBE27B68012283F83C207B68A8
:1024D0001B689B6803F00403002B40F0AF823B684D
:1024E0005B68042B1CD87B681B68196B3B685A68B7
:1024F00013465B0013445B001A461F239340DB43E3
:1025000019403B6818683B685A6813465B001344DF
:102510005B0000FA03F27B681B680A431A6363E0FE
:102520003B685B68092B1ED87B681B68596B3B684E
:102530005A6813465B0013445B001E3B1F2202FADD
:1025400003F3DB4319403B6818683B685A6813463D
:102550005B0013445B001E3B00FA03F27B681B68C0
:102560000A435A6340E03B685B680E2B1ED87B68C9
:102570001B68996B3B685A6813465B0013445B0009
:102580003C3B1F2202FA03F3DB4319403B68186807
:102590003B685A6813465B0013445B003C3B00FAFF
:1025A00003F27B681B680A439A631DE07B681B6823
:1025B000D96B3B685A6813465B0013445B005A3B77
:1025C0001F2202FA03F3DB4319403B6818683B689B
:1025D0005A6813465B0013445B005A3B00FA03F24F
:1025E0007B681B680A43DA637B681B689B6803F09F
:1025F0000C03002B40F0E5803B681B68092B1CD9BD
:102600007B681B6899693B681A6813465B00134432
:102610001E3B072202FA03F3DB4319403B6898682C
:102620003B681A6813465B0013441E3B00FA03F232
:102630007B681B680A439A6119E07B681B685969CB
:102640003B681A6813465B001344072202FA03F33F
:10265000DB4319403B6898683B681A6813465B0087
:10266000134400FA03F27B681B680A435A613B6813
:102670005A697B681B68DB68DB0803F003035B00B7
:1026800002FA03F33B663B681B69013B032B4FD8FF
:1026900001A252F823F000BFA9260008CB260008AB
:1026A000ED2600080F2700087B681B681A6E9F4BF9
:1026B00013403A68126891063A6E0A431A437B68DF
:1026C0001B6842F000421A667EE07B681B685A6E07
:1026D000964B13403A68126891063A6E0A431A43C1
:1026E0007B681B6842F000425A666DE07B681B689D
:1026F0009A6E8E4B13403A68126891063A6E0A43FE
:102700001A437B681B6842F000429A665CE07B6873
:102710001B68DA6E854B13403A68126891063A6E70
:102720000A431A437B681B6842F00042DA664BE0BA
:102730007B681B681B6E03F0F8423B681B689B06B6
:102740009A4207D17B681B681A6E7B681B6822F06F
:1027500000421A667B681B685B6E03F0F8423B68B8
:102760001B689B069A4207D17B681B685A6E7B6880
:102770001B6822F000425A667B681B689B6E03F060
:10278000F8423B681B689B069A4207D17B681B682E
:102790009A6E7B681B6822F000429A667B681B6811
:1027A000DB6E03F0F8423B681B689B069A420AD135
:1027B0007B681B68DA6E7B681B6822F00042DA6671
:1027C00001E000BF00E000BF7B681B689B6803F06E
:1027D0000303012B08D17B681B681B6803F001030E
:1027E000012B01D1012300E00023002B40F03181B7
:1027F0003B68DB68012B0FD07B681B68D3F8B010F7
:102800003B681B68012202FA03F3DA437B681B680A
:102810000A40C3F8B02049E07B681B68D3F8B010C9
:102820003B681B6801229A407B681B680A43C3F817
:10283000B0203B681B68092B1CD97B681B68996911
:102840003B681A6813465B0013441B3B072202FADD
:1028500003F3DB4319403B6898683B681A681346EA
:102860005B0013441B3B00FA03F27B681B680A43BE
:102870009A611BE07B681B6859693B681B685A1C9E
:1028800013465B001344072202FA03F3DB431940AB
:102890003B6898683B681B685A1C13465B001344EE
:1028A00000FA03F27B681B680A435A617B681B6865
:1028B000B3F1A04F04D07B681B681D4A934201D13D
:1028C0001C4B00E01C4BFB653B681B68102B05D1C3
:1028D000FB6D9B6803F40003002B15D03B681B685D
:1028E000112B05D1FB6D9B6803F08073002B0BD07F
:1028F0003B681B68122B40F0AC80FB6D9B6803F4B7
:102900008003002B40F0A5807B681B68B3F1A04FCB
:1029100002D1074BFB6023E07B681B68044A9342AB
:102920000CD14FF0A043FB601AE000BF00F0FF8322
:102930000001005000030050000700507B681B6836
:102940004A4A934202D14A4BFB6009E07B681B680C
:10295000474A934202D1454BFB6001E00023FB60F4
:102960007B681B689B6803F00303012B08D17B681D
:102970001B681B6803F00103012B01D1012300E058
:102980000023002B50D1FB68002B10D0FB689B6804
:1029900003F00303012B07D1FB681B6803F001035D
:1029A000012B01D1012300E00023002B3CD13B6827
:1029B0001B68102B1DD17B681B68B3F1A04F18D189
:1029C000FB6D9B6843F40002FB6D9A60294B1B680A
:1029D000294AA2FB03239A0C13469B0013445B0075
:1029E000BB6002E0BB68013BBB60BB68002BF9D158
:1029F0002EE03B681B68112B0BD17B681B68B3F181
:102A0000A04F06D1FB6D9B6843F08072FB6D9A600E
:102A10001EE03B681B68122B1AD1FB6D9B6843F4C8
:102A20008002FB6D9A6013E07B681B6C43F0200210
:102A30007B681A64012387F867300AE07B681B6CA7
:102A400043F020027B681A64012387F8673000E0B6
:102A500000BF7B68002283F83C2097F86730184657
:102A60006C37BD465DF8047B704700BF0004005022
:102A7000000500500000002083DE1B4380B499B0A5
:102A800000AF78603960002387F85F307B681B688F
:102A9000B3F1A04F02D16D4BBB601AE07B681B689D
:102AA0006A4A934203D14FF0A043BB6011E07B68B8
:102AB0001B68674A934202D1664BBB6009E07B68A2
:102AC0001B68644A934202D1614BBB6001E0002362
:102AD000BB60BB68002B01D10123B0E07B6893F899
:102AE0003C30012B01D10223A9E07B68012283F84D
:102AF0003C207B681B689B6803F00403002B40F0BC
:102B00008D80BB689B6803F00403002B40F0868037
:102B10007B681B68B3F1A04F04D07B681B684B4AED
:102B2000934201D14C4B00E04C4BBB653B681B68AA
:102B3000002B40D0BB6D9B6823F460423B68596812
:102B40007B6893F830305B030B431A43BB6D9A608C
:102B50007B681B689B6803F00303012B08D17B682B
:102B60001B681B6803F00103012B01D1012300E066
:102B70000023002B5CD1BB689B6803F00303012B8F
:102B800007D1BB681B6803F00103012B01D10123AE
:102B900000E00023002B4BD1BB6D9B6823F47163D5
:102BA00023F00F033A6811683A6892680A431A439F
:102BB000BB6D9A603CE0BB6D9B6823F46042BB6DCB
:102BC0009A607B681B689B6803F00303012B08D1A4
:102BD0007B681B681B6803F00103012B01D10123F3
:102BE00000E00023002B23D1BB689B6803F00303A4
:102BF000012B07D1BB681B6803F00103012B01D136
:102C0000012300E00023002B12D1BB6D9B6823F44D
:102C1000716323F00F03BA6D936009E07B681B6C4E
:102C200043F020027B681A64012387F85F3000E0DC
:102C300000BF7B68002283F83C2097F85F3018467D
:102C40006437BD465DF8047B704700BF000100504B
:102C50000004005000050050000300500007005021
:102C600080B584B000AF78600023FB607B681B6890
:102C70009B6803F00303012B08D17B681B681B686A
:102C800003F00103012B01D1012300E00023002BFD
:102C900043D17B681B689A68224B1340002B0DD0F0
:102CA0007B681B6C43F010027B681A647B685B6C6A
:102CB00043F001027B685A6401232FE07B681B68A4
:102CC0009A687B681B6842F001029A60FEF7A2FFD7
:102CD000F8601BE0FEF79EFF0246FB68D31A022B4A
:102CE00014D97B681B681B6803F00103012B0DD00E
:102CF0007B681B6C43F010027B681A647B685B6C1A
:102D000043F001027B685A64012307E07B681B687B
:102D10001B6803F00103012BDCD100231846103798
:102D2000BD4680BD3F00008080B584B000AF7860B4
:102D30000023FB607B681B689B6803F00303012B87
:102D400008D17B681B681B6803F00103012B01D1CC
:102D5000012300E00023002B47D07B681B689B68A1
:102D600003F00D03012B0FD17B681B689A687B6809
:102D70001B6842F002029A607B681B6803221A609B
:102D8000FEF748FFF86029E07B681B6C43F01002F7
:102D90007B681A647B685B6C43F001027B685A6451
:102DA000012323E0FEF736FF0246FB68D31A022B0D
:102DB00014D97B681B689B6803F00103012B0DD1BC
:102DC0007B681B6C43F010027B681A647B685B6C49
:102DD00043F001027B685A64012307E07B681B68AB
:102DE0009B6803F00103012BDCD000231846103749
:102DF000BD4680BD80B586B000AF786039600023E5
:102E00007B610023FB6000233B617B681B689B6840
:102E100003F00C03002B00F09B807B681B68DB68D1
:102E200003F00073B3F1007F2AD17B685B7E012B36
:102E300026D17B681B7E012B22D10C233B6014E042
:102E40003B69464A93420DD97B681B6C43F01002E4
:102E50007B681A647B685B6C43F001027B685A6490
:102E6000012376E03B6901333B617B681B681B688B
:102E700003F04003402BE3D17B681B6840221A60BB
:102E80003B68602B15D07B681B689B6803F00403CC
:102E9000042B0ED17B681B689B6803F00203002B98
:102EA00007D17B681B689A687B681B6842F0100238
:102EB0009A603B680C2B15D07B681B689B6803F0FD
:102EC0000803082B0ED17B681B689B6803F0020384
:102ED000002B07D17B681B689A687B681B6842F0EF
:102EE00020029A603B68602B05D03B686C2B05D1B3
:102EF0000C237B6105E008237B6102E004237B61F6
:102F000000BFFEF787FEF8601BE0FEF783FE024677
:102F1000FB68D31A0B2B14D97B681B689A687B69F2
:102F20001340002B0DD07B681B6C43F010027B68B4
:102F30001A647B685B6C43F001027B685A6401236E
:102F400007E07B681B689A687B691340002BDCD123
:102F5000002318461837BD4680BD00BFFF93090007
:102F600080B485B000AF78607B6803F00703FB6036
:102F70000C4BDB68BB60BA684FF6FF031340BB60C5
:102F8000FB681A02BB68134343F0BF6343F400338A
:102F9000BB60044ABB68D36000BF1437BD465DF810
:102FA000047B704700ED00E080B400AF044BDB68A9
:102FB0001B0A03F007031846BD465DF8047B704703
:102FC00000ED00E080B483B000AF0346FB7197F9D9
:102FD0000730002B0BDBFB7903F01F02074997F941
:102FE00007305B09012000FA02F241F8232000BFFC
:102FF0000C37BD465DF8047B704700BF00E100E080
:1030000080B483B000AF03463960FB7197F9073095
:10301000002B0ADB3B68DAB20C4997F90730120142
:10302000D2B20B4483F800230AE03B68DAB20849C5
:10303000FB7903F00F03043B1201D2B20B441A7662
:1030400000BF0C37BD465DF8047B704700E100E02F
:1030500000ED00E080B489B000AFF860B9607A603C
:10306000FB6803F00703FB61FB69C3F10703042B53
:1030700028BF0423BB61FB690433062B02D9FB691B
:10308000033B00E000237B614FF0FF32BB6902FA93
:1030900003F3DA43BB681A407B699A404FF0FF3173
:1030A0007B6901FA03F3D9437B680B40134318464D
:1030B0002437BD465DF8047B704780B582B000AF11
:1030C00078607868FFF74CFF00BF0837BD4680BDC9
:1030D00080B586B000AF0346B9607A60FB73002309
:1030E0007B61FFF761FF78617A68B9687869FFF7FB
:1030F000B1FF024697F90F3011461846FFF780FFDF
:1031000000BF1837BD4680BD80B582B000AF034612
:10311000FB7197F907301846FFF754FF00BF0837D7
:10312000BD4680BD80B584B000AF78600023FB73DE
:103130007B6893F82130022B05D07B6804229A63C8
:103140000123FB7327E07B681B681A687B681B6898
:1031500022F00E021A607B681B681A687B681B6885
:1031600022F001021A607B681A6C7B68DB6B01211C
:1031700001FA02F25A607B68012283F821207B6801
:10318000002283F820207B685B6B002B03D07B68D8
:103190005B6B78689847FB7B18461037BD4680BD4F
:1031A00080B483B000AF78607B6893F82130184614
:1031B0000C37BD465DF8047B7047000080B487B0D3
:1031C00000AF7860396000237B6154E13B681A6886
:1031D00001217B6901FA03F31340FB60FB68002BBC
:1031E00000F046813B685B6803F00303012B05D0C8
:1031F0003B685B6803F00303022B30D17B689B685C
:103200003B617B695B00032202FA03F3DB433A690B
:1032100013403B613B68DA687B695B0002FA03F3A9
:103220003A6913433B617B683A699A607B685B68E3
:103230003B6101227B6902FA03F3DB433A691340E5
:103240003B613B685B681B0903F001027B6902FA82
:1032500003F33A6913433B617B683A695A603B6800
:103260005B6803F00303032B17D07B68DB683B61CB
:103270007B695B00032202FA03F3DB433A691340E4
:103280003B613B689A687B695B0002FA03F33A6929
:1032900013433B617B683A69DA603B685B6803F023
:1032A0000303022B23D17B69DA087B68083253F8C9
:1032B00022303B617B6903F007039B000F2202FA77
:1032C00003F3DB433A6913403B613B681A697B694E
:1032D00003F007039B0002FA03F33A6913433B61CF
:1032E0007B69DA087B680832396943F822107B6809
:1032F0001B683B617B695B00032202FA03F3DB433B
:103300003A6913403B613B685B6803F003027B69E9
:103310005B0002FA03F33A6913433B617B683A6945
:103320001A603B685B6803F44033002B00F0A08018
:10333000584B9B69574A43F001039361554B9B6976
:1033400003F00103BB60BB68534A7B699B080233EF
:1033500052F823303B617B6903F003039B000F228B
:1033600002FA03F3DB433A6913403B617B68B3F134
:10337000904F19D07B68494A934213D07B68484AE2
:1033800093420DD07B68474A934207D07B68464AF8
:10339000934201D1042308E0052306E0032304E05F
:1033A000022302E0012300E000237A6902F0030215
:1033B000920093403A6913433B6137497B699B080C
:1033C00002333A6941F82320384B1B683B61FB68A4
:1033D000DB433A6913403B613B685B6803F480332D
:1033E000002B03D03A69FB6813433B612F4A3B69CA
:1033F00013602E4B5B683B61FB68DB433A6913400B
:103400003B613B685B6803F40033002B03D03A69EF
:10341000FB6813433B61254A3B695360234B9B6820
:103420003B61FB68DB433A6913403B613B685B6887
:1034300003F48013002B03D03A69FB6813433B610C
:103440001A4A3B699360194BDB683B61FB68DB43BD
:103450003A6913403B613B685B6803F40013002B3F
:1034600003D03A69FB6813433B61104A3B69D36060
:103470007B6901337B613B681A687B6922FA03F33D
:10348000002B7FF4A3AE00BF00BF1C37BD465DF824
:10349000047B704700100240000001400004004817
:1034A00000080048000C00480010004800040140DB
:1034B00080B483B000AF78600B467B8013467B708E
:1034C0007B78002B03D07A887B689A6102E07A8847
:1034D0007B689A6200BF0C37BD465DF8047B70477D
:1034E00080B582B000AF78607B68002B01D10123EA
:1034F00081E07B6893F84130DBB2002B06D17B681A
:10350000002283F840207868FEF70CFA7B682422BA
:1035100083F841207B681B681A687B681B6822F06F
:1035200001021A607B685A687B681B6822F070622F
:103530001A617B681B689A687B681B6822F40042EA
:103540009A607B68DB68012B07D17B689A687B688F
:103550001B6842F400429A6006E07B689A687B68C8
:103560001B6842F404429A607B68DB68022B04D13A
:103570007B681B684FF400625A607B681B685B685D
:103580007A68126843F0007343F4004353607B6829
:103590001B68DA687B681B6822F40042DA607B688B
:1035A0001A697B685B6942EA03017B689B691A02BE
:1035B0007B681B680A43DA607B68D9697B681A6A92
:1035C0007B681B680A431A607B681B681A687B6803
:1035D0001B6842F001021A607B6800225A647B6813
:1035E000202283F841207B6800221A637B68002236
:1035F00083F84220002318460837BD4680BD0000EE
:1036000080B584B000AFF860B9601346FB80FB68FA
:1036100093F84130DBB2202B39D1FB6893F840306E
:10362000012B01D1022333E0FB68012283F8402003
:10363000FB68212283F84120FB68202283F8422086
:10364000FB6800225A64FB681B685A68FB681B68A9
:1036500022F400425A60FB68BA685A62FB68FA8832
:103660005A85FB685B8D9AB2FB681A85FB680A4A2B
:10367000DA62FB68094A5A63FB68002283F840203B
:1036800048F20101F86801F0AFF9002300E00223DD
:1036900018461037BD4680BD0000FFFFD93A00082C
:1036A00080B584B000AFF860B9601346FB80FB685A
:1036B00093F84130DBB2202B39D1FB6893F84030CE
:1036C000012B01D1022333E0FB68012283F8402063
:1036D000FB68222283F84120FB68202283F84220E5
:1036E000FB6800225A64FB681B685A68FB681B6809
:1036F00022F400425A60FB68BA685A62FB68FA8892
:103700005A85FB685B8D9AB2FB681A85FB680A4A8A
:10371000DA62FB68094A5A63FB68002283F840209A
:1037200048F20201F86801F05FF9002300E002238B
:1037300018461037BD4680BD0000FFFFD93A00088B
:1037400080B584B000AFF860B9603B601346FB8081
:10375000FB6893F84130DBB203F02803282B40F0DC
:103760008A80BB68002B02D0FB88002B05D1FB6848
:103770004FF400725A6401237EE048F20101F868B8
:1037800001F096F9FB6893F84030012B01D1022338
:1037900072E0FB68012283F84020FB6893F8413017
:1037A000DBB22A2B2AD10221F86801F081F9FB68EB
:1037B0001B681B6803F40043B3F5004F1ED1FB6880
:1037C0001B681A68FB681B6822F400421A60FB68D9
:1037D000DB6B002B12D0FB68DB6B294A5A63FB685A
:1037E000DB6B1846FFF79EFC0346002B06D0FB68F8
:1037F000DB6B5B6BFA68D26B10469847FB6829223B
:1038000083F84120FB68202283F84220FB680022D5
:103810005A64FB681B685A68FB681B6822F4004204
:103820005A60FB68BA685A62FB68FA885A85FB6876
:103830005B8D9AB2FB681A85FB683A68DA62FB68AE
:10384000104A5A63FB681B689B691B0CDBB203F0D0
:103850000103DBB2012B03D1FB681B680822DA618C
:10386000FB68002283F8402048F20101F86801F06B
:10387000BBF8002300E0012318461037BD4680BD89
:103880004F490008D93A000880B584B000AFF8600D
:10389000B9603B601346FB80FB6893F84130DBB2B4
:1038A00003F02803282B40F08A80BB68002B02D04D
:1038B000FB88002B05D1FB684FF400725A6401238A
:1038C0007EE048F20201F86801F0F2F8FB6893F834
:1038D0004030012B01D1022372E0FB68012283F802
:1038E0004020FB6893F84130DBB2292B2AD101211B
:1038F000F86801F0DDF8FB681B681B6803F480437F
:10390000B3F5804F1ED1FB681B681A68FB681B6803
:1039100022F480421A60FB689B6B002B12D0FB687C
:103920009B6B294A5A63FB689B6B1846FFF7FAFBAF
:103930000346002B06D0FB689B6B5B6BFA68926BAF
:1039400010469847FB682A2283F84120FB68202212
:1039500083F84220FB6800225A64FB681B685A689F
:10396000FB681B6822F400425A60FB68BA685A621E
:10397000FB68FA885A85FB685B8D9AB2FB681A85EA
:10398000FB683A68DA62FB68104A5A63FB681B6896
:103990009B691B0CDBB203F00103DBB2002B03D1EC
:1039A000FB681B680822DA61FB68002283F840206C
:1039B00048F20201F86801F017F8002300E0012343
:1039C00018461037BD4680BD4F490008D93A000857
:1039D00080B582B000AF78607B6893F84130DBB28D
:1039E000202B0DD17B68282283F841207B68074A71
:1039F0005A634FF40041786800F0F6FF002300E0BE
:103A0000022318460837BD4680BD00BFD93A0008DA
:103A100080B584B000AF78607B681B689B69FB60F1
:103A20007B681B681B68BB607B685B6B002B05D0E9
:103A30007B685B6BBA68F9687868984700BF103795
:103A4000BD4680BD80B483B000AF786000BF0C3746
:103A5000BD465DF8047B704780B483B000AF7860EA
:103A600000BF0C37BD465DF8047B704780B483B05F
:103A700000AF786000BF0C37BD465DF8047B70472F
:103A800080B483B000AF786000BF0C37BD465DF8EE
:103A9000047B704780B483B000AF786000BF0C3700
:103AA000BD465DF8047B704780B483B000AF78609A
:103AB00000BF0C37BD465DF8047B704780B483B00F
:103AC00000AF78607B6893F84130DBB218460C3762
:103AD000BD465DF8047B704780B586B000AFF860E6
:103AE000B9607A60FB68DB6A7B61BB683B61FB683D
:103AF00093F84030012B01D10223ECE0FB68012256
:103B000083F840203B695B0903F00103002B09D0D7
:103B10007B685B0903F00103002B03D03969F86867
:103B200000F09AFC3B691B0903F00103002B4DD008
:103B30007B681B0903F00103002B47D0FB685B8DFA
:103B40009BB2002B28D1FB6893F84130DBB2282BC5
:103B500008D17B69B3F1007F04D13969F86800F0BE
:103B600085FD32E0FB6893F84130DBB2292B0ED1A2
:103B70007B6913F5803F0AD0FB681B681022DA616D
:103B8000F86800F0C0FEF86800F03DFB1DE0FB683F
:103B90001B681022DA6196E0FB681B681022DA616C
:103BA000FB685B6C43F00402FB685A647B69002B82
:103BB00004D07B69B3F1807F40F08580FB685B6C4B
:103BC0001946F86800F0A8FD7DE07CE03B699B08A1
:103BD00003F00103002B30D07B689B0803F0010346
:103BE000002B2AD0FB685B8D9BB2002B18D0FB68A2
:103BF0001B685A6AFB685B6AD2B21A70FB685B6A20
:103C00005A1CFB685A62FB681B8D013B9AB2FB6829
:103C10001A85FB685B8D9BB2013B9AB2FB685A85A3
:103C2000FB685B8D9BB2002B4FD17B6913F5803F06
:103C30004BD0F86800F0E7FA47E03B69DB0803F097
:103C40000103002B0AD07B68DB0803F00103002B83
:103C500004D03969F86800F015FA37E03B695B0871
:103C600003F00103002B31D07B685B0803F00103F4
:103C7000002B2BD0FB685B8D9BB2002B18D0FB6810
:103C80005B6A1A78FB681B689A62FB685B6A5A1C5D
:103C9000FB685A62FB685B8D9BB2013B9AB2FB6882
:103CA0005A85FB681B8D013B9AB2FB681A850DE0B3
:103CB0007B69B3F1807F02D07B69002B06D1F86865
:103CC00000F0A1FA02E000BF00E000BFFB680022A4
:103CD00083F84020002318461837BD4680BD80B5C4
:103CE00088B002AFF860B9607A60FB6893F8403042
:103CF000012B01D10223E1E0FB68012283F840207F
:103D0000BB681B0903F00103002B17D07B681B095C
:103D100003F00103002B11D0FB681B681022DA614D
:103D2000FB685B6C43F00402FB685A642021F8686E
:103D300000F05AFEF86800F0E6FDBAE0BB68DB0967
:103D400003F00103002B72D07B689B0903F0010391
:103D5000002B6CD0FB681B681A68FB681B6822F09C
:103D600040021A60FB685B8D9BB2002B4ED0FB6853
:103D70001B685B689BB2C3F309037B82FB685B8DA6
:103D80009BB2FF2B06D9FB68FF221A854FF0807388
:103D90007B6110E0FB685B8D9AB2FB681A85FB685B
:103DA000DB6A13F5803F03D0FB68DB6A7B6102E0CE
:103DB0004FF000737B61FB681B8DDAB2798A0023B8
:103DC00000937B69F86800F0E1FDFB685B8D9AB2B7
:103DD000FB681B8DD31A9AB2FB685A85FB6893F86F
:103DE0004130DBB2222B08D1FB681B681A68FB68E4
:103DF0001B6842F400421A605BE0FB681B681A68AB
:103E0000FB681B6842F480421A6052E0FB681B6842
:103E10005B6803F00073B3F1007F03D0F86800F033
:103E2000B5F946E04021F86800F076FC41E0BB6857
:103E30009B0903F00103002B29D07B689B0903F049
:103E40000103002B23D0FB685B8D9BB2002B19D1A3
:103E5000FB681B685B6803F00073B3F1007F27D039
:103E6000FB68DB6A13F5803F08D1FB681B685A6862
:103E7000FB681B6842F480425A6019E0F86800F061
:103E800085F915E04021F86800F046FC10E0BB68B9
:103E90005B0903F00103002B0BD07B685B0903F087
:103EA0000103002B05D0B968F86800F00BFA00E0B8
:103EB00000BFFB68002283F8402000231846183713
:103EC000BD4680BD80B588B000AFF860B9607A604B
:103ED000FB68DB6ABB610023FB61FB6893F8403041
:103EE000012B01D10223C9E0FB68012283F84020A5
:103EF000BB685B0903F00103002B09D07B685B09F9
:103F000003F00103002B03D0B968F86800F0A4FAAD
:103F1000BB681B0903F00103002B00F09A807B684B
:103F20001B0903F00103002B00F093807B689B0BBF
:103F300003F00103002B05D17B68DB0B03F00103C9
:103F4000002B7FD0FB68DB6B002B0DD07B68DB0B7D
:103F500003F00103002B07D0FB68DB6B1B685B6879
:103F6000002B01D10123FB61FB689B6B002B0DD063
:103F70007B689B0B03F00103002B07D0FB689B6B56
:103F80001B685B68002B01D10123FB61FB69012BDE
:103F900028D1FB6893F84130DBB2282B08D1BB69EC
:103FA000B3F1007F04D1B968F86800F05FFB48E026
:103FB000FB6893F84130DBB2292B0ED1BB6913F5B6
:103FC000803F0AD0FB681B681022DA61F86800F0B5
:103FD0009AFCF86800F017F933E0FB681B681022C0
:103FE000DA6134E0FB681B681022DA61FB685B6C05
:103FF00043F00402FB685A64FB6893F84130FB7598
:10400000BB69002B03D0BB69B3F1807F1FD1FB7D5F
:10401000212B02D0FB7D292B03D1FB6821221A63BF
:1040200008E0FB7D222B02D0FB7D2A2B02D1FB680E
:1040300022221A63FB685B6C1946F86800F06CFB7F
:1040400005E004E0FB681B681022DA6111E000BFA4
:104050000FE0BB68DB0803F00103002B09D07B688D
:10406000DB0803F00103002B03D0B968F86800F007
:1040700009F8FB68002283F8402000231846203707
:10408000BD4680BD80B584B000AF786039607B6884
:1040900093F84130DBB203F02803282B6AD17B6808
:1040A0001B689B691B0CDBB203F00103FB737B688D
:1040B0001B689B691B0C9BB203F0FE03BB817B68F2
:1040C0001B689B689BB2C3F309037B817B681B68F9
:1040D000DB689BB203F0FE033B817B68DB68022B4D
:1040E00038D17B89DB099AB2BB8953409BB203F07C
:1040F0000603002B1CD17B89BB817B689B6C5A1CFF
:104100007B689A647B689B6C022B3BD17B680022A6
:104110009A647B681B680822DA617B68002283F856
:104120004020BA89FB7B19467868FDF785F829E0BD
:104130003B89BB814FF40041786800F0B9FC7B6893
:10414000002283F84020BA89FB7B19467868FDF786
:1041500073F817E04FF40041786800F0A9FC7B6821
:10416000002283F84020BA89FB7B19467868FDF766
:1041700063F807E07B681B680822DA617B6800222D
:1041800083F8402000BF1037BD4680BD80B582B0A7
:1041900000AF78607B68002283F842207B6893F848
:1041A0004130DBB2212B15D17B68202283F84120DE
:1041B0007B6811221A637B6800225A6301217868A8
:1041C00000F076FC7B68002283F840207868FFF7D7
:1041D00039FC14E07B68202283F841207B6812229E
:1041E0001A637B6800225A630221786800F060FC41
:1041F0007B68002283F840207868FFF72DFC00BF21
:104200000837BD4680BD80B584B000AF78607B685C
:104210001B681B68FB607B68002283F84220FB68F8
:104220009B0B03F00103002B08D07B681B681A6806
:104230007B681B6822F480421A600DE0FB68DB0B90
:1042400003F00103002B07D07B681B681A687B68AA
:104250001B6822F400421A607B6893F84130DBB29D
:10426000292B12D17B68282283F841207B682122E8
:104270001A630121786800F01BFC7B68002283F838
:1042800040207868FDF70AF817E07B6893F8413022
:10429000DBB22A2B11D17B68282283F841207B686E
:1042A00022221A630221786800F002FC7B68002257
:1042B00083F840207868FCF7E1FF00BF1037BD4667
:1042C00080BD000080B586B000AF786039603B6883
:1042D0007B617B681B682022DA617B6893F8413040
:1042E000DBB2212B07D10121786800F0E1FB7B686C
:1042F00011221A630CE07B6893F84130DBB2222B69
:1043000006D10221786800F0D3FB7B6812221A6381
:104310007B681B6859687B681A684D4B0B4053607B
:104320007B6800225A637B684A4ADA627B691B0910
:1043300003F00103002B09D07B681B681022DA61AF
:104340007B685B6C43F004027B685A647B6893F87B
:104350004130DBB2602B0BD17B699B0803F001037A
:10436000002B05D07B681B685B6ADBB2FB60FB68D7
:10437000786800F0C8FA7B685B6C3B617B6893F8F7
:104380004130DBB2602B02D03B69002B06D07B684A
:104390005B6C1946786800F0BFF954E07B6893F8CD
:1043A0004130DBB2212B24D17B68202283F84120CD
:1043B0007B6800221A637B6893F84230DBB2402BA3
:1043C0000BD17B68002283F842207B68002283F8AF
:1043D00040207868FFF74AFB35E07B68002283F8CD
:1043E00042207B68002283F840207868FFF72AFB90
:1043F00029E07B6893F84130DBB2222B23D17B6824
:10440000202283F841207B6800221A637B6893F89E
:104410004230DBB2402B0BD17B68002283F8422074
:104420007B68002283F840207868FFF729FB0AE0C8
:104430007B68002283F842207B68002283F84020BA
:104440007868FFF709FB00BF1837BD4680BD00BF85
:1044500000E800FE0000FFFF80B586B000AF786086
:1044600039607B681B681B683B613B687B617B68CC
:1044700093F84130FB737B681B682022DA61FB7B79
:10448000212B02D0FB7B292B08D148F2010178684F
:1044900000F00EFB7B6821221A630DE0FB7B222BD0
:1044A00002D0FB7B2A2B07D148F20201786800F08A
:1044B000FFFA7B6822221A637B681B685A687B6854
:1044C0001B6842F400425A607B681B6859687B682D
:1044D0001A68644B0B405360786800F014FA3B692B
:1044E0009B0B03F00103002B13D07B681B681A6839
:1044F0007B681B6822F480421A607B689B6B002BF0
:1045000020D07B689B6B1B685B689AB27B685A857E
:1045100018E03B69DB0B03F00103002B12D07B6832
:104520001B681A687B681B6822F400421A607B686B
:10453000DB6B002B06D07B68DB6B1B685B689AB279
:104540007B685A857B699B0803F00103002B20D010
:104550007B6923F004037B617B681B685A6A7B6874
:104560005B6AD2B21A707B685B6A5A1C7B685A62BB
:104570007B681B8D002B0CD07B681B8D013B9AB296
:104580007B681A857B685B8D9BB2013B9AB27B6826
:104590005A857B685B8D9BB2002B05D07B685B6C7A
:1045A00043F004027B685A647B68002283F842204F
:1045B0007B6800225A637B685B6C002B10D07B68A1
:1045C0005B6C1946786800F0A7F87B6893F8413077
:1045D000DBB2282B41D17969786800F047F83CE0DC
:1045E0007B68DB6A13F5803F14D07868FFF70BFE19
:1045F0007B681D4ADA627B68202283F841207B6851
:1046000000221A637B68002283F840207868FCF758
:1046100007FE22E07B6893F84130DBB2222B0ED1FB
:104620007B68202283F841207B6800221A637B6824
:10463000002283F840207868FCF720FE0DE07B68BC
:10464000202283F841207B6800221A637B680022C5
:1046500083F840207868FCF721FE00BF1837BD467C
:1046600080BD00BF00E800FE0000FFFF80B582B003
:1046700000AF786039607B68264ADA627B68002286
:104680001A637B68202283F841207B68002283F82C
:1046900042207B6800225A633B689B0803F00103B9
:1046A000002B22D07B681B685A6A7B685B6AD2B297
:1046B0001A707B685B6A5A1C7B685A627B681B8D28
:1046C000002B12D07B681B8D013B9AB27B681A8548
:1046D0007B685B8D9BB2013B9AB27B685A857B6895
:1046E0005B6C43F004027B685A6448F2030178680B
:1046F00000F0DEF97B681B681022DA617B6800221B
:1047000083F840207868FCF78BFD00BF0837BD4672
:1047100080BD00BF0000FFFF80B584B000AF7860AF
:1047200039607B6893F84130FB737B68002283F823
:1047300042207B685D4ADA627B6800225A857B688A
:104740005A6C3B681A437B685A64FB7B282B05D064
:10475000FB7B292B02D0FB7B2A2B0BD10321786812
:1047600000F0A6F97B68282283F841207B68504A34
:104770005A6311E048F20301786800F099F97B6808
:1047800093F84130DBB2602B03D07B68202283F8A2
:1047900041207B6800225A637B681B6BBB607B688F
:1047A0009B6B002B39D0BB68112B02D0BB68212B2F
:1047B00033D17B681B681B6803F48043B3F5804FDB
:1047C00007D17B681B681A687B681B6822F48042EB
:1047D0001A607B689B6B1846FEF7E2FC0346012BD0
:1047E00017D07B689B6B334A5A637B68002283F83F
:1047F00040207B689B6B1846FEF794FC0346002B19
:104800004DD07B689B6B5B6B7A68926B10469847C8
:1048100045E0786800F050F841E07B68DB6B002BE6
:1048200039D0BB68122B02D0BB68222B33D17B68F6
:104830001B681B6803F40043B3F5004F07D17B6886
:104840001B681A687B681B6822F400421A607B6848
:10485000DB6B1846FEF7A4FC0346012B17D07B68E0
:10486000DB6B144A5A637B68002283F840207B6824
:10487000DB6B1846FEF756FC0346002B11D07B6815
:10488000DB6B5B6B7A68D26B1046984709E07868FF
:1048900000F012F805E0786800F00EF802E000BFC2
:1048A00000E000BF00BF1037BD4680BD0000FFFF25
:1048B000D93A00084F49000880B582B000AF78604F
:1048C0007B6893F84130DBB2602B0ED17B682022ED
:1048D00083F841207B6800221A637B68002283F8FA
:1048E00040207868FFF7E0F809E07B6800221A634F
:1048F0007B68002283F840207868FFF7CBF800BF80
:104900000837BD4680BD80B483B000AF78607B6857
:104910001B689B6903F00203022B03D17B681B68B1
:1049200000229A627B681B689B6903F00103012BDC
:1049300007D07B681B689A697B681B6842F001029C
:104940009A6100BF0C37BD465DF8047B704780B5A7
:1049500084B000AF78607B685B6AFB60FB689B6B30
:10496000002B03D0FB689B6B00225A63FB68DB6B58
:10497000002B03D0FB68DB6B00225A63F868FFF75B
:104980009BFF00BF1037BD4680BD000080B485B0DE
:1049900000AFF8607B600B467B8113467B72FB683F
:1049A0001B685A68BB695B0D03F480610D4B0B43B8
:1049B000DB4302EA03017B89C3F309027B7A1B0410
:1049C00003F47F031A437B681A43BB691A43FB68ED
:1049D0001B680A435A6000BF1437BD465DF8047B6C
:1049E000704700BFFF63FF0380B485B000AF7860FD
:1049F0000B467B800023FB607B685B6B2A4A9342FB
:104A000004D07B685B6B294A93421DD1B7F9023011
:104A1000002B03DAFB6843F0B803FB607B88102BA4
:104A200003D1FB6843F09003FB607B88202B03D10C
:104A3000FB6843F06003FB607B88402B25D1FB685B
:104A400043F04003FB6020E0B7F90230002B03DAAB
:104A5000FB6843F0B803FB607B8803F00103002B85
:104A600003D0FB6843F0F203FB607B8803F0020392
:104A7000002B03D0FB6843F0F403FB607B88202B02
:104A800003D1FB6843F02003FB607B681B68196857
:104A90007B681B68FA680A431A6000BF1437BD467A
:104AA0005DF8047B704700BFDF3C0008C53E00088E
:104AB00080B485B000AF78600B467B800023FB603C
:104AC0007B8803F00103002B0FD0FB6843F0420307
:104AD000FB607B6893F84130DBB203F02803282B9E
:104AE00003D0FB6843F0B003FB607B8803F0020354
:104AF000002B0FD0FB6843F04403FB607B6893F806
:104B00004130DBB203F02803282B03D0FB6843F0CD
:104B1000B003FB60B7F90230002B03DAFB6843F007
:104B2000B803FB607B88102B03D1FB6843F0900334
:104B3000FB607B88202B03D1FB6843F02003FB60E4
:104B40007B88402B03D1FB6843F04003FB607B680C
:104B50001B681968FB68DA437B681B680A401A60A7
:104B600000BF1437BD465DF8047B704780B483B046
:104B700000AF786039607B6893F84130DBB2202B5E
:104B800038D17B6893F84030012B01D1022332E009
:104B90007B68012283F840207B68242283F841202F
:104BA0007B681B681A687B681B6822F001021A6028
:104BB0007B681B681A687B681B6822F480521A6045
:104BC0007B681B6819687B681B683A680A431A602F
:104BD0007B681B681A687B681B6842F001021A60D8
:104BE0007B68202283F841207B68002283F84020E4
:104BF000002300E0022318460C37BD465DF8047B15
:104C0000704780B485B000AF786039607B6893F8F6
:104C10004130DBB2202B39D17B6893F84030012B37
:104C200001D1022333E07B68012283F840207B68B6
:104C3000242283F841207B681B681A687B681B6804
:104C400022F001021A607B681B681B68FB60FB682E
:104C500023F47063FB603B681B02FA681343FB603C
:104C60007B681B68FA681A607B681B681A687B6837
:104C70001B6842F001021A607B68202283F8412001
:104C80007B68002283F84020002300E002231846BE
:104C90001437BD465DF8047B7047F0B58BB006AFA6
:104CA00078607B68002B01D10123D0E07B6893F80A
:104CB000A932DBB2002B06D17B68002283F8A82240
:104CC0007868FCF77BFE7B68032283F8A9227B6867
:104CD0001B68184601F080FE0023FB734CE0FB7B51
:104CE00079685A1C13469B001344DB000B440133C4
:104CF00001221A70FB7B79685A1C13469B001344EF
:104D0000DB000B44FA7B1A70FA7BFB7B98B2796864
:104D100013469B001344DB000B44363302461A80D3
:104D2000FB7B79685A1C13469B001344DB000B4441
:104D3000033300221A70FA7B796813469B001344F0
:104D4000DB000B44383300221A60FA7B7968134683
:104D50009B001344DB000B443C3300221A60FA7BB7
:104D6000796813469B001344DB000B444033002258
:104D70001A60FB7B0133FB73FA7B7B685B689A42AA
:104D8000ADD30023FB7344E0FA7B796813469B00A4
:104D90001344DB000B4403F2691300221A70FA7B00
:104DA000796813469B001344DB000B4403F5B4738E
:104DB000FA7B1A70FA7B796813469B001344DB0078
:104DC0000B4403F26B1300221A70FA7B79681346C6
:104DD0009B001344DB000B4403F5BC7300221A60F4
:104DE000FA7B796813469B001344DB000B4403F500
:104DF000BE7300221A60FA7B796813469B00134445
:104E0000DB000B4403F5C07300221A60FB7B013307
:104E1000FB73FA7B7B685B689A42B5D37B681B683F
:104E20003B607E686D4606F110040FCC0FC5236809
:104E30002B60331D0ECB386801F0E9FD7B68002242
:104E400083F824207B68012283F8A92200231846D6
:104E50001437BD46F0BD000080B5ADF5007D00AF54
:104E60003B1D18603B1D1B68002B02D1012300F085
:104E7000F4BE3B1D1B681B6803F00103002B00F010
:104E80006A81B34B5B6803F00C03042B0CD0B04B6E
:104E90005B6803F00C03082B59D1AD4B5B6803F43E
:104EA0008033B3F5803F52D14FF40033C7F8F0316F
:104EB000D7F8F03193FAA3F3C7F8EC31D7F8EC3117
:104EC000B3FA83F3DBB25B09DBB243F00103DBB27D
:104ED000012B02D19E4B1B6815E04FF40033C7F83D
:104EE000E831D7F8E83193FAA3F3C7F8E4314FF487
:104EF0000033C7F8E031D7F8E03193FAA3F3C7F8ED
:104F0000DC31934B5B6A4FF40032C7F8D821D7F8F5
:104F1000D82192FAA2F2C7F8D421D7F8D421B2FA54
:104F200082F2D2B242F02002D2B202F01F0201217C
:104F300001FA02F21340002B00F00C813B1D1B68AC
:104F40005B68002B40F00681012300F086BE3B1D0C
:104F50001B685B68B3F5803F06D17D4B1B687C4ABC
:104F600043F48033136030E03B1D1B685B68002B0B
:104F70000CD1774B1B68764A23F480331360744B53
:104F80001B68734A23F4802313601EE03B1D1B68DB
:104F90005B68B3F5A02F0CD16D4B1B686C4A43F4D2
:104FA000802313606A4B1B68694A43F480331360A3
:104FB0000BE0674B1B68664A23F480331360644B35
:104FC0001B68634A23F480231360614BDB6A23F080
:104FD0000F023B1D1B689B685D491343CB623B1D61
:104FE0001B685B68002B59D0FCF714FEC7F8F8016A
:104FF0000AE0FCF70FFE0246D7F8F831D31A642B0B
:1050000002D9032300F029BE4FF40033C7F8D03192
:10501000D7F8D03193FAA3F3C7F8CC31D7F8CC3115
:10502000B3FA83F3DBB25B09DBB243F00103DBB21B
:10503000012B02D1464B1B6815E04FF40033C7F833
:10504000C831D7F8C83193FAA3F3C7F8C4314FF485
:105050000033C7F8C031D7F8C03193FAA3F3C7F8CB
:10506000BC313B4B5B6A4FF40032C7F8B821D7F82C
:10507000B82192FAA2F2C7F8B421D7F8B421B2FA53
:1050800082F2D2B242F02002D2B202F01F0201211B
:1050900001FA02F21340002BABD05CE0FCF7BAFD42
:1050A000C7F8F8010AE0FCF7B5FD0246D7F8F83179
:1050B000D31A642B02D9032300F0CFBD4FF4003381
:1050C000C7F8B031D7F8B03193FAA3F3C7F8AC31D1
:1050D000D7F8AC31B3FA83F3DBB25B09DBB243F050
:1050E0000103DBB2012B02D1194B1B6815E04FF411
:1050F0000033C7F8A831D7F8A83193FAA3F3C7F85B
:10510000A4314FF40033C7F8A031D7F8A03193FA97
:10511000A3F3C7F89C310E4B5B6A4FF40032C7F81B
:105120009821D7F8982192FAA2F2C7F89421D7F8DB
:105130009421B2FA82F2D2B242F02002D2B202F04C
:105140001F02012101FA02F21340002BABD102E051
:105150000010024000BF3B1D1B681B6803F00203E8
:10516000002B00F06F81D04B5B6803F00C03002B29
:105170000BD0CD4B5B6803F00C03082B6CD1CA4BF2
:105180005B6803F48033002B66D10223C7F89031AB
:10519000D7F8903193FAA3F3C7F88C31D7F88C3154
:1051A000B3FA83F3DBB25B09DBB243F00103DBB29A
:1051B000012B02D1BC4B1B6813E00223C7F88831D6
:1051C000D7F8883193FAA3F3C7F884310223C7F8DC
:1051D0008031D7F8803193FAA3F3C7F87C31B24B12
:1051E0005B6A0222C7F87821D7F8782192FAA2F2F6
:1051F000C7F87421D7F87421B2FA82F2D2B242F021
:105200002002D2B202F01F02012101FA02F2134081
:10521000002B07D03B1D1B681B69012B02D001230B
:1052200000F01BBDA04B1B6823F0F8023B1D1B6860
:105230005B69F821C7F87011D7F8701191FAA1F1E4
:10524000C7F86C11D7F86C11B1FA81F1C9B28B4073
:10525000954913430B60F5E03B1D1B681B69002B50
:1052600000F085800123C7F86831D7F8683193FAD8
:10527000A3F3C7F86431D7F86431B3FA83F3DBB230
:1052800003F1845303F584139B001A460123136032
:10529000FCF7C0FCC7F8F8010AE0FCF7BBFC0246CB
:1052A000D7F8F831D31A022B02D9032300F0D5BC6A
:1052B0000223C7F86031D7F8603193FAA3F3C7F837
:1052C0005C31D7F85C31B3FA83F3DBB25B09DBB254
:1052D00043F00103DBB2012B02D1734B1B6813E0D7
:1052E0000223C7F85831D7F8583193FAA3F3C7F817
:1052F00054310223C7F85031D7F8503193FAA3F351
:10530000C7F84C31684B5B6A0222C7F84821D7F8CE
:10531000482192FAA2F2C7F84421D7F84421B2FA00
:1053200082F2D2B242F02002D2B202F01F02012178
:1053300001FA02F21340002BAFD05B4B1B6823F045
:10534000F8023B1D1B685B69F821C7F84011D7F8CC
:10535000401191FAA1F1C7F83C11D7F83C11B1FA0C
:1053600081F1C9B28B40504913430B606AE00123BD
:10537000C7F83831D7F8383193FAA3F3C7F8343186
:10538000D7F83431B3FA83F3DBB203F1845303F576
:1053900084139B001A4600231360FCF73BFCC7F8FC
:1053A000F8010AE0FCF736FC0246D7F8F831D31AC8
:1053B000022B02D9032300F050BC0223C7F830317E
:1053C000D7F8303193FAA3F3C7F82C31D7F82C3142
:1053D000B3FA83F3DBB25B09DBB243F00103DBB268
:1053E000012B02D1304B1B6813E00223C7F8283190
:1053F000D7F8283193FAA3F3C7F824310223C7F86A
:105400002031D7F8203193FAA3F3C7F81C31264B8B
:105410005B6A0222C7F81821D7F8182192FAA2F283
:10542000C7F81421D7F81421B2FA82F2D2B242F0AE
:105430002002D2B202F01F02012101FA02F213404F
:10544000002BAFD13B1D1B681B6803F00803002B2A
:1054500000F0DA803B1D1B689B69002B69D001239B
:10546000C7F81031D7F8103193FAA3F3C7F80C310D
:10547000D7F80C31B3FA83F3DBB21A460B4B134463
:105480009B001A4601231360FCF7C4FBC7F8F80120
:105490000EE0FCF7BFFB0246D7F8F831D31A022B17
:1054A00006D90323D9E300BF0010024020819010E9
:1054B0000223C7F80831D7F8083193FAA3F3C7F8E5
:1054C000043107F5807302221A6007F580731B68A8
:1054D00093FAA3F207F1FC031A6007F1F803022222
:1054E0001A6007F1F8031B6893FAA3F207F1F403BB
:1054F0001A60A54B5A6A07F1F0030221196007F1FF
:10550000F0031B6893FAA3F107F1EC03196007F1AC
:10551000EC031B68B3FA83F3DBB243F06003DBB246
:1055200003F01F03012101FA03F31340002BB0D055
:105530006AE007F1E80301221A6007F1E8031B683B
:1055400093FAA3F207F1E4031A6007F1E4031B687E
:10555000B3FA83F3DBB21A468C4B13449B001A4612
:1055600000231360FCF756FBC7F8F80109E0FCF7CD
:1055700051FB0246D7F8F831D31A022B01D9032385
:105580006BE307F1E00302221A6007F1E0031B68F6
:1055900093FAA3F207F1DC031A6007F1D8030222A1
:1055A0001A6007F1D8031B6893FAA3F207F1D4033A
:1055B0001A6007F1D00302221A6007F1D0031B68BA
:1055C00093FAA3F207F1CC031A606F4B5A6A07F102
:1055D000C8030221196007F1C8031B6893FAA3F1FD
:1055E00007F1C403196007F1C4031B68B3FA83F31E
:1055F000DBB243F06003DBB203F01F03012101FAC9
:1056000003F31340002BB2D13B1D1B681B6803F052
:105610000403002B00F05881002387F8FF315A4B18
:10562000DB6903F08053002B12D1574BDB69564ADC
:1056300043F08053D361544BDB6903F0805207F190
:1056400008031A6007F108031B68012387F8FF317C
:105650004F4B1B6803F48073002B1AD14C4B1B6813
:105660004B4A43F480731360FCF7D4FAC7F8F8018F
:1056700009E0FCF7CFFA0246D7F8F831D31A642BC9
:1056800001D90323E9E2424B1B6803F48073002B2A
:10569000EFD03B1D1B68DB68012B06D13A4B1B6A20
:1056A000394A43F0010313622FE03B1D1B68DB689E
:1056B000002B0CD1344B1B6A334A23F001031362D5
:1056C000314B1B6A304A23F0040313621DE03B1D7B
:1056D0001B68DB68052B0CD12B4B1B6A2A4A43F055
:1056E00004031362284B1B6A274A43F00103136229
:1056F0000BE0254B1B6A244A23F001031362224B63
:105700001B6A214A23F0040313623B1D1B68DB68FC
:10571000002B6BD0FCF77EFAC7F8F8010BE0FCF722
:1057200079FA0246D7F8F831D31A41F28832934217
:1057300001D9032391E207F1C00302221A6007F1A5
:10574000C0031B6893FAA3F207F1BC031A6007F1C8
:10575000B80302221A6007F1B8031B6893FAA3F298
:1057600007F1B4031A6007F1B4031B68B3FA83F3BB
:10577000DBB25B09DBB243F00203DBB2022B09D1DF
:10578000014B1B6A14E000BF001002402081901002
:105790000070004007F1B00302221A6007F1B00365
:1057A0001B6893FAA3F207F1AC031A60BB4B5B6A68
:1057B00007F1A8020221116007F1A802126892FA0B
:1057C000A2F107F1A402116007F1A4021268B2FA73
:1057D00082F2D2B242F04002D2B202F01F020121A4
:1057E00001FA02F21340002B99D063E0FCF712FAA1
:1057F000C7F8F8010BE0FCF70DFA0246D7F8F831CC
:10580000D31A41F28832934201D9032325E207F1EA
:10581000A00302221A6007F1A0031B6893FAA3F207
:1058200007F19C031A6007F1980302221A6007F13E
:1058300098031B6893FAA3F207F194031A6007F127
:1058400094031B68B3FA83F3DBB25B09DBB243F06A
:105850000203DBB2022B02D1904B1B6A0DE007F171
:10586000900302221A6007F190031B6893FAA3F2D7
:1058700007F18C031A60894B5B6A07F188020221E9
:10588000116007F18802126892FAA2F107F184020E
:10589000116007F184021268B2FA82F2D2B242F0C9
:1058A0004002D2B202F01F02012101FA02F21340BB
:1058B000002BA0D197F8FF31012B05D1774BDB6985
:1058C000764A23F08053D3613B1D1B68DB69002BB4
:1058D00000F0C281714B5B6803F00C03082B00F0F1
:1058E0009C813B1D1B68DB69022B40F0148107F192
:1058F00080034FF080721A6007F180031B6893FAEF
:10590000A3F207F17C031A6007F17C031B68B3FA6A
:1059100083F3DBB203F1845303F584139B001A462F
:1059200000231360FCF776F9C7F8F80109E0FCF7EB
:1059300071F90246D7F8F831D31A022B01D90323A3
:105940008BE107F178034FF000721A6007F17803DA
:105950001B6893FAA3F207F174031A6007F174034A
:105960001B68B3FA83F3DBB25B09DBB243F00103DC
:10597000DBB2012B02D1494B1B681BE007F170031E
:105980004FF000721A6007F170031B6893FAA3F2DC
:1059900007F16C031A6007F168034FF000721A6098
:1059A00007F168031B6893FAA3F207F164031A6016
:1059B0003A4B5B6A07F160024FF00071116007F12A
:1059C0006002126892FAA2F107F15C02116007F11D
:1059D0005C021268B2FA82F2D2B242F02002D2B273
:1059E00002F01F02012101FA02F21340002B9ED1A6
:1059F0002A4B5B6823F474123B1D1B68596A3B1DDC
:105A00001B681B6A0B43254913434B6007F158037E
:105A10004FF080721A6007F158031B6893FAA3F2E3
:105A200007F154031A6007F154031B68B3FA83F3B8
:105A3000DBB203F1845303F584139B001A46012360
:105A40001360FCF7E7F8C7F8F80109E0FCF7E2F8A3
:105A50000246D7F8F831D31A022B01D90323FCE010
:105A600007F150034FF000721A6007F150031B68F2
:105A700093FAA3F207F14C031A6007F14C031B6879
:105A8000B3FA83F3DBB25B09DBB243F00103DBB2B1
:105A9000012B05D1014B1B681EE000BF0010024026
:105AA00007F148034FF000721A6007F148031B68C2
:105AB00093FAA3F207F144031A6007F140034FF091
:105AC00000721A6007F140031B6893FAA3F207F112
:105AD0003C031A60634B5B6A07F138024FF00071B8
